{
	"Arbitrage.sol": {
		"arbitrage": {
			"abi": [
				{
					"inputs": [],
					"stateMutability": "nonpayable",
					"type": "constructor"
				},
				{
					"inputs": [
						{
							"internalType": "uint256",
							"name": "amountIn",
							"type": "uint256"
						}
					],
					"name": "buyWETHOnCurve",
					"outputs": [
						{
							"internalType": "uint256",
							"name": "amountOut",
							"type": "uint256"
						}
					],
					"stateMutability": "nonpayable",
					"type": "function"
				},
				{
					"inputs": [
						{
							"internalType": "uint256",
							"name": "amountIn",
							"type": "uint256"
						}
					],
					"name": "buyWETHOnUniswap",
					"outputs": [
						{
							"internalType": "uint256",
							"name": "amountOut",
							"type": "uint256"
						}
					],
					"stateMutability": "nonpayable",
					"type": "function"
				},
				{
					"inputs": [],
					"name": "depositWETH",
					"outputs": [],
					"stateMutability": "payable",
					"type": "function"
				},
				{
					"inputs": [
						{
							"internalType": "uint256",
							"name": "amountInUSDC",
							"type": "uint256"
						}
					],
					"name": "exactueArbitrage",
					"outputs": [
						{
							"internalType": "uint256",
							"name": "profit",
							"type": "uint256"
						}
					],
					"stateMutability": "nonpayable",
					"type": "function"
				},
				{
					"inputs": [
						{
							"internalType": "uint256",
							"name": "amountIn",
							"type": "uint256"
						}
					],
					"name": "getAmountOutCurve",
					"outputs": [
						{
							"internalType": "uint256",
							"name": "amoutOut",
							"type": "uint256"
						}
					],
					"stateMutability": "view",
					"type": "function"
				},
				{
					"inputs": [
						{
							"internalType": "uint256",
							"name": "amoutIn",
							"type": "uint256"
						}
					],
					"name": "getAmountOutUniswapV3",
					"outputs": [
						{
							"internalType": "uint256",
							"name": "amoutOut",
							"type": "uint256"
						}
					],
					"stateMutability": "view",
					"type": "function"
				},
				{
					"inputs": [
						{
							"internalType": "uint256",
							"name": "index",
							"type": "uint256"
						}
					],
					"name": "getCoinsFromCurvePool",
					"outputs": [
						{
							"internalType": "address",
							"name": "",
							"type": "address"
						}
					],
					"stateMutability": "view",
					"type": "function"
				},
				{
					"inputs": [
						{
							"internalType": "uint256",
							"name": "amountIn",
							"type": "uint256"
						}
					],
					"name": "sellWETHOnCurve",
					"outputs": [
						{
							"internalType": "uint256",
							"name": "amountOut",
							"type": "uint256"
						}
					],
					"stateMutability": "nonpayable",
					"type": "function"
				},
				{
					"inputs": [
						{
							"internalType": "uint256",
							"name": "amountIn",
							"type": "uint256"
						}
					],
					"name": "sellWETHOnUniswap",
					"outputs": [
						{
							"internalType": "uint256",
							"name": "amountOut",
							"type": "uint256"
						}
					],
					"stateMutability": "nonpayable",
					"type": "function"
				}
			],
			"devdoc": {
				"kind": "dev",
				"methods": {},
				"version": 1
			},
			"evm": {
				"assembly": "    /* \"Arbitrage.sol\":928:5245  contract arbitrage{... */\n  mstore(0x40, 0x80)\n    /* \"Arbitrage.sol\":971:1020  constructor() {... */\n  callvalue\n  dup1\n  iszero\n  tag_1\n  jumpi\n  0x00\n  dup1\n  revert\ntag_1:\n  pop\n    /* \"Arbitrage.sol\":1003:1013  msg.sender */\n  caller\n    /* \"Arbitrage.sol\":995:1000  admin */\n  0x00\n  dup1\n    /* \"Arbitrage.sol\":995:1013  admin = msg.sender */\n  0x0100\n  exp\n  dup2\n  sload\n  dup2\n  0xffffffffffffffffffffffffffffffffffffffff\n  mul\n  not\n  and\n  swap1\n  dup4\n  0xffffffffffffffffffffffffffffffffffffffff\n  and\n  mul\n  or\n  swap1\n  sstore\n  pop\n    /* \"Arbitrage.sol\":928:5245  contract arbitrage{... */\n  dataSize(sub_0)\n  dup1\n  dataOffset(sub_0)\n  0x00\n  codecopy\n  0x00\n  return\nstop\n\nsub_0: assembly {\n        /* \"Arbitrage.sol\":928:5245  contract arbitrage{... */\n      mstore(0x40, 0x80)\n      jumpi(tag_1, lt(calldatasize, 0x04))\n      shr(0xe0, calldataload(0x00))\n      dup1\n      0x64084ac0\n      gt\n      tag_11\n      jumpi\n      dup1\n      0x64084ac0\n      eq\n      tag_6\n      jumpi\n      dup1\n      0x793c0845\n      eq\n      tag_7\n      jumpi\n      dup1\n      0x926446db\n      eq\n      tag_8\n      jumpi\n      dup1\n      0xbbceefe3\n      eq\n      tag_9\n      jumpi\n      dup1\n      0xcc9901aa\n      eq\n      tag_10\n      jumpi\n      jump(tag_1)\n    tag_11:\n      dup1\n      0x064a8a8a\n      eq\n      tag_2\n      jumpi\n      dup1\n      0x1de3df2c\n      eq\n      tag_3\n      jumpi\n      dup1\n      0x3eb61c1c\n      eq\n      tag_4\n      jumpi\n      dup1\n      0x54258cc4\n      eq\n      tag_5\n      jumpi\n    tag_1:\n      0x00\n      dup1\n      revert\n        /* \"Arbitrage.sol\":3532:3806  function buyWETHOnUniswap(uint256 amountIn)external onlyAdmin returns(uint256 amountOut){... */\n    tag_2:\n      callvalue\n      dup1\n      iszero\n      tag_12\n      jumpi\n      0x00\n      dup1\n      revert\n    tag_12:\n      pop\n      tag_13\n      0x04\n      dup1\n      calldatasize\n      sub\n      dup2\n      add\n      swap1\n      tag_14\n      swap2\n      swap1\n      tag_15\n      jump\t// in\n    tag_14:\n      tag_16\n      jump\t// in\n    tag_13:\n      mload(0x40)\n      tag_17\n      swap2\n      swap1\n      tag_18\n      jump\t// in\n    tag_17:\n      mload(0x40)\n      dup1\n      swap2\n      sub\n      swap1\n      return\n        /* \"Arbitrage.sol\":2437:2525  function depositWETH()external payable {... */\n    tag_3:\n      tag_19\n      tag_20\n      jump\t// in\n    tag_19:\n      stop\n        /* \"Arbitrage.sol\":5099:5243  function getAmountOutCurve(uint256 amountIn) external view returns (uint256 amoutOut){... */\n    tag_4:\n      callvalue\n      dup1\n      iszero\n      tag_21\n      jumpi\n      0x00\n      dup1\n      revert\n    tag_21:\n      pop\n      tag_22\n      0x04\n      dup1\n      calldatasize\n      sub\n      dup2\n      add\n      swap1\n      tag_23\n      swap2\n      swap1\n      tag_15\n      jump\t// in\n    tag_23:\n      tag_24\n      jump\t// in\n    tag_22:\n      mload(0x40)\n      tag_25\n      swap2\n      swap1\n      tag_18\n      jump\t// in\n    tag_25:\n      mload(0x40)\n      dup1\n      swap2\n      sub\n      swap1\n      return\n        /* \"Arbitrage.sol\":3252:3527  function sellWETHOnUniswap(uint256 amountIn)external onlyAdmin returns(uint256 amountOut){... */\n    tag_5:\n      callvalue\n      dup1\n      iszero\n      tag_26\n      jumpi\n      0x00\n      dup1\n      revert\n    tag_26:\n      pop\n      tag_27\n      0x04\n      dup1\n      calldatasize\n      sub\n      dup2\n      add\n      swap1\n      tag_28\n      swap2\n      swap1\n      tag_15\n      jump\t// in\n    tag_28:\n      tag_29\n      jump\t// in\n    tag_27:\n      mload(0x40)\n      tag_30\n      swap2\n      swap1\n      tag_18\n      jump\t// in\n    tag_30:\n      mload(0x40)\n      dup1\n      swap2\n      sub\n      swap1\n      return\n        /* \"Arbitrage.sol\":4350:4471  function getCoinsFromCurvePool(uint256 index)external view returns(address){... */\n    tag_6:\n      callvalue\n      dup1\n      iszero\n      tag_31\n      jumpi\n      0x00\n      dup1\n      revert\n    tag_31:\n      pop\n      tag_32\n      0x04\n      dup1\n      calldatasize\n      sub\n      dup2\n      add\n      swap1\n      tag_33\n      swap2\n      swap1\n      tag_15\n      jump\t// in\n    tag_33:\n      tag_34\n      jump\t// in\n    tag_32:\n      mload(0x40)\n      tag_35\n      swap2\n      swap1\n      tag_36\n      jump\t// in\n    tag_35:\n      mload(0x40)\n      dup1\n      swap2\n      sub\n      swap1\n      return\n        /* \"Arbitrage.sol\":4476:4782  function buyWETHOnCurve(uint256 amountIn) external onlyAdmin returns (uint256 amountOut){... */\n    tag_7:\n      callvalue\n      dup1\n      iszero\n      tag_37\n      jumpi\n      0x00\n      dup1\n      revert\n    tag_37:\n      pop\n      tag_38\n      0x04\n      dup1\n      calldatasize\n      sub\n      dup2\n      add\n      swap1\n      tag_39\n      swap2\n      swap1\n      tag_15\n      jump\t// in\n    tag_39:\n      tag_40\n      jump\t// in\n    tag_38:\n      mload(0x40)\n      tag_41\n      swap2\n      swap1\n      tag_18\n      jump\t// in\n    tag_41:\n      mload(0x40)\n      dup1\n      swap2\n      sub\n      swap1\n      return\n        /* \"Arbitrage.sol\":1146:2093  function exactueArbitrage(uint256 amountInUSDC)external onlyAdmin returns(uint256 profit) {... */\n    tag_8:\n      callvalue\n      dup1\n      iszero\n      tag_42\n      jumpi\n      0x00\n      dup1\n      revert\n    tag_42:\n      pop\n      tag_43\n      0x04\n      dup1\n      calldatasize\n      sub\n      dup2\n      add\n      swap1\n      tag_44\n      swap2\n      swap1\n      tag_15\n      jump\t// in\n    tag_44:\n      tag_45\n      jump\t// in\n    tag_43:\n      mload(0x40)\n      tag_46\n      swap2\n      swap1\n      tag_18\n      jump\t// in\n    tag_46:\n      mload(0x40)\n      dup1\n      swap2\n      sub\n      swap1\n      return\n        /* \"Arbitrage.sol\":3814:4228  function getAmountOutUniswapV3(uint256 amoutIn)external  view returns (uint256 amoutOut){... */\n    tag_9:\n      callvalue\n      dup1\n      iszero\n      tag_47\n      jumpi\n      0x00\n      dup1\n      revert\n    tag_47:\n      pop\n      tag_48\n      0x04\n      dup1\n      calldatasize\n      sub\n      dup2\n      add\n      swap1\n      tag_49\n      swap2\n      swap1\n      tag_15\n      jump\t// in\n    tag_49:\n      tag_50\n      jump\t// in\n    tag_48:\n      mload(0x40)\n      tag_51\n      swap2\n      swap1\n      tag_18\n      jump\t// in\n    tag_51:\n      mload(0x40)\n      dup1\n      swap2\n      sub\n      swap1\n      return\n        /* \"Arbitrage.sol\":4787:5094  function sellWETHOnCurve(uint256 amountIn) external onlyAdmin returns (uint256 amountOut){... */\n    tag_10:\n      callvalue\n      dup1\n      iszero\n      tag_52\n      jumpi\n      0x00\n      dup1\n      revert\n    tag_52:\n      pop\n      tag_53\n      0x04\n      dup1\n      calldatasize\n      sub\n      dup2\n      add\n      swap1\n      tag_54\n      swap2\n      swap1\n      tag_15\n      jump\t// in\n    tag_54:\n      tag_55\n      jump\t// in\n    tag_53:\n      mload(0x40)\n      tag_56\n      swap2\n      swap1\n      tag_18\n      jump\t// in\n    tag_56:\n      mload(0x40)\n      dup1\n      swap2\n      sub\n      swap1\n      return\n        /* \"Arbitrage.sol\":3532:3806  function buyWETHOnUniswap(uint256 amountIn)external onlyAdmin returns(uint256 amountOut){... */\n    tag_16:\n        /* \"Arbitrage.sol\":3602:3619  uint256 amountOut */\n      0x00\n        /* \"Arbitrage.sol\":1079:1084  admin */\n      dup1\n      0x00\n      swap1\n      sload\n      swap1\n      0x0100\n      exp\n      swap1\n      div\n      0xffffffffffffffffffffffffffffffffffffffff\n      and\n        /* \"Arbitrage.sol\":1065:1084  msg.sender == admin */\n      0xffffffffffffffffffffffffffffffffffffffff\n      and\n        /* \"Arbitrage.sol\":1065:1075  msg.sender */\n      caller\n        /* \"Arbitrage.sol\":1065:1084  msg.sender == admin */\n      0xffffffffffffffffffffffffffffffffffffffff\n      and\n      eq\n        /* \"Arbitrage.sol\":1057:1123  require(msg.sender == admin, \"Only admin can call this function.\") */\n      tag_58\n      jumpi\n      mload(0x40)\n      0x08c379a000000000000000000000000000000000000000000000000000000000\n      dup2\n      mstore\n      0x04\n      add\n      tag_59\n      swap1\n      tag_60\n      jump\t// in\n    tag_59:\n      mload(0x40)\n      dup1\n      swap2\n      sub\n      swap1\n      revert\n    tag_58:\n        /* \"Arbitrage.sol\":3670:3678  amountIn */\n      dup2\n        /* \"Arbitrage.sol\":808:850  0xA0b86991c6218b36c1d19D4a2e9Eb0cE3606eB48 */\n      0xa0b86991c6218b36c1d19d4a2e9eb0ce3606eb48\n        /* \"Arbitrage.sol\":3638:3652  USDC.balanceOf */\n      0xffffffffffffffffffffffffffffffffffffffff\n      and\n      0x70a08231\n        /* \"Arbitrage.sol\":3661:3665  this */\n      address\n        /* \"Arbitrage.sol\":3638:3667  USDC.balanceOf(address(this)) */\n      mload(0x40)\n      dup3\n      0xffffffff\n      and\n      0xe0\n      shl\n      dup2\n      mstore\n      0x04\n      add\n      tag_62\n      swap2\n      swap1\n      tag_36\n      jump\t// in\n    tag_62:\n      0x20\n      mload(0x40)\n      dup1\n      dup4\n      sub\n      dup2\n      dup7\n      gas\n      staticcall\n      iszero\n      dup1\n      iszero\n      tag_64\n      jumpi\n      returndatasize\n      0x00\n      dup1\n      returndatacopy\n      revert(0x00, returndatasize)\n    tag_64:\n      pop\n      pop\n      pop\n      pop\n      mload(0x40)\n      returndatasize\n      not(0x1f)\n      0x1f\n      dup3\n      add\n      and\n      dup3\n      add\n      dup1\n      0x40\n      mstore\n      pop\n      dup2\n      add\n      swap1\n      tag_65\n      swap2\n      swap1\n      tag_66\n      jump\t// in\n    tag_65:\n        /* \"Arbitrage.sol\":3638:3678  USDC.balanceOf(address(this))>= amountIn */\n      lt\n      iszero\n        /* \"Arbitrage.sol\":3630:3708  require(USDC.balanceOf(address(this))>= amountIn,\"USDC balsenceOF not enough\") */\n      tag_67\n      jumpi\n      mload(0x40)\n      0x08c379a000000000000000000000000000000000000000000000000000000000\n      dup2\n      mstore\n      0x04\n      add\n      tag_68\n      swap1\n      tag_69\n      jump\t// in\n    tag_68:\n      mload(0x40)\n      dup1\n      swap2\n      sub\n      swap1\n      revert\n    tag_67:\n        /* \"Arbitrage.sol\":3730:3799  swapExactInputSingleHop(address(USDC), address(WETH),3000 , amountIn) */\n      tag_70\n        /* \"Arbitrage.sol\":808:850  0xA0b86991c6218b36c1d19D4a2e9Eb0cE3606eB48 */\n      0xa0b86991c6218b36c1d19d4a2e9eb0ce3606eb48\n        /* \"Arbitrage.sol\":667:709  0xC02aaA39b223FE8D0A0e5C4F27eAD9083C756Cc2 */\n      0xc02aaa39b223fe8d0a0e5c4f27ead9083c756cc2\n        /* \"Arbitrage.sol\":3783:3787  3000 */\n      0x0bb8\n        /* \"Arbitrage.sol\":3790:3798  amountIn */\n      dup6\n        /* \"Arbitrage.sol\":3730:3753  swapExactInputSingleHop */\n      tag_71\n        /* \"Arbitrage.sol\":3730:3799  swapExactInputSingleHop(address(USDC), address(WETH),3000 , amountIn) */\n      jump\t// in\n    tag_70:\n        /* \"Arbitrage.sol\":3718:3799  amountOut = swapExactInputSingleHop(address(USDC), address(WETH),3000 , amountIn) */\n      swap1\n      pop\n        /* \"Arbitrage.sol\":3532:3806  function buyWETHOnUniswap(uint256 amountIn)external onlyAdmin returns(uint256 amountOut){... */\n      swap2\n      swap1\n      pop\n      jump\t// out\n        /* \"Arbitrage.sol\":2437:2525  function depositWETH()external payable {... */\n    tag_20:\n        /* \"Arbitrage.sol\":667:709  0xC02aaA39b223FE8D0A0e5C4F27eAD9083C756Cc2 */\n      0xc02aaa39b223fe8d0a0e5c4f27ead9083c756cc2\n        /* \"Arbitrage.sol\":2486:2498  WETH.deposit */\n      0xffffffffffffffffffffffffffffffffffffffff\n      and\n      0xd0e30db0\n        /* \"Arbitrage.sol\":2505:2514  msg.value */\n      callvalue\n        /* \"Arbitrage.sol\":2486:2517  WETH.deposit{value:msg.value}() */\n      mload(0x40)\n      dup3\n      0xffffffff\n      and\n      0xe0\n      shl\n      dup2\n      mstore\n      0x04\n      add\n      0x00\n      mload(0x40)\n      dup1\n      dup4\n      sub\n      dup2\n      dup6\n      dup9\n      dup1\n      extcodesize\n      iszero\n      dup1\n      iszero\n      tag_73\n      jumpi\n      0x00\n      dup1\n      revert\n    tag_73:\n      pop\n      gas\n      call\n      iszero\n      dup1\n      iszero\n      tag_75\n      jumpi\n      returndatasize\n      0x00\n      dup1\n      returndatacopy\n      revert(0x00, returndatasize)\n    tag_75:\n      pop\n      pop\n      pop\n      pop\n      pop\n        /* \"Arbitrage.sol\":2437:2525  function depositWETH()external payable {... */\n      jump\t// out\n        /* \"Arbitrage.sol\":5099:5243  function getAmountOutCurve(uint256 amountIn) external view returns (uint256 amoutOut){... */\n    tag_24:\n        /* \"Arbitrage.sol\":5167:5183  uint256 amoutOut */\n      0x00\n        /* \"Arbitrage.sol\":4301:4343  0x7F86Bf177Dd4F3494b841a37e810A34dD56c829B */\n      0x7f86bf177dd4f3494b841a37e810a34dd56c829b\n        /* \"Arbitrage.sol\":5205:5221  curvePool.get_dy */\n      0xffffffffffffffffffffffffffffffffffffffff\n      and\n      0x556d6e9f\n        /* \"Arbitrage.sol\":5222:5223  0 */\n      0x00\n        /* \"Arbitrage.sol\":5224:5225  2 */\n      0x02\n        /* \"Arbitrage.sol\":5226:5234  amountIn */\n      dup6\n        /* \"Arbitrage.sol\":5205:5235  curvePool.get_dy(0,2,amountIn) */\n      mload(0x40)\n      dup5\n      0xffffffff\n      and\n      0xe0\n      shl\n      dup2\n      mstore\n      0x04\n      add\n      tag_77\n      swap4\n      swap3\n      swap2\n      swap1\n      tag_78\n      jump\t// in\n    tag_77:\n      0x20\n      mload(0x40)\n      dup1\n      dup4\n      sub\n      dup2\n      dup7\n      gas\n      staticcall\n      iszero\n      dup1\n      iszero\n      tag_80\n      jumpi\n      returndatasize\n      0x00\n      dup1\n      returndatacopy\n      revert(0x00, returndatasize)\n    tag_80:\n      pop\n      pop\n      pop\n      pop\n      mload(0x40)\n      returndatasize\n      not(0x1f)\n      0x1f\n      dup3\n      add\n      and\n      dup3\n      add\n      dup1\n      0x40\n      mstore\n      pop\n      dup2\n      add\n      swap1\n      tag_81\n      swap2\n      swap1\n      tag_66\n      jump\t// in\n    tag_81:\n        /* \"Arbitrage.sol\":5194:5235  amoutOut = curvePool.get_dy(0,2,amountIn) */\n      swap1\n      pop\n        /* \"Arbitrage.sol\":5099:5243  function getAmountOutCurve(uint256 amountIn) external view returns (uint256 amoutOut){... */\n      swap2\n      swap1\n      pop\n      jump\t// out\n        /* \"Arbitrage.sol\":3252:3527  function sellWETHOnUniswap(uint256 amountIn)external onlyAdmin returns(uint256 amountOut){... */\n    tag_29:\n        /* \"Arbitrage.sol\":3323:3340  uint256 amountOut */\n      0x00\n        /* \"Arbitrage.sol\":1079:1084  admin */\n      dup1\n      0x00\n      swap1\n      sload\n      swap1\n      0x0100\n      exp\n      swap1\n      div\n      0xffffffffffffffffffffffffffffffffffffffff\n      and\n        /* \"Arbitrage.sol\":1065:1084  msg.sender == admin */\n      0xffffffffffffffffffffffffffffffffffffffff\n      and\n        /* \"Arbitrage.sol\":1065:1075  msg.sender */\n      caller\n        /* \"Arbitrage.sol\":1065:1084  msg.sender == admin */\n      0xffffffffffffffffffffffffffffffffffffffff\n      and\n      eq\n        /* \"Arbitrage.sol\":1057:1123  require(msg.sender == admin, \"Only admin can call this function.\") */\n      tag_83\n      jumpi\n      mload(0x40)\n      0x08c379a000000000000000000000000000000000000000000000000000000000\n      dup2\n      mstore\n      0x04\n      add\n      tag_84\n      swap1\n      tag_60\n      jump\t// in\n    tag_84:\n      mload(0x40)\n      dup1\n      swap2\n      sub\n      swap1\n      revert\n    tag_83:\n        /* \"Arbitrage.sol\":3391:3399  amountIn */\n      dup2\n        /* \"Arbitrage.sol\":667:709  0xC02aaA39b223FE8D0A0e5C4F27eAD9083C756Cc2 */\n      0xc02aaa39b223fe8d0a0e5c4f27ead9083c756cc2\n        /* \"Arbitrage.sol\":3359:3373  WETH.balanceOf */\n      0xffffffffffffffffffffffffffffffffffffffff\n      and\n      0x70a08231\n        /* \"Arbitrage.sol\":3382:3386  this */\n      address\n        /* \"Arbitrage.sol\":3359:3388  WETH.balanceOf(address(this)) */\n      mload(0x40)\n      dup3\n      0xffffffff\n      and\n      0xe0\n      shl\n      dup2\n      mstore\n      0x04\n      add\n      tag_86\n      swap2\n      swap1\n      tag_36\n      jump\t// in\n    tag_86:\n      0x20\n      mload(0x40)\n      dup1\n      dup4\n      sub\n      dup2\n      dup7\n      gas\n      staticcall\n      iszero\n      dup1\n      iszero\n      tag_88\n      jumpi\n      returndatasize\n      0x00\n      dup1\n      returndatacopy\n      revert(0x00, returndatasize)\n    tag_88:\n      pop\n      pop\n      pop\n      pop\n      mload(0x40)\n      returndatasize\n      not(0x1f)\n      0x1f\n      dup3\n      add\n      and\n      dup3\n      add\n      dup1\n      0x40\n      mstore\n      pop\n      dup2\n      add\n      swap1\n      tag_89\n      swap2\n      swap1\n      tag_66\n      jump\t// in\n    tag_89:\n        /* \"Arbitrage.sol\":3359:3399  WETH.balanceOf(address(this))>= amountIn */\n      lt\n      iszero\n        /* \"Arbitrage.sol\":3351:3429  require(WETH.balanceOf(address(this))>= amountIn,\"WETH balsenceOF not enough\") */\n      tag_90\n      jumpi\n      mload(0x40)\n      0x08c379a000000000000000000000000000000000000000000000000000000000\n      dup2\n      mstore\n      0x04\n      add\n      tag_91\n      swap1\n      tag_92\n      jump\t// in\n    tag_91:\n      mload(0x40)\n      dup1\n      swap2\n      sub\n      swap1\n      revert\n    tag_90:\n        /* \"Arbitrage.sol\":3451:3520  swapExactInputSingleHop(address(WETH), address(USDC),3000 , amountIn) */\n      tag_93\n        /* \"Arbitrage.sol\":667:709  0xC02aaA39b223FE8D0A0e5C4F27eAD9083C756Cc2 */\n      0xc02aaa39b223fe8d0a0e5c4f27ead9083c756cc2\n        /* \"Arbitrage.sol\":808:850  0xA0b86991c6218b36c1d19D4a2e9Eb0cE3606eB48 */\n      0xa0b86991c6218b36c1d19d4a2e9eb0ce3606eb48\n        /* \"Arbitrage.sol\":3504:3508  3000 */\n      0x0bb8\n        /* \"Arbitrage.sol\":3511:3519  amountIn */\n      dup6\n        /* \"Arbitrage.sol\":3451:3474  swapExactInputSingleHop */\n      tag_71\n        /* \"Arbitrage.sol\":3451:3520  swapExactInputSingleHop(address(WETH), address(USDC),3000 , amountIn) */\n      jump\t// in\n    tag_93:\n        /* \"Arbitrage.sol\":3439:3520  amountOut = swapExactInputSingleHop(address(WETH), address(USDC),3000 , amountIn) */\n      swap1\n      pop\n        /* \"Arbitrage.sol\":3252:3527  function sellWETHOnUniswap(uint256 amountIn)external onlyAdmin returns(uint256 amountOut){... */\n      swap2\n      swap1\n      pop\n      jump\t// out\n        /* \"Arbitrage.sol\":4350:4471  function getCoinsFromCurvePool(uint256 index)external view returns(address){... */\n    tag_34:\n        /* \"Arbitrage.sol\":4417:4424  address */\n      0x00\n        /* \"Arbitrage.sol\":4301:4343  0x7F86Bf177Dd4F3494b841a37e810A34dD56c829B */\n      0x7f86bf177dd4f3494b841a37e810a34dd56c829b\n        /* \"Arbitrage.sol\":4442:4457  curvePool.coins */\n      0xffffffffffffffffffffffffffffffffffffffff\n      and\n      0xc6610657\n        /* \"Arbitrage.sol\":4458:4463  index */\n      dup4\n        /* \"Arbitrage.sol\":4442:4464  curvePool.coins(index) */\n      mload(0x40)\n      dup3\n      0xffffffff\n      and\n      0xe0\n      shl\n      dup2\n      mstore\n      0x04\n      add\n      tag_95\n      swap2\n      swap1\n      tag_18\n      jump\t// in\n    tag_95:\n      0x20\n      mload(0x40)\n      dup1\n      dup4\n      sub\n      dup2\n      dup7\n      gas\n      staticcall\n      iszero\n      dup1\n      iszero\n      tag_97\n      jumpi\n      returndatasize\n      0x00\n      dup1\n      returndatacopy\n      revert(0x00, returndatasize)\n    tag_97:\n      pop\n      pop\n      pop\n      pop\n      mload(0x40)\n      returndatasize\n      not(0x1f)\n      0x1f\n      dup3\n      add\n      and\n      dup3\n      add\n      dup1\n      0x40\n      mstore\n      pop\n      dup2\n      add\n      swap1\n      tag_98\n      swap2\n      swap1\n      tag_99\n      jump\t// in\n    tag_98:\n        /* \"Arbitrage.sol\":4435:4464  return curvePool.coins(index) */\n      swap1\n      pop\n        /* \"Arbitrage.sol\":4350:4471  function getCoinsFromCurvePool(uint256 index)external view returns(address){... */\n      swap2\n      swap1\n      pop\n      jump\t// out\n        /* \"Arbitrage.sol\":4476:4782  function buyWETHOnCurve(uint256 amountIn) external onlyAdmin returns (uint256 amountOut){... */\n    tag_40:\n        /* \"Arbitrage.sol\":4546:4563  uint256 amountOut */\n      0x00\n        /* \"Arbitrage.sol\":1079:1084  admin */\n      dup1\n      0x00\n      swap1\n      sload\n      swap1\n      0x0100\n      exp\n      swap1\n      div\n      0xffffffffffffffffffffffffffffffffffffffff\n      and\n        /* \"Arbitrage.sol\":1065:1084  msg.sender == admin */\n      0xffffffffffffffffffffffffffffffffffffffff\n      and\n        /* \"Arbitrage.sol\":1065:1075  msg.sender */\n      caller\n        /* \"Arbitrage.sol\":1065:1084  msg.sender == admin */\n      0xffffffffffffffffffffffffffffffffffffffff\n      and\n      eq\n        /* \"Arbitrage.sol\":1057:1123  require(msg.sender == admin, \"Only admin can call this function.\") */\n      tag_101\n      jumpi\n      mload(0x40)\n      0x08c379a000000000000000000000000000000000000000000000000000000000\n      dup2\n      mstore\n      0x04\n      add\n      tag_102\n      swap1\n      tag_60\n      jump\t// in\n    tag_102:\n      mload(0x40)\n      dup1\n      swap2\n      sub\n      swap1\n      revert\n    tag_101:\n        /* \"Arbitrage.sol\":4614:4622  amountIn */\n      dup2\n        /* \"Arbitrage.sol\":808:850  0xA0b86991c6218b36c1d19D4a2e9Eb0cE3606eB48 */\n      0xa0b86991c6218b36c1d19d4a2e9eb0ce3606eb48\n        /* \"Arbitrage.sol\":4582:4596  USDC.balanceOf */\n      0xffffffffffffffffffffffffffffffffffffffff\n      and\n      0x70a08231\n        /* \"Arbitrage.sol\":4605:4609  this */\n      address\n        /* \"Arbitrage.sol\":4582:4611  USDC.balanceOf(address(this)) */\n      mload(0x40)\n      dup3\n      0xffffffff\n      and\n      0xe0\n      shl\n      dup2\n      mstore\n      0x04\n      add\n      tag_104\n      swap2\n      swap1\n      tag_36\n      jump\t// in\n    tag_104:\n      0x20\n      mload(0x40)\n      dup1\n      dup4\n      sub\n      dup2\n      dup7\n      gas\n      staticcall\n      iszero\n      dup1\n      iszero\n      tag_106\n      jumpi\n      returndatasize\n      0x00\n      dup1\n      returndatacopy\n      revert(0x00, returndatasize)\n    tag_106:\n      pop\n      pop\n      pop\n      pop\n      mload(0x40)\n      returndatasize\n      not(0x1f)\n      0x1f\n      dup3\n      add\n      and\n      dup3\n      add\n      dup1\n      0x40\n      mstore\n      pop\n      dup2\n      add\n      swap1\n      tag_107\n      swap2\n      swap1\n      tag_66\n      jump\t// in\n    tag_107:\n        /* \"Arbitrage.sol\":4582:4622  USDC.balanceOf(address(this))>= amountIn */\n      lt\n      iszero\n        /* \"Arbitrage.sol\":4574:4651  require(USDC.balanceOf(address(this))>= amountIn,\"USDC balanceOf not enough\") */\n      tag_108\n      jumpi\n      mload(0x40)\n      0x08c379a000000000000000000000000000000000000000000000000000000000\n      dup2\n      mstore\n      0x04\n      add\n      tag_109\n      swap1\n      tag_110\n      jump\t// in\n    tag_109:\n      mload(0x40)\n      dup1\n      swap2\n      sub\n      swap1\n      revert\n    tag_108:\n        /* \"Arbitrage.sol\":808:850  0xA0b86991c6218b36c1d19D4a2e9Eb0cE3606eB48 */\n      0xa0b86991c6218b36c1d19d4a2e9eb0ce3606eb48\n        /* \"Arbitrage.sol\":4661:4690  IERC20(address(USDC)).approve */\n      0xffffffffffffffffffffffffffffffffffffffff\n      and\n      0x095ea7b3\n        /* \"Arbitrage.sol\":4301:4343  0x7F86Bf177Dd4F3494b841a37e810A34dD56c829B */\n      0x7f86bf177dd4f3494b841a37e810a34dd56c829b\n        /* \"Arbitrage.sol\":4710:4718  amountIn */\n      dup5\n        /* \"Arbitrage.sol\":4661:4719  IERC20(address(USDC)).approve(address(curvePool),amountIn) */\n      mload(0x40)\n      dup4\n      0xffffffff\n      and\n      0xe0\n      shl\n      dup2\n      mstore\n      0x04\n      add\n      tag_111\n      swap3\n      swap2\n      swap1\n      tag_112\n      jump\t// in\n    tag_111:\n      0x20\n      mload(0x40)\n      dup1\n      dup4\n      sub\n      dup2\n      0x00\n      dup8\n      gas\n      call\n      iszero\n      dup1\n      iszero\n      tag_114\n      jumpi\n      returndatasize\n      0x00\n      dup1\n      returndatacopy\n      revert(0x00, returndatasize)\n    tag_114:\n      pop\n      pop\n      pop\n      pop\n      mload(0x40)\n      returndatasize\n      not(0x1f)\n      0x1f\n      dup3\n      add\n      and\n      dup3\n      add\n      dup1\n      0x40\n      mstore\n      pop\n      dup2\n      add\n      swap1\n      tag_115\n      swap2\n      swap1\n      tag_116\n      jump\t// in\n    tag_115:\n      pop\n        /* \"Arbitrage.sol\":4301:4343  0x7F86Bf177Dd4F3494b841a37e810A34dD56c829B */\n      0x7f86bf177dd4f3494b841a37e810a34dd56c829b\n        /* \"Arbitrage.sol\":4741:4759  curvePool.exchange */\n      0xffffffffffffffffffffffffffffffffffffffff\n      and\n      0x5b41b908\n        /* \"Arbitrage.sol\":4760:4761  0 */\n      0x00\n        /* \"Arbitrage.sol\":4762:4763  2 */\n      0x02\n        /* \"Arbitrage.sol\":4764:4772  amountIn */\n      dup6\n        /* \"Arbitrage.sol\":4773:4774  1 */\n      0x01\n        /* \"Arbitrage.sol\":4741:4775  curvePool.exchange(0,2,amountIn,1) */\n      mload(0x40)\n      dup6\n      0xffffffff\n      and\n      0xe0\n      shl\n      dup2\n      mstore\n      0x04\n      add\n      tag_117\n      swap5\n      swap4\n      swap3\n      swap2\n      swap1\n      tag_118\n      jump\t// in\n    tag_117:\n      0x20\n      mload(0x40)\n      dup1\n      dup4\n      sub\n      dup2\n      0x00\n      dup8\n      gas\n      call\n      iszero\n      dup1\n      iszero\n      tag_120\n      jumpi\n      returndatasize\n      0x00\n      dup1\n      returndatacopy\n      revert(0x00, returndatasize)\n    tag_120:\n      pop\n      pop\n      pop\n      pop\n      mload(0x40)\n      returndatasize\n      not(0x1f)\n      0x1f\n      dup3\n      add\n      and\n      dup3\n      add\n      dup1\n      0x40\n      mstore\n      pop\n      dup2\n      add\n      swap1\n      tag_121\n      swap2\n      swap1\n      tag_66\n      jump\t// in\n    tag_121:\n        /* \"Arbitrage.sol\":4729:4775  amountOut = curvePool.exchange(0,2,amountIn,1) */\n      swap1\n      pop\n        /* \"Arbitrage.sol\":4476:4782  function buyWETHOnCurve(uint256 amountIn) external onlyAdmin returns (uint256 amountOut){... */\n      swap2\n      swap1\n      pop\n      jump\t// out\n        /* \"Arbitrage.sol\":1146:2093  function exactueArbitrage(uint256 amountInUSDC)external onlyAdmin returns(uint256 profit) {... */\n    tag_45:\n        /* \"Arbitrage.sol\":1220:1234  uint256 profit */\n      0x00\n        /* \"Arbitrage.sol\":1079:1084  admin */\n      dup1\n      0x00\n      swap1\n      sload\n      swap1\n      0x0100\n      exp\n      swap1\n      div\n      0xffffffffffffffffffffffffffffffffffffffff\n      and\n        /* \"Arbitrage.sol\":1065:1084  msg.sender == admin */\n      0xffffffffffffffffffffffffffffffffffffffff\n      and\n        /* \"Arbitrage.sol\":1065:1075  msg.sender */\n      caller\n        /* \"Arbitrage.sol\":1065:1084  msg.sender == admin */\n      0xffffffffffffffffffffffffffffffffffffffff\n      and\n      eq\n        /* \"Arbitrage.sol\":1057:1123  require(msg.sender == admin, \"Only admin can call this function.\") */\n      tag_123\n      jumpi\n      mload(0x40)\n      0x08c379a000000000000000000000000000000000000000000000000000000000\n      dup2\n      mstore\n      0x04\n      add\n      tag_124\n      swap1\n      tag_60\n      jump\t// in\n    tag_124:\n      mload(0x40)\n      dup1\n      swap2\n      sub\n      swap1\n      revert\n    tag_123:\n        /* \"Arbitrage.sol\":1286:1298  amountInUSDC */\n      dup2\n        /* \"Arbitrage.sol\":808:850  0xA0b86991c6218b36c1d19D4a2e9Eb0cE3606eB48 */\n      0xa0b86991c6218b36c1d19d4a2e9eb0ce3606eb48\n        /* \"Arbitrage.sol\":1254:1268  USDC.balanceOf */\n      0xffffffffffffffffffffffffffffffffffffffff\n      and\n      0x70a08231\n        /* \"Arbitrage.sol\":1277:1281  this */\n      address\n        /* \"Arbitrage.sol\":1254:1283  USDC.balanceOf(address(this)) */\n      mload(0x40)\n      dup3\n      0xffffffff\n      and\n      0xe0\n      shl\n      dup2\n      mstore\n      0x04\n      add\n      tag_126\n      swap2\n      swap1\n      tag_36\n      jump\t// in\n    tag_126:\n      0x20\n      mload(0x40)\n      dup1\n      dup4\n      sub\n      dup2\n      dup7\n      gas\n      staticcall\n      iszero\n      dup1\n      iszero\n      tag_128\n      jumpi\n      returndatasize\n      0x00\n      dup1\n      returndatacopy\n      revert(0x00, returndatasize)\n    tag_128:\n      pop\n      pop\n      pop\n      pop\n      mload(0x40)\n      returndatasize\n      not(0x1f)\n      0x1f\n      dup3\n      add\n      and\n      dup3\n      add\n      dup1\n      0x40\n      mstore\n      pop\n      dup2\n      add\n      swap1\n      tag_129\n      swap2\n      swap1\n      tag_66\n      jump\t// in\n    tag_129:\n        /* \"Arbitrage.sol\":1254:1298  USDC.balanceOf(address(this))>= amountInUSDC */\n      lt\n      iszero\n        /* \"Arbitrage.sol\":1246:1327  require(USDC.balanceOf(address(this))>= amountInUSDC,\"USDC balanceOf not enough\") */\n      tag_130\n      jumpi\n      mload(0x40)\n      0x08c379a000000000000000000000000000000000000000000000000000000000\n      dup2\n      mstore\n      0x04\n      add\n      tag_131\n      swap1\n      tag_110\n      jump\t// in\n    tag_131:\n      mload(0x40)\n      dup1\n      swap2\n      sub\n      swap1\n      revert\n    tag_130:\n        /* \"Arbitrage.sol\":1337:1358  uint256 amountOutWETH */\n      0x00\n        /* \"Arbitrage.sol\":1368:1389  uint256 amountOutUSDC */\n      dup1\n        /* \"Arbitrage.sol\":1429:1457  uint256 ethAmountFromUniswap */\n      0x00\n        /* \"Arbitrage.sol\":1460:1464  this */\n      address\n        /* \"Arbitrage.sol\":1460:1486  this.getAmountOutUniswapV3 */\n      0xffffffffffffffffffffffffffffffffffffffff\n      and\n      0xbbceefe3\n        /* \"Arbitrage.sol\":1487:1500  amountOutUSDC */\n      dup4\n        /* \"Arbitrage.sol\":1460:1501  this.getAmountOutUniswapV3(amountOutUSDC) */\n      mload(0x40)\n      dup3\n      0xffffffff\n      and\n      0xe0\n      shl\n      dup2\n      mstore\n      0x04\n      add\n      tag_132\n      swap2\n      swap1\n      tag_18\n      jump\t// in\n    tag_132:\n      0x20\n      mload(0x40)\n      dup1\n      dup4\n      sub\n      dup2\n      dup7\n      gas\n      staticcall\n      iszero\n      dup1\n      iszero\n      tag_134\n      jumpi\n      returndatasize\n      0x00\n      dup1\n      returndatacopy\n      revert(0x00, returndatasize)\n    tag_134:\n      pop\n      pop\n      pop\n      pop\n      mload(0x40)\n      returndatasize\n      not(0x1f)\n      0x1f\n      dup3\n      add\n      and\n      dup3\n      add\n      dup1\n      0x40\n      mstore\n      pop\n      dup2\n      add\n      swap1\n      tag_135\n      swap2\n      swap1\n      tag_66\n      jump\t// in\n    tag_135:\n        /* \"Arbitrage.sol\":1429:1501  uint256 ethAmountFromUniswap = this.getAmountOutUniswapV3(amountOutUSDC) */\n      swap1\n      pop\n        /* \"Arbitrage.sol\":1511:1536  uint256 ethAmountFromCrve */\n      0x00\n        /* \"Arbitrage.sol\":1539:1543  this */\n      address\n        /* \"Arbitrage.sol\":1539:1561  this.getAmountOutCurve */\n      0xffffffffffffffffffffffffffffffffffffffff\n      and\n      0x3eb61c1c\n        /* \"Arbitrage.sol\":1562:1574  amountInUSDC */\n      dup8\n        /* \"Arbitrage.sol\":1539:1575  this.getAmountOutCurve(amountInUSDC) */\n      mload(0x40)\n      dup3\n      0xffffffff\n      and\n      0xe0\n      shl\n      dup2\n      mstore\n      0x04\n      add\n      tag_136\n      swap2\n      swap1\n      tag_18\n      jump\t// in\n    tag_136:\n      0x20\n      mload(0x40)\n      dup1\n      dup4\n      sub\n      dup2\n      dup7\n      gas\n      staticcall\n      iszero\n      dup1\n      iszero\n      tag_138\n      jumpi\n      returndatasize\n      0x00\n      dup1\n      returndatacopy\n      revert(0x00, returndatasize)\n    tag_138:\n      pop\n      pop\n      pop\n      pop\n      mload(0x40)\n      returndatasize\n      not(0x1f)\n      0x1f\n      dup3\n      add\n      and\n      dup3\n      add\n      dup1\n      0x40\n      mstore\n      pop\n      dup2\n      add\n      swap1\n      tag_139\n      swap2\n      swap1\n      tag_66\n      jump\t// in\n    tag_139:\n        /* \"Arbitrage.sol\":1511:1575  uint256 ethAmountFromCrve = this.getAmountOutCurve(amountInUSDC) */\n      swap1\n      pop\n        /* \"Arbitrage.sol\":1639:1656  ethAmountFromCrve */\n      dup1\n        /* \"Arbitrage.sol\":1616:1636  ethAmountFromUniswap */\n      dup3\n        /* \"Arbitrage.sol\":1616:1656  ethAmountFromUniswap > ethAmountFromCrve */\n      gt\n        /* \"Arbitrage.sol\":1613:1944  if(ethAmountFromUniswap > ethAmountFromCrve){... */\n      iszero\n      tag_140\n      jumpi\n        /* \"Arbitrage.sol\":1687:1691  this */\n      address\n        /* \"Arbitrage.sol\":1687:1708  this.buyWETHOnUniswap */\n      0xffffffffffffffffffffffffffffffffffffffff\n      and\n      0x064a8a8a\n        /* \"Arbitrage.sol\":1709:1721  amountInUSDC */\n      dup8\n        /* \"Arbitrage.sol\":1687:1722  this.buyWETHOnUniswap(amountInUSDC) */\n      mload(0x40)\n      dup3\n      0xffffffff\n      and\n      0xe0\n      shl\n      dup2\n      mstore\n      0x04\n      add\n      tag_141\n      swap2\n      swap1\n      tag_18\n      jump\t// in\n    tag_141:\n      0x20\n      mload(0x40)\n      dup1\n      dup4\n      sub\n      dup2\n      0x00\n      dup8\n      gas\n      call\n      iszero\n      dup1\n      iszero\n      tag_143\n      jumpi\n      returndatasize\n      0x00\n      dup1\n      returndatacopy\n      revert(0x00, returndatasize)\n    tag_143:\n      pop\n      pop\n      pop\n      pop\n      mload(0x40)\n      returndatasize\n      not(0x1f)\n      0x1f\n      dup3\n      add\n      and\n      dup3\n      add\n      dup1\n      0x40\n      mstore\n      pop\n      dup2\n      add\n      swap1\n      tag_144\n      swap2\n      swap1\n      tag_66\n      jump\t// in\n    tag_144:\n        /* \"Arbitrage.sol\":1671:1722  amountOutWETH = this.buyWETHOnUniswap(amountInUSDC) */\n      swap4\n      pop\n        /* \"Arbitrage.sol\":1752:1756  this */\n      address\n        /* \"Arbitrage.sol\":1752:1772  this.sellWETHOnCurve */\n      0xffffffffffffffffffffffffffffffffffffffff\n      and\n      0xcc9901aa\n        /* \"Arbitrage.sol\":1773:1786  amountOutWETH */\n      dup6\n        /* \"Arbitrage.sol\":1752:1787  this.sellWETHOnCurve(amountOutWETH) */\n      mload(0x40)\n      dup3\n      0xffffffff\n      and\n      0xe0\n      shl\n      dup2\n      mstore\n      0x04\n      add\n      tag_145\n      swap2\n      swap1\n      tag_18\n      jump\t// in\n    tag_145:\n      0x20\n      mload(0x40)\n      dup1\n      dup4\n      sub\n      dup2\n      0x00\n      dup8\n      gas\n      call\n      iszero\n      dup1\n      iszero\n      tag_147\n      jumpi\n      returndatasize\n      0x00\n      dup1\n      returndatacopy\n      revert(0x00, returndatasize)\n    tag_147:\n      pop\n      pop\n      pop\n      pop\n      mload(0x40)\n      returndatasize\n      not(0x1f)\n      0x1f\n      dup3\n      add\n      and\n      dup3\n      add\n      dup1\n      0x40\n      mstore\n      pop\n      dup2\n      add\n      swap1\n      tag_148\n      swap2\n      swap1\n      tag_66\n      jump\t// in\n    tag_148:\n        /* \"Arbitrage.sol\":1736:1787  amountOutUSDC = this.sellWETHOnCurve(amountOutWETH) */\n      swap3\n      pop\n        /* \"Arbitrage.sol\":1613:1944  if(ethAmountFromUniswap > ethAmountFromCrve){... */\n      jump(tag_149)\n    tag_140:\n        /* \"Arbitrage.sol\":1832:1836  this */\n      address\n        /* \"Arbitrage.sol\":1832:1851  this.buyWETHOnCurve */\n      0xffffffffffffffffffffffffffffffffffffffff\n      and\n      0x793c0845\n        /* \"Arbitrage.sol\":1852:1864  amountInUSDC */\n      dup8\n        /* \"Arbitrage.sol\":1832:1865  this.buyWETHOnCurve(amountInUSDC) */\n      mload(0x40)\n      dup3\n      0xffffffff\n      and\n      0xe0\n      shl\n      dup2\n      mstore\n      0x04\n      add\n      tag_150\n      swap2\n      swap1\n      tag_18\n      jump\t// in\n    tag_150:\n      0x20\n      mload(0x40)\n      dup1\n      dup4\n      sub\n      dup2\n      0x00\n      dup8\n      gas\n      call\n      iszero\n      dup1\n      iszero\n      tag_152\n      jumpi\n      returndatasize\n      0x00\n      dup1\n      returndatacopy\n      revert(0x00, returndatasize)\n    tag_152:\n      pop\n      pop\n      pop\n      pop\n      mload(0x40)\n      returndatasize\n      not(0x1f)\n      0x1f\n      dup3\n      add\n      and\n      dup3\n      add\n      dup1\n      0x40\n      mstore\n      pop\n      dup2\n      add\n      swap1\n      tag_153\n      swap2\n      swap1\n      tag_66\n      jump\t// in\n    tag_153:\n        /* \"Arbitrage.sol\":1816:1865  amountOutWETH = this.buyWETHOnCurve(amountInUSDC) */\n      swap4\n      pop\n        /* \"Arbitrage.sol\":1895:1899  this */\n      address\n        /* \"Arbitrage.sol\":1895:1917  this.sellWETHOnUniswap */\n      0xffffffffffffffffffffffffffffffffffffffff\n      and\n      0x54258cc4\n        /* \"Arbitrage.sol\":1918:1931  amountOutWETH */\n      dup6\n        /* \"Arbitrage.sol\":1895:1932  this.sellWETHOnUniswap(amountOutWETH) */\n      mload(0x40)\n      dup3\n      0xffffffff\n      and\n      0xe0\n      shl\n      dup2\n      mstore\n      0x04\n      add\n      tag_154\n      swap2\n      swap1\n      tag_18\n      jump\t// in\n    tag_154:\n      0x20\n      mload(0x40)\n      dup1\n      dup4\n      sub\n      dup2\n      0x00\n      dup8\n      gas\n      call\n      iszero\n      dup1\n      iszero\n      tag_156\n      jumpi\n      returndatasize\n      0x00\n      dup1\n      returndatacopy\n      revert(0x00, returndatasize)\n    tag_156:\n      pop\n      pop\n      pop\n      pop\n      mload(0x40)\n      returndatasize\n      not(0x1f)\n      0x1f\n      dup3\n      add\n      and\n      dup3\n      add\n      dup1\n      0x40\n      mstore\n      pop\n      dup2\n      add\n      swap1\n      tag_157\n      swap2\n      swap1\n      tag_66\n      jump\t// in\n    tag_157:\n        /* \"Arbitrage.sol\":1879:1932  amountOutUSDC = this.sellWETHOnUniswap(amountOutWETH) */\n      swap3\n      pop\n        /* \"Arbitrage.sol\":1613:1944  if(ethAmountFromUniswap > ethAmountFromCrve){... */\n    tag_149:\n        /* \"Arbitrage.sol\":1975:1987  amountInUSDC */\n      dup6\n        /* \"Arbitrage.sol\":1961:1974  amountOutUSDC */\n      dup4\n        /* \"Arbitrage.sol\":1961:1987  amountOutUSDC>amountInUSDC */\n      gt\n        /* \"Arbitrage.sol\":1953:2012  require(amountOutUSDC>amountInUSDC, \"Arbitrage profit <=0\") */\n      tag_158\n      jumpi\n      mload(0x40)\n      0x08c379a000000000000000000000000000000000000000000000000000000000\n      dup2\n      mstore\n      0x04\n      add\n      tag_159\n      swap1\n      tag_160\n      jump\t// in\n    tag_159:\n      mload(0x40)\n      dup1\n      swap2\n      sub\n      swap1\n      revert\n    tag_158:\n        /* \"Arbitrage.sol\":2074:2086  amountInUSDC */\n      dup6\n        /* \"Arbitrage.sol\":2058:2071  amountOutUSDC */\n      dup4\n        /* \"Arbitrage.sol\":2058:2086  amountOutUSDC - amountInUSDC */\n      tag_161\n      swap2\n      swap1\n      tag_162\n      jump\t// in\n    tag_161:\n        /* \"Arbitrage.sol\":2049:2086  profit = amountOutUSDC - amountInUSDC */\n      swap5\n      pop\n        /* \"Arbitrage.sol\":1236:2093  {... */\n      pop\n      pop\n      pop\n      pop\n        /* \"Arbitrage.sol\":1146:2093  function exactueArbitrage(uint256 amountInUSDC)external onlyAdmin returns(uint256 profit) {... */\n      swap2\n      swap1\n      pop\n      jump\t// out\n        /* \"Arbitrage.sol\":3814:4228  function getAmountOutUniswapV3(uint256 amoutIn)external  view returns (uint256 amoutOut){... */\n    tag_50:\n        /* \"Arbitrage.sol\":3885:3901  uint256 amoutOut */\n      0x00\n        /* \"Arbitrage.sol\":3912:3931  address poolAddress */\n      dup1\n        /* \"Arbitrage.sol\":2388:2430  0x1F98431c8aD98523631AE4a59f267346ea31F984 */\n      0x1f98431c8ad98523631ae4a59f267346ea31f984\n        /* \"Arbitrage.sol\":3934:3958  uniswapV3Factory.getPool */\n      0xffffffffffffffffffffffffffffffffffffffff\n      and\n      0x1698ee82\n        /* \"Arbitrage.sol\":808:850  0xA0b86991c6218b36c1d19D4a2e9Eb0cE3606eB48 */\n      0xa0b86991c6218b36c1d19d4a2e9eb0ce3606eb48\n        /* \"Arbitrage.sol\":667:709  0xC02aaA39b223FE8D0A0e5C4F27eAD9083C756Cc2 */\n      0xc02aaa39b223fe8d0a0e5c4f27ead9083c756cc2\n        /* \"Arbitrage.sol\":3987:3991  3000 */\n      0x0bb8\n        /* \"Arbitrage.sol\":3934:3992  uniswapV3Factory.getPool(address(USDC),address(WETH),3000) */\n      mload(0x40)\n      dup5\n      0xffffffff\n      and\n      0xe0\n      shl\n      dup2\n      mstore\n      0x04\n      add\n      tag_164\n      swap4\n      swap3\n      swap2\n      swap1\n      tag_165\n      jump\t// in\n    tag_164:\n      0x20\n      mload(0x40)\n      dup1\n      dup4\n      sub\n      dup2\n      dup7\n      gas\n      staticcall\n      iszero\n      dup1\n      iszero\n      tag_167\n      jumpi\n      returndatasize\n      0x00\n      dup1\n      returndatacopy\n      revert(0x00, returndatasize)\n    tag_167:\n      pop\n      pop\n      pop\n      pop\n      mload(0x40)\n      returndatasize\n      not(0x1f)\n      0x1f\n      dup3\n      add\n      and\n      dup3\n      add\n      dup1\n      0x40\n      mstore\n      pop\n      dup2\n      add\n      swap1\n      tag_168\n      swap2\n      swap1\n      tag_99\n      jump\t// in\n    tag_168:\n        /* \"Arbitrage.sol\":3912:3992  address poolAddress = uniswapV3Factory.getPool(address(USDC),address(WETH),3000) */\n      swap1\n      pop\n        /* \"Arbitrage.sol\":4002:4021  IUniswapV3Pool pool */\n      0x00\n        /* \"Arbitrage.sol\":4039:4050  poolAddress */\n      dup2\n        /* \"Arbitrage.sol\":4002:4051  IUniswapV3Pool pool = IUniswapV3Pool(poolAddress) */\n      swap1\n      pop\n        /* \"Arbitrage.sol\":4062:4082  uint160 sqrtPriceX96 */\n      0x00\n        /* \"Arbitrage.sol\":4092:4096  pool */\n      dup2\n        /* \"Arbitrage.sol\":4092:4102  pool.slot0 */\n      0xffffffffffffffffffffffffffffffffffffffff\n      and\n      0x3850c7bd\n        /* \"Arbitrage.sol\":4092:4104  pool.slot0() */\n      mload(0x40)\n      dup2\n      0xffffffff\n      and\n      0xe0\n      shl\n      dup2\n      mstore\n      0x04\n      add\n      0xe0\n      mload(0x40)\n      dup1\n      dup4\n      sub\n      dup2\n      dup7\n      gas\n      staticcall\n      iszero\n      dup1\n      iszero\n      tag_170\n      jumpi\n      returndatasize\n      0x00\n      dup1\n      returndatacopy\n      revert(0x00, returndatasize)\n    tag_170:\n      pop\n      pop\n      pop\n      pop\n      mload(0x40)\n      returndatasize\n      not(0x1f)\n      0x1f\n      dup3\n      add\n      and\n      dup3\n      add\n      dup1\n      0x40\n      mstore\n      pop\n      dup2\n      add\n      swap1\n      tag_171\n      swap2\n      swap1\n      tag_172\n      jump\t// in\n    tag_171:\n        /* \"Arbitrage.sol\":4061:4104  (uint160 sqrtPriceX96,,,,,,) = pool.slot0() */\n      pop\n      pop\n      pop\n      pop\n      pop\n      pop\n      swap1\n      pop\n        /* \"Arbitrage.sol\":4114:4127  uint256 price */\n      0x00\n        /* \"Arbitrage.sol\":4178:4184  1<<192 */\n      0x01000000000000000000000000000000000000000000000000\n        /* \"Arbitrage.sol\":4161:4173  sqrtPriceX96 */\n      dup3\n        /* \"Arbitrage.sol\":4153:4174  uint256(sqrtPriceX96) */\n      0xffffffffffffffffffffffffffffffffffffffff\n      and\n        /* \"Arbitrage.sol\":4138:4150  sqrtPriceX96 */\n      dup4\n        /* \"Arbitrage.sol\":4130:4151  uint256(sqrtPriceX96) */\n      0xffffffffffffffffffffffffffffffffffffffff\n      and\n        /* \"Arbitrage.sol\":4130:4174  uint256(sqrtPriceX96)* uint256(sqrtPriceX96) */\n      tag_173\n      swap2\n      swap1\n      tag_174\n      jump\t// in\n    tag_173:\n        /* \"Arbitrage.sol\":4130:4185  uint256(sqrtPriceX96)* uint256(sqrtPriceX96) / (1<<192) */\n      tag_175\n      swap2\n      swap1\n      tag_176\n      jump\t// in\n    tag_175:\n        /* \"Arbitrage.sol\":4114:4185  uint256 price = uint256(sqrtPriceX96)* uint256(sqrtPriceX96) / (1<<192) */\n      swap1\n      pop\n        /* \"Arbitrage.sol\":4216:4221  price */\n      dup1\n        /* \"Arbitrage.sol\":4206:4213  amoutIn */\n      dup7\n        /* \"Arbitrage.sol\":4206:4221  amoutIn * price */\n      tag_177\n      swap2\n      swap1\n      tag_174\n      jump\t// in\n    tag_177:\n        /* \"Arbitrage.sol\":4195:4221  amoutOut = amoutIn * price */\n      swap5\n      pop\n        /* \"Arbitrage.sol\":3902:4228  {... */\n      pop\n      pop\n      pop\n      pop\n        /* \"Arbitrage.sol\":3814:4228  function getAmountOutUniswapV3(uint256 amoutIn)external  view returns (uint256 amoutOut){... */\n      swap2\n      swap1\n      pop\n      jump\t// out\n        /* \"Arbitrage.sol\":4787:5094  function sellWETHOnCurve(uint256 amountIn) external onlyAdmin returns (uint256 amountOut){... */\n    tag_55:\n        /* \"Arbitrage.sol\":4858:4875  uint256 amountOut */\n      0x00\n        /* \"Arbitrage.sol\":1079:1084  admin */\n      dup1\n      0x00\n      swap1\n      sload\n      swap1\n      0x0100\n      exp\n      swap1\n      div\n      0xffffffffffffffffffffffffffffffffffffffff\n      and\n        /* \"Arbitrage.sol\":1065:1084  msg.sender == admin */\n      0xffffffffffffffffffffffffffffffffffffffff\n      and\n        /* \"Arbitrage.sol\":1065:1075  msg.sender */\n      caller\n        /* \"Arbitrage.sol\":1065:1084  msg.sender == admin */\n      0xffffffffffffffffffffffffffffffffffffffff\n      and\n      eq\n        /* \"Arbitrage.sol\":1057:1123  require(msg.sender == admin, \"Only admin can call this function.\") */\n      tag_179\n      jumpi\n      mload(0x40)\n      0x08c379a000000000000000000000000000000000000000000000000000000000\n      dup2\n      mstore\n      0x04\n      add\n      tag_180\n      swap1\n      tag_60\n      jump\t// in\n    tag_180:\n      mload(0x40)\n      dup1\n      swap2\n      sub\n      swap1\n      revert\n    tag_179:\n        /* \"Arbitrage.sol\":4926:4934  amountIn */\n      dup2\n        /* \"Arbitrage.sol\":808:850  0xA0b86991c6218b36c1d19D4a2e9Eb0cE3606eB48 */\n      0xa0b86991c6218b36c1d19d4a2e9eb0ce3606eb48\n        /* \"Arbitrage.sol\":4894:4908  USDC.balanceOf */\n      0xffffffffffffffffffffffffffffffffffffffff\n      and\n      0x70a08231\n        /* \"Arbitrage.sol\":4917:4921  this */\n      address\n        /* \"Arbitrage.sol\":4894:4923  USDC.balanceOf(address(this)) */\n      mload(0x40)\n      dup3\n      0xffffffff\n      and\n      0xe0\n      shl\n      dup2\n      mstore\n      0x04\n      add\n      tag_182\n      swap2\n      swap1\n      tag_36\n      jump\t// in\n    tag_182:\n      0x20\n      mload(0x40)\n      dup1\n      dup4\n      sub\n      dup2\n      dup7\n      gas\n      staticcall\n      iszero\n      dup1\n      iszero\n      tag_184\n      jumpi\n      returndatasize\n      0x00\n      dup1\n      returndatacopy\n      revert(0x00, returndatasize)\n    tag_184:\n      pop\n      pop\n      pop\n      pop\n      mload(0x40)\n      returndatasize\n      not(0x1f)\n      0x1f\n      dup3\n      add\n      and\n      dup3\n      add\n      dup1\n      0x40\n      mstore\n      pop\n      dup2\n      add\n      swap1\n      tag_185\n      swap2\n      swap1\n      tag_66\n      jump\t// in\n    tag_185:\n        /* \"Arbitrage.sol\":4894:4934  USDC.balanceOf(address(this))>= amountIn */\n      lt\n      iszero\n        /* \"Arbitrage.sol\":4886:4963  require(USDC.balanceOf(address(this))>= amountIn,\"WETH balanceOf not enough\") */\n      tag_186\n      jumpi\n      mload(0x40)\n      0x08c379a000000000000000000000000000000000000000000000000000000000\n      dup2\n      mstore\n      0x04\n      add\n      tag_187\n      swap1\n      tag_188\n      jump\t// in\n    tag_187:\n      mload(0x40)\n      dup1\n      swap2\n      sub\n      swap1\n      revert\n    tag_186:\n        /* \"Arbitrage.sol\":667:709  0xC02aaA39b223FE8D0A0e5C4F27eAD9083C756Cc2 */\n      0xc02aaa39b223fe8d0a0e5c4f27ead9083c756cc2\n        /* \"Arbitrage.sol\":4973:5002  IERC20(address(WETH)).approve */\n      0xffffffffffffffffffffffffffffffffffffffff\n      and\n      0x095ea7b3\n        /* \"Arbitrage.sol\":4301:4343  0x7F86Bf177Dd4F3494b841a37e810A34dD56c829B */\n      0x7f86bf177dd4f3494b841a37e810a34dd56c829b\n        /* \"Arbitrage.sol\":5022:5030  amountIn */\n      dup5\n        /* \"Arbitrage.sol\":4973:5031  IERC20(address(WETH)).approve(address(curvePool),amountIn) */\n      mload(0x40)\n      dup4\n      0xffffffff\n      and\n      0xe0\n      shl\n      dup2\n      mstore\n      0x04\n      add\n      tag_189\n      swap3\n      swap2\n      swap1\n      tag_112\n      jump\t// in\n    tag_189:\n      0x20\n      mload(0x40)\n      dup1\n      dup4\n      sub\n      dup2\n      0x00\n      dup8\n      gas\n      call\n      iszero\n      dup1\n      iszero\n      tag_191\n      jumpi\n      returndatasize\n      0x00\n      dup1\n      returndatacopy\n      revert(0x00, returndatasize)\n    tag_191:\n      pop\n      pop\n      pop\n      pop\n      mload(0x40)\n      returndatasize\n      not(0x1f)\n      0x1f\n      dup3\n      add\n      and\n      dup3\n      add\n      dup1\n      0x40\n      mstore\n      pop\n      dup2\n      add\n      swap1\n      tag_192\n      swap2\n      swap1\n      tag_116\n      jump\t// in\n    tag_192:\n      pop\n        /* \"Arbitrage.sol\":4301:4343  0x7F86Bf177Dd4F3494b841a37e810A34dD56c829B */\n      0x7f86bf177dd4f3494b841a37e810a34dd56c829b\n        /* \"Arbitrage.sol\":5053:5071  curvePool.exchange */\n      0xffffffffffffffffffffffffffffffffffffffff\n      and\n      0x5b41b908\n        /* \"Arbitrage.sol\":5072:5073  2 */\n      0x02\n        /* \"Arbitrage.sol\":5074:5075  0 */\n      0x00\n        /* \"Arbitrage.sol\":5076:5084  amountIn */\n      dup6\n        /* \"Arbitrage.sol\":5085:5086  1 */\n      0x01\n        /* \"Arbitrage.sol\":5053:5087  curvePool.exchange(2,0,amountIn,1) */\n      mload(0x40)\n      dup6\n      0xffffffff\n      and\n      0xe0\n      shl\n      dup2\n      mstore\n      0x04\n      add\n      tag_193\n      swap5\n      swap4\n      swap3\n      swap2\n      swap1\n      tag_194\n      jump\t// in\n    tag_193:\n      0x20\n      mload(0x40)\n      dup1\n      dup4\n      sub\n      dup2\n      0x00\n      dup8\n      gas\n      call\n      iszero\n      dup1\n      iszero\n      tag_196\n      jumpi\n      returndatasize\n      0x00\n      dup1\n      returndatacopy\n      revert(0x00, returndatasize)\n    tag_196:\n      pop\n      pop\n      pop\n      pop\n      mload(0x40)\n      returndatasize\n      not(0x1f)\n      0x1f\n      dup3\n      add\n      and\n      dup3\n      add\n      dup1\n      0x40\n      mstore\n      pop\n      dup2\n      add\n      swap1\n      tag_197\n      swap2\n      swap1\n      tag_66\n      jump\t// in\n    tag_197:\n        /* \"Arbitrage.sol\":5041:5087  amountOut = curvePool.exchange(2,0,amountIn,1) */\n      swap1\n      pop\n        /* \"Arbitrage.sol\":4787:5094  function sellWETHOnCurve(uint256 amountIn) external onlyAdmin returns (uint256 amountOut){... */\n      swap2\n      swap1\n      pop\n      jump\t// out\n        /* \"Arbitrage.sol\":2535:3247  function swapExactInputSingleHop(... */\n    tag_71:\n        /* \"Arbitrage.sol\":2692:2709  uint256 amountOut */\n      0x00\n        /* \"Arbitrage.sol\":2724:2731  tokenIn */\n      dup5\n        /* \"Arbitrage.sol\":2717:2740  IERC20(tokenIn).approve */\n      0xffffffffffffffffffffffffffffffffffffffff\n      and\n      0x095ea7b3\n        /* \"Arbitrage.sol\":515:557  0xE592427A0AEce92De3Edee1F18E0157C05861564 */\n      0xe592427a0aece92de3edee1f18e0157c05861564\n        /* \"Arbitrage.sol\":2766:2774  amountIn */\n      dup5\n        /* \"Arbitrage.sol\":2717:2775  IERC20(tokenIn).approve(address(uniswapV3Router),amountIn) */\n      mload(0x40)\n      dup4\n      0xffffffff\n      and\n      0xe0\n      shl\n      dup2\n      mstore\n      0x04\n      add\n      tag_199\n      swap3\n      swap2\n      swap1\n      tag_112\n      jump\t// in\n    tag_199:\n      0x20\n      mload(0x40)\n      dup1\n      dup4\n      sub\n      dup2\n      0x00\n      dup8\n      gas\n      call\n      iszero\n      dup1\n      iszero\n      tag_201\n      jumpi\n      returndatasize\n      0x00\n      dup1\n      returndatacopy\n      revert(0x00, returndatasize)\n    tag_201:\n      pop\n      pop\n      pop\n      pop\n      mload(0x40)\n      returndatasize\n      not(0x1f)\n      0x1f\n      dup3\n      add\n      and\n      dup3\n      add\n      dup1\n      0x40\n      mstore\n      pop\n      dup2\n      add\n      swap1\n      tag_202\n      swap2\n      swap1\n      tag_116\n      jump\t// in\n    tag_202:\n      pop\n        /* \"Arbitrage.sol\":2782:2830  ISwapRouter.ExactInputSingleParams memory params */\n      0x00\n        /* \"Arbitrage.sol\":2841:3180  ISwapRouter.ExactInputSingleParams({... */\n      mload(0x40)\n      dup1\n      0x0100\n      add\n      0x40\n      mstore\n      dup1\n        /* \"Arbitrage.sol\":2903:2910  tokenIn */\n      dup8\n        /* \"Arbitrage.sol\":2841:3180  ISwapRouter.ExactInputSingleParams({... */\n      0xffffffffffffffffffffffffffffffffffffffff\n      and\n      dup2\n      mstore\n      0x20\n      add\n        /* \"Arbitrage.sol\":2938:2946  tokenOut */\n      dup7\n        /* \"Arbitrage.sol\":2841:3180  ISwapRouter.ExactInputSingleParams({... */\n      0xffffffffffffffffffffffffffffffffffffffff\n      and\n      dup2\n      mstore\n      0x20\n      add\n        /* \"Arbitrage.sol\":2969:2976  poolFee */\n      dup6\n        /* \"Arbitrage.sol\":2841:3180  ISwapRouter.ExactInputSingleParams({... */\n      0xffffff\n      and\n      dup2\n      mstore\n      0x20\n      add\n        /* \"Arbitrage.sol\":3005:3015  msg.sender */\n      caller\n        /* \"Arbitrage.sol\":2841:3180  ISwapRouter.ExactInputSingleParams({... */\n      0xffffffffffffffffffffffffffffffffffffffff\n      and\n      dup2\n      mstore\n      0x20\n      add\n        /* \"Arbitrage.sol\":3043:3058  block.timestamp */\n      timestamp\n        /* \"Arbitrage.sol\":2841:3180  ISwapRouter.ExactInputSingleParams({... */\n      dup2\n      mstore\n      0x20\n      add\n        /* \"Arbitrage.sol\":3086:3094  amountIn */\n      dup5\n        /* \"Arbitrage.sol\":2841:3180  ISwapRouter.ExactInputSingleParams({... */\n      dup2\n      mstore\n      0x20\n      add\n        /* \"Arbitrage.sol\":3130:3131  0 */\n      0x00\n        /* \"Arbitrage.sol\":2841:3180  ISwapRouter.ExactInputSingleParams({... */\n      dup2\n      mstore\n      0x20\n      add\n        /* \"Arbitrage.sol\":3168:3169  0 */\n      0x00\n        /* \"Arbitrage.sol\":2841:3180  ISwapRouter.ExactInputSingleParams({... */\n      0xffffffffffffffffffffffffffffffffffffffff\n      and\n      dup2\n      mstore\n      pop\n        /* \"Arbitrage.sol\":2782:3180  ISwapRouter.ExactInputSingleParams memory params =... */\n      swap1\n      pop\n        /* \"Arbitrage.sol\":515:557  0xE592427A0AEce92De3Edee1F18E0157C05861564 */\n      0xe592427a0aece92de3edee1f18e0157c05861564\n        /* \"Arbitrage.sol\":3199:3231  uniswapV3Router.exactInputSingle */\n      0xffffffffffffffffffffffffffffffffffffffff\n      and\n      0x414bf389\n        /* \"Arbitrage.sol\":3232:3238  params */\n      dup3\n        /* \"Arbitrage.sol\":3199:3239  uniswapV3Router.exactInputSingle(params) */\n      mload(0x40)\n      dup3\n      0xffffffff\n      and\n      0xe0\n      shl\n      dup2\n      mstore\n      0x04\n      add\n      tag_203\n      swap2\n      swap1\n      tag_204\n      jump\t// in\n    tag_203:\n      0x20\n      mload(0x40)\n      dup1\n      dup4\n      sub\n      dup2\n      0x00\n      dup8\n      gas\n      call\n      iszero\n      dup1\n      iszero\n      tag_206\n      jumpi\n      returndatasize\n      0x00\n      dup1\n      returndatacopy\n      revert(0x00, returndatasize)\n    tag_206:\n      pop\n      pop\n      pop\n      pop\n      mload(0x40)\n      returndatasize\n      not(0x1f)\n      0x1f\n      dup3\n      add\n      and\n      dup3\n      add\n      dup1\n      0x40\n      mstore\n      pop\n      dup2\n      add\n      swap1\n      tag_207\n      swap2\n      swap1\n      tag_66\n      jump\t// in\n    tag_207:\n        /* \"Arbitrage.sol\":3187:3239  amountOut = uniswapV3Router.exactInputSingle(params) */\n      swap2\n      pop\n        /* \"Arbitrage.sol\":2710:3247  {... */\n      pop\n        /* \"Arbitrage.sol\":2535:3247  function swapExactInputSingleHop(... */\n      swap5\n      swap4\n      pop\n      pop\n      pop\n      pop\n      jump\t// out\n        /* \"#utility.yul\":88:205   */\n    tag_209:\n        /* \"#utility.yul\":197:198   */\n      0x00\n        /* \"#utility.yul\":194:195   */\n      dup1\n        /* \"#utility.yul\":187:199   */\n      revert\n        /* \"#utility.yul\":334:411   */\n    tag_211:\n        /* \"#utility.yul\":371:378   */\n      0x00\n        /* \"#utility.yul\":400:405   */\n      dup2\n        /* \"#utility.yul\":389:405   */\n      swap1\n      pop\n        /* \"#utility.yul\":334:411   */\n      swap2\n      swap1\n      pop\n      jump\t// out\n        /* \"#utility.yul\":417:539   */\n    tag_212:\n        /* \"#utility.yul\":490:514   */\n      tag_275\n        /* \"#utility.yul\":508:513   */\n      dup2\n        /* \"#utility.yul\":490:514   */\n      tag_211\n      jump\t// in\n    tag_275:\n        /* \"#utility.yul\":483:488   */\n      dup2\n        /* \"#utility.yul\":480:515   */\n      eq\n        /* \"#utility.yul\":470:533   */\n      tag_276\n      jumpi\n        /* \"#utility.yul\":529:530   */\n      0x00\n        /* \"#utility.yul\":526:527   */\n      dup1\n        /* \"#utility.yul\":519:531   */\n      revert\n        /* \"#utility.yul\":470:533   */\n    tag_276:\n        /* \"#utility.yul\":417:539   */\n      pop\n      jump\t// out\n        /* \"#utility.yul\":545:684   */\n    tag_213:\n        /* \"#utility.yul\":591:596   */\n      0x00\n        /* \"#utility.yul\":629:635   */\n      dup2\n        /* \"#utility.yul\":616:636   */\n      calldataload\n        /* \"#utility.yul\":607:636   */\n      swap1\n      pop\n        /* \"#utility.yul\":645:678   */\n      tag_278\n        /* \"#utility.yul\":672:677   */\n      dup2\n        /* \"#utility.yul\":645:678   */\n      tag_212\n      jump\t// in\n    tag_278:\n        /* \"#utility.yul\":545:684   */\n      swap3\n      swap2\n      pop\n      pop\n      jump\t// out\n        /* \"#utility.yul\":690:1019   */\n    tag_15:\n        /* \"#utility.yul\":749:755   */\n      0x00\n        /* \"#utility.yul\":798:800   */\n      0x20\n        /* \"#utility.yul\":786:795   */\n      dup3\n        /* \"#utility.yul\":777:784   */\n      dup5\n        /* \"#utility.yul\":773:796   */\n      sub\n        /* \"#utility.yul\":769:801   */\n      slt\n        /* \"#utility.yul\":766:885   */\n      iszero\n      tag_280\n      jumpi\n        /* \"#utility.yul\":804:883   */\n      tag_281\n      tag_209\n      jump\t// in\n    tag_281:\n        /* \"#utility.yul\":766:885   */\n    tag_280:\n        /* \"#utility.yul\":924:925   */\n      0x00\n        /* \"#utility.yul\":949:1002   */\n      tag_282\n        /* \"#utility.yul\":994:1001   */\n      dup5\n        /* \"#utility.yul\":985:991   */\n      dup3\n        /* \"#utility.yul\":974:983   */\n      dup6\n        /* \"#utility.yul\":970:992   */\n      add\n        /* \"#utility.yul\":949:1002   */\n      tag_213\n      jump\t// in\n    tag_282:\n        /* \"#utility.yul\":939:1002   */\n      swap2\n      pop\n        /* \"#utility.yul\":895:1012   */\n      pop\n        /* \"#utility.yul\":690:1019   */\n      swap3\n      swap2\n      pop\n      pop\n      jump\t// out\n        /* \"#utility.yul\":1025:1143   */\n    tag_214:\n        /* \"#utility.yul\":1112:1136   */\n      tag_284\n        /* \"#utility.yul\":1130:1135   */\n      dup2\n        /* \"#utility.yul\":1112:1136   */\n      tag_211\n      jump\t// in\n    tag_284:\n        /* \"#utility.yul\":1107:1110   */\n      dup3\n        /* \"#utility.yul\":1100:1137   */\n      mstore\n        /* \"#utility.yul\":1025:1143   */\n      pop\n      pop\n      jump\t// out\n        /* \"#utility.yul\":1149:1371   */\n    tag_18:\n        /* \"#utility.yul\":1242:1246   */\n      0x00\n        /* \"#utility.yul\":1280:1282   */\n      0x20\n        /* \"#utility.yul\":1269:1278   */\n      dup3\n        /* \"#utility.yul\":1265:1283   */\n      add\n        /* \"#utility.yul\":1257:1283   */\n      swap1\n      pop\n        /* \"#utility.yul\":1293:1364   */\n      tag_286\n        /* \"#utility.yul\":1361:1362   */\n      0x00\n        /* \"#utility.yul\":1350:1359   */\n      dup4\n        /* \"#utility.yul\":1346:1363   */\n      add\n        /* \"#utility.yul\":1337:1343   */\n      dup5\n        /* \"#utility.yul\":1293:1364   */\n      tag_214\n      jump\t// in\n    tag_286:\n        /* \"#utility.yul\":1149:1371   */\n      swap3\n      swap2\n      pop\n      pop\n      jump\t// out\n        /* \"#utility.yul\":1377:1503   */\n    tag_215:\n        /* \"#utility.yul\":1414:1421   */\n      0x00\n        /* \"#utility.yul\":1454:1496   */\n      0xffffffffffffffffffffffffffffffffffffffff\n        /* \"#utility.yul\":1447:1452   */\n      dup3\n        /* \"#utility.yul\":1443:1497   */\n      and\n        /* \"#utility.yul\":1432:1497   */\n      swap1\n      pop\n        /* \"#utility.yul\":1377:1503   */\n      swap2\n      swap1\n      pop\n      jump\t// out\n        /* \"#utility.yul\":1509:1605   */\n    tag_216:\n        /* \"#utility.yul\":1546:1553   */\n      0x00\n        /* \"#utility.yul\":1575:1599   */\n      tag_289\n        /* \"#utility.yul\":1593:1598   */\n      dup3\n        /* \"#utility.yul\":1575:1599   */\n      tag_215\n      jump\t// in\n    tag_289:\n        /* \"#utility.yul\":1564:1599   */\n      swap1\n      pop\n        /* \"#utility.yul\":1509:1605   */\n      swap2\n      swap1\n      pop\n      jump\t// out\n        /* \"#utility.yul\":1611:1729   */\n    tag_217:\n        /* \"#utility.yul\":1698:1722   */\n      tag_291\n        /* \"#utility.yul\":1716:1721   */\n      dup2\n        /* \"#utility.yul\":1698:1722   */\n      tag_216\n      jump\t// in\n    tag_291:\n        /* \"#utility.yul\":1693:1696   */\n      dup3\n        /* \"#utility.yul\":1686:1723   */\n      mstore\n        /* \"#utility.yul\":1611:1729   */\n      pop\n      pop\n      jump\t// out\n        /* \"#utility.yul\":1735:1957   */\n    tag_36:\n        /* \"#utility.yul\":1828:1832   */\n      0x00\n        /* \"#utility.yul\":1866:1868   */\n      0x20\n        /* \"#utility.yul\":1855:1864   */\n      dup3\n        /* \"#utility.yul\":1851:1869   */\n      add\n        /* \"#utility.yul\":1843:1869   */\n      swap1\n      pop\n        /* \"#utility.yul\":1879:1950   */\n      tag_293\n        /* \"#utility.yul\":1947:1948   */\n      0x00\n        /* \"#utility.yul\":1936:1945   */\n      dup4\n        /* \"#utility.yul\":1932:1949   */\n      add\n        /* \"#utility.yul\":1923:1929   */\n      dup5\n        /* \"#utility.yul\":1879:1950   */\n      tag_217\n      jump\t// in\n    tag_293:\n        /* \"#utility.yul\":1735:1957   */\n      swap3\n      swap2\n      pop\n      pop\n      jump\t// out\n        /* \"#utility.yul\":1963:2132   */\n    tag_218:\n        /* \"#utility.yul\":2047:2058   */\n      0x00\n        /* \"#utility.yul\":2081:2087   */\n      dup3\n        /* \"#utility.yul\":2076:2079   */\n      dup3\n        /* \"#utility.yul\":2069:2088   */\n      mstore\n        /* \"#utility.yul\":2121:2125   */\n      0x20\n        /* \"#utility.yul\":2116:2119   */\n      dup3\n        /* \"#utility.yul\":2112:2126   */\n      add\n        /* \"#utility.yul\":2097:2126   */\n      swap1\n      pop\n        /* \"#utility.yul\":1963:2132   */\n      swap3\n      swap2\n      pop\n      pop\n      jump\t// out\n        /* \"#utility.yul\":2138:2359   */\n    tag_219:\n        /* \"#utility.yul\":2278:2312   */\n      0x4f6e6c792061646d696e2063616e2063616c6c20746869732066756e6374696f\n        /* \"#utility.yul\":2274:2275   */\n      0x00\n        /* \"#utility.yul\":2266:2272   */\n      dup3\n        /* \"#utility.yul\":2262:2276   */\n      add\n        /* \"#utility.yul\":2255:2313   */\n      mstore\n        /* \"#utility.yul\":2347:2351   */\n      0x6e2e000000000000000000000000000000000000000000000000000000000000\n        /* \"#utility.yul\":2342:2344   */\n      0x20\n        /* \"#utility.yul\":2334:2340   */\n      dup3\n        /* \"#utility.yul\":2330:2345   */\n      add\n        /* \"#utility.yul\":2323:2352   */\n      mstore\n        /* \"#utility.yul\":2138:2359   */\n      pop\n      jump\t// out\n        /* \"#utility.yul\":2365:2731   */\n    tag_220:\n        /* \"#utility.yul\":2507:2510   */\n      0x00\n        /* \"#utility.yul\":2528:2595   */\n      tag_297\n        /* \"#utility.yul\":2592:2594   */\n      0x22\n        /* \"#utility.yul\":2587:2590   */\n      dup4\n        /* \"#utility.yul\":2528:2595   */\n      tag_218\n      jump\t// in\n    tag_297:\n        /* \"#utility.yul\":2521:2595   */\n      swap2\n      pop\n        /* \"#utility.yul\":2604:2697   */\n      tag_298\n        /* \"#utility.yul\":2693:2696   */\n      dup3\n        /* \"#utility.yul\":2604:2697   */\n      tag_219\n      jump\t// in\n    tag_298:\n        /* \"#utility.yul\":2722:2724   */\n      0x40\n        /* \"#utility.yul\":2717:2720   */\n      dup3\n        /* \"#utility.yul\":2713:2725   */\n      add\n        /* \"#utility.yul\":2706:2725   */\n      swap1\n      pop\n        /* \"#utility.yul\":2365:2731   */\n      swap2\n      swap1\n      pop\n      jump\t// out\n        /* \"#utility.yul\":2737:3156   */\n    tag_60:\n        /* \"#utility.yul\":2903:2907   */\n      0x00\n        /* \"#utility.yul\":2941:2943   */\n      0x20\n        /* \"#utility.yul\":2930:2939   */\n      dup3\n        /* \"#utility.yul\":2926:2944   */\n      add\n        /* \"#utility.yul\":2918:2944   */\n      swap1\n      pop\n        /* \"#utility.yul\":2990:2999   */\n      dup2\n        /* \"#utility.yul\":2984:2988   */\n      dup2\n        /* \"#utility.yul\":2980:3000   */\n      sub\n        /* \"#utility.yul\":2976:2977   */\n      0x00\n        /* \"#utility.yul\":2965:2974   */\n      dup4\n        /* \"#utility.yul\":2961:2978   */\n      add\n        /* \"#utility.yul\":2954:3001   */\n      mstore\n        /* \"#utility.yul\":3018:3149   */\n      tag_300\n        /* \"#utility.yul\":3144:3148   */\n      dup2\n        /* \"#utility.yul\":3018:3149   */\n      tag_220\n      jump\t// in\n    tag_300:\n        /* \"#utility.yul\":3010:3149   */\n      swap1\n      pop\n        /* \"#utility.yul\":2737:3156   */\n      swap2\n      swap1\n      pop\n      jump\t// out\n        /* \"#utility.yul\":3162:3305   */\n    tag_221:\n        /* \"#utility.yul\":3219:3224   */\n      0x00\n        /* \"#utility.yul\":3250:3256   */\n      dup2\n        /* \"#utility.yul\":3244:3257   */\n      mload\n        /* \"#utility.yul\":3235:3257   */\n      swap1\n      pop\n        /* \"#utility.yul\":3266:3299   */\n      tag_302\n        /* \"#utility.yul\":3293:3298   */\n      dup2\n        /* \"#utility.yul\":3266:3299   */\n      tag_212\n      jump\t// in\n    tag_302:\n        /* \"#utility.yul\":3162:3305   */\n      swap3\n      swap2\n      pop\n      pop\n      jump\t// out\n        /* \"#utility.yul\":3311:3662   */\n    tag_66:\n        /* \"#utility.yul\":3381:3387   */\n      0x00\n        /* \"#utility.yul\":3430:3432   */\n      0x20\n        /* \"#utility.yul\":3418:3427   */\n      dup3\n        /* \"#utility.yul\":3409:3416   */\n      dup5\n        /* \"#utility.yul\":3405:3428   */\n      sub\n        /* \"#utility.yul\":3401:3433   */\n      slt\n        /* \"#utility.yul\":3398:3517   */\n      iszero\n      tag_304\n      jumpi\n        /* \"#utility.yul\":3436:3515   */\n      tag_305\n      tag_209\n      jump\t// in\n    tag_305:\n        /* \"#utility.yul\":3398:3517   */\n    tag_304:\n        /* \"#utility.yul\":3556:3557   */\n      0x00\n        /* \"#utility.yul\":3581:3645   */\n      tag_306\n        /* \"#utility.yul\":3637:3644   */\n      dup5\n        /* \"#utility.yul\":3628:3634   */\n      dup3\n        /* \"#utility.yul\":3617:3626   */\n      dup6\n        /* \"#utility.yul\":3613:3635   */\n      add\n        /* \"#utility.yul\":3581:3645   */\n      tag_221\n      jump\t// in\n    tag_306:\n        /* \"#utility.yul\":3571:3645   */\n      swap2\n      pop\n        /* \"#utility.yul\":3527:3655   */\n      pop\n        /* \"#utility.yul\":3311:3662   */\n      swap3\n      swap2\n      pop\n      pop\n      jump\t// out\n        /* \"#utility.yul\":3668:3844   */\n    tag_222:\n        /* \"#utility.yul\":3808:3836   */\n      0x555344432062616c73656e63654f46206e6f7420656e6f756768000000000000\n        /* \"#utility.yul\":3804:3805   */\n      0x00\n        /* \"#utility.yul\":3796:3802   */\n      dup3\n        /* \"#utility.yul\":3792:3806   */\n      add\n        /* \"#utility.yul\":3785:3837   */\n      mstore\n        /* \"#utility.yul\":3668:3844   */\n      pop\n      jump\t// out\n        /* \"#utility.yul\":3850:4216   */\n    tag_223:\n        /* \"#utility.yul\":3992:3995   */\n      0x00\n        /* \"#utility.yul\":4013:4080   */\n      tag_309\n        /* \"#utility.yul\":4077:4079   */\n      0x1a\n        /* \"#utility.yul\":4072:4075   */\n      dup4\n        /* \"#utility.yul\":4013:4080   */\n      tag_218\n      jump\t// in\n    tag_309:\n        /* \"#utility.yul\":4006:4080   */\n      swap2\n      pop\n        /* \"#utility.yul\":4089:4182   */\n      tag_310\n        /* \"#utility.yul\":4178:4181   */\n      dup3\n        /* \"#utility.yul\":4089:4182   */\n      tag_222\n      jump\t// in\n    tag_310:\n        /* \"#utility.yul\":4207:4209   */\n      0x20\n        /* \"#utility.yul\":4202:4205   */\n      dup3\n        /* \"#utility.yul\":4198:4210   */\n      add\n        /* \"#utility.yul\":4191:4210   */\n      swap1\n      pop\n        /* \"#utility.yul\":3850:4216   */\n      swap2\n      swap1\n      pop\n      jump\t// out\n        /* \"#utility.yul\":4222:4641   */\n    tag_69:\n        /* \"#utility.yul\":4388:4392   */\n      0x00\n        /* \"#utility.yul\":4426:4428   */\n      0x20\n        /* \"#utility.yul\":4415:4424   */\n      dup3\n        /* \"#utility.yul\":4411:4429   */\n      add\n        /* \"#utility.yul\":4403:4429   */\n      swap1\n      pop\n        /* \"#utility.yul\":4475:4484   */\n      dup2\n        /* \"#utility.yul\":4469:4473   */\n      dup2\n        /* \"#utility.yul\":4465:4485   */\n      sub\n        /* \"#utility.yul\":4461:4462   */\n      0x00\n        /* \"#utility.yul\":4450:4459   */\n      dup4\n        /* \"#utility.yul\":4446:4463   */\n      add\n        /* \"#utility.yul\":4439:4486   */\n      mstore\n        /* \"#utility.yul\":4503:4634   */\n      tag_312\n        /* \"#utility.yul\":4629:4633   */\n      dup2\n        /* \"#utility.yul\":4503:4634   */\n      tag_223\n      jump\t// in\n    tag_312:\n        /* \"#utility.yul\":4495:4634   */\n      swap1\n      pop\n        /* \"#utility.yul\":4222:4641   */\n      swap2\n      swap1\n      pop\n      jump\t// out\n        /* \"#utility.yul\":4647:4732   */\n    tag_224:\n        /* \"#utility.yul\":4692:4699   */\n      0x00\n        /* \"#utility.yul\":4721:4726   */\n      dup2\n        /* \"#utility.yul\":4710:4726   */\n      swap1\n      pop\n        /* \"#utility.yul\":4647:4732   */\n      swap2\n      swap1\n      pop\n      jump\t// out\n        /* \"#utility.yul\":4738:4798   */\n    tag_225:\n        /* \"#utility.yul\":4766:4769   */\n      0x00\n        /* \"#utility.yul\":4787:4792   */\n      dup2\n        /* \"#utility.yul\":4780:4792   */\n      swap1\n      pop\n        /* \"#utility.yul\":4738:4798   */\n      swap2\n      swap1\n      pop\n      jump\t// out\n        /* \"#utility.yul\":4804:4962   */\n    tag_226:\n        /* \"#utility.yul\":4862:4871   */\n      0x00\n        /* \"#utility.yul\":4895:4956   */\n      tag_316\n        /* \"#utility.yul\":4913:4955   */\n      tag_317\n        /* \"#utility.yul\":4922:4954   */\n      tag_318\n        /* \"#utility.yul\":4948:4953   */\n      dup5\n        /* \"#utility.yul\":4922:4954   */\n      tag_224\n      jump\t// in\n    tag_318:\n        /* \"#utility.yul\":4913:4955   */\n      tag_225\n      jump\t// in\n    tag_317:\n        /* \"#utility.yul\":4895:4956   */\n      tag_211\n      jump\t// in\n    tag_316:\n        /* \"#utility.yul\":4882:4956   */\n      swap1\n      pop\n        /* \"#utility.yul\":4804:4962   */\n      swap2\n      swap1\n      pop\n      jump\t// out\n        /* \"#utility.yul\":4968:5115   */\n    tag_227:\n        /* \"#utility.yul\":5063:5108   */\n      tag_320\n        /* \"#utility.yul\":5102:5107   */\n      dup2\n        /* \"#utility.yul\":5063:5108   */\n      tag_226\n      jump\t// in\n    tag_320:\n        /* \"#utility.yul\":5058:5061   */\n      dup3\n        /* \"#utility.yul\":5051:5109   */\n      mstore\n        /* \"#utility.yul\":4968:5115   */\n      pop\n      pop\n      jump\t// out\n        /* \"#utility.yul\":5121:5206   */\n    tag_228:\n        /* \"#utility.yul\":5166:5173   */\n      0x00\n        /* \"#utility.yul\":5195:5200   */\n      dup2\n        /* \"#utility.yul\":5184:5200   */\n      swap1\n      pop\n        /* \"#utility.yul\":5121:5206   */\n      swap2\n      swap1\n      pop\n      jump\t// out\n        /* \"#utility.yul\":5212:5370   */\n    tag_229:\n        /* \"#utility.yul\":5270:5279   */\n      0x00\n        /* \"#utility.yul\":5303:5364   */\n      tag_323\n        /* \"#utility.yul\":5321:5363   */\n      tag_324\n        /* \"#utility.yul\":5330:5362   */\n      tag_325\n        /* \"#utility.yul\":5356:5361   */\n      dup5\n        /* \"#utility.yul\":5330:5362   */\n      tag_228\n      jump\t// in\n    tag_325:\n        /* \"#utility.yul\":5321:5363   */\n      tag_225\n      jump\t// in\n    tag_324:\n        /* \"#utility.yul\":5303:5364   */\n      tag_211\n      jump\t// in\n    tag_323:\n        /* \"#utility.yul\":5290:5364   */\n      swap1\n      pop\n        /* \"#utility.yul\":5212:5370   */\n      swap2\n      swap1\n      pop\n      jump\t// out\n        /* \"#utility.yul\":5376:5523   */\n    tag_230:\n        /* \"#utility.yul\":5471:5516   */\n      tag_327\n        /* \"#utility.yul\":5510:5515   */\n      dup2\n        /* \"#utility.yul\":5471:5516   */\n      tag_229\n      jump\t// in\n    tag_327:\n        /* \"#utility.yul\":5466:5469   */\n      dup3\n        /* \"#utility.yul\":5459:5517   */\n      mstore\n        /* \"#utility.yul\":5376:5523   */\n      pop\n      pop\n      jump\t// out\n        /* \"#utility.yul\":5529:6003   */\n    tag_78:\n        /* \"#utility.yul\":5694:5698   */\n      0x00\n        /* \"#utility.yul\":5732:5734   */\n      0x60\n        /* \"#utility.yul\":5721:5730   */\n      dup3\n        /* \"#utility.yul\":5717:5735   */\n      add\n        /* \"#utility.yul\":5709:5735   */\n      swap1\n      pop\n        /* \"#utility.yul\":5745:5824   */\n      tag_329\n        /* \"#utility.yul\":5821:5822   */\n      0x00\n        /* \"#utility.yul\":5810:5819   */\n      dup4\n        /* \"#utility.yul\":5806:5823   */\n      add\n        /* \"#utility.yul\":5797:5803   */\n      dup7\n        /* \"#utility.yul\":5745:5824   */\n      tag_227\n      jump\t// in\n    tag_329:\n        /* \"#utility.yul\":5834:5914   */\n      tag_330\n        /* \"#utility.yul\":5910:5912   */\n      0x20\n        /* \"#utility.yul\":5899:5908   */\n      dup4\n        /* \"#utility.yul\":5895:5913   */\n      add\n        /* \"#utility.yul\":5886:5892   */\n      dup6\n        /* \"#utility.yul\":5834:5914   */\n      tag_230\n      jump\t// in\n    tag_330:\n        /* \"#utility.yul\":5924:5996   */\n      tag_331\n        /* \"#utility.yul\":5992:5994   */\n      0x40\n        /* \"#utility.yul\":5981:5990   */\n      dup4\n        /* \"#utility.yul\":5977:5995   */\n      add\n        /* \"#utility.yul\":5968:5974   */\n      dup5\n        /* \"#utility.yul\":5924:5996   */\n      tag_214\n      jump\t// in\n    tag_331:\n        /* \"#utility.yul\":5529:6003   */\n      swap5\n      swap4\n      pop\n      pop\n      pop\n      pop\n      jump\t// out\n        /* \"#utility.yul\":6009:6185   */\n    tag_231:\n        /* \"#utility.yul\":6149:6177   */\n      0x574554482062616c73656e63654f46206e6f7420656e6f756768000000000000\n        /* \"#utility.yul\":6145:6146   */\n      0x00\n        /* \"#utility.yul\":6137:6143   */\n      dup3\n        /* \"#utility.yul\":6133:6147   */\n      add\n        /* \"#utility.yul\":6126:6178   */\n      mstore\n        /* \"#utility.yul\":6009:6185   */\n      pop\n      jump\t// out\n        /* \"#utility.yul\":6191:6557   */\n    tag_232:\n        /* \"#utility.yul\":6333:6336   */\n      0x00\n        /* \"#utility.yul\":6354:6421   */\n      tag_334\n        /* \"#utility.yul\":6418:6420   */\n      0x1a\n        /* \"#utility.yul\":6413:6416   */\n      dup4\n        /* \"#utility.yul\":6354:6421   */\n      tag_218\n      jump\t// in\n    tag_334:\n        /* \"#utility.yul\":6347:6421   */\n      swap2\n      pop\n        /* \"#utility.yul\":6430:6523   */\n      tag_335\n        /* \"#utility.yul\":6519:6522   */\n      dup3\n        /* \"#utility.yul\":6430:6523   */\n      tag_231\n      jump\t// in\n    tag_335:\n        /* \"#utility.yul\":6548:6550   */\n      0x20\n        /* \"#utility.yul\":6543:6546   */\n      dup3\n        /* \"#utility.yul\":6539:6551   */\n      add\n        /* \"#utility.yul\":6532:6551   */\n      swap1\n      pop\n        /* \"#utility.yul\":6191:6557   */\n      swap2\n      swap1\n      pop\n      jump\t// out\n        /* \"#utility.yul\":6563:6982   */\n    tag_92:\n        /* \"#utility.yul\":6729:6733   */\n      0x00\n        /* \"#utility.yul\":6767:6769   */\n      0x20\n        /* \"#utility.yul\":6756:6765   */\n      dup3\n        /* \"#utility.yul\":6752:6770   */\n      add\n        /* \"#utility.yul\":6744:6770   */\n      swap1\n      pop\n        /* \"#utility.yul\":6816:6825   */\n      dup2\n        /* \"#utility.yul\":6810:6814   */\n      dup2\n        /* \"#utility.yul\":6806:6826   */\n      sub\n        /* \"#utility.yul\":6802:6803   */\n      0x00\n        /* \"#utility.yul\":6791:6800   */\n      dup4\n        /* \"#utility.yul\":6787:6804   */\n      add\n        /* \"#utility.yul\":6780:6827   */\n      mstore\n        /* \"#utility.yul\":6844:6975   */\n      tag_337\n        /* \"#utility.yul\":6970:6974   */\n      dup2\n        /* \"#utility.yul\":6844:6975   */\n      tag_232\n      jump\t// in\n    tag_337:\n        /* \"#utility.yul\":6836:6975   */\n      swap1\n      pop\n        /* \"#utility.yul\":6563:6982   */\n      swap2\n      swap1\n      pop\n      jump\t// out\n        /* \"#utility.yul\":6988:7110   */\n    tag_233:\n        /* \"#utility.yul\":7061:7085   */\n      tag_339\n        /* \"#utility.yul\":7079:7084   */\n      dup2\n        /* \"#utility.yul\":7061:7085   */\n      tag_216\n      jump\t// in\n    tag_339:\n        /* \"#utility.yul\":7054:7059   */\n      dup2\n        /* \"#utility.yul\":7051:7086   */\n      eq\n        /* \"#utility.yul\":7041:7104   */\n      tag_340\n      jumpi\n        /* \"#utility.yul\":7100:7101   */\n      0x00\n        /* \"#utility.yul\":7097:7098   */\n      dup1\n        /* \"#utility.yul\":7090:7102   */\n      revert\n        /* \"#utility.yul\":7041:7104   */\n    tag_340:\n        /* \"#utility.yul\":6988:7110   */\n      pop\n      jump\t// out\n        /* \"#utility.yul\":7116:7259   */\n    tag_234:\n        /* \"#utility.yul\":7173:7178   */\n      0x00\n        /* \"#utility.yul\":7204:7210   */\n      dup2\n        /* \"#utility.yul\":7198:7211   */\n      mload\n        /* \"#utility.yul\":7189:7211   */\n      swap1\n      pop\n        /* \"#utility.yul\":7220:7253   */\n      tag_342\n        /* \"#utility.yul\":7247:7252   */\n      dup2\n        /* \"#utility.yul\":7220:7253   */\n      tag_233\n      jump\t// in\n    tag_342:\n        /* \"#utility.yul\":7116:7259   */\n      swap3\n      swap2\n      pop\n      pop\n      jump\t// out\n        /* \"#utility.yul\":7265:7616   */\n    tag_99:\n        /* \"#utility.yul\":7335:7341   */\n      0x00\n        /* \"#utility.yul\":7384:7386   */\n      0x20\n        /* \"#utility.yul\":7372:7381   */\n      dup3\n        /* \"#utility.yul\":7363:7370   */\n      dup5\n        /* \"#utility.yul\":7359:7382   */\n      sub\n        /* \"#utility.yul\":7355:7387   */\n      slt\n        /* \"#utility.yul\":7352:7471   */\n      iszero\n      tag_344\n      jumpi\n        /* \"#utility.yul\":7390:7469   */\n      tag_345\n      tag_209\n      jump\t// in\n    tag_345:\n        /* \"#utility.yul\":7352:7471   */\n    tag_344:\n        /* \"#utility.yul\":7510:7511   */\n      0x00\n        /* \"#utility.yul\":7535:7599   */\n      tag_346\n        /* \"#utility.yul\":7591:7598   */\n      dup5\n        /* \"#utility.yul\":7582:7588   */\n      dup3\n        /* \"#utility.yul\":7571:7580   */\n      dup6\n        /* \"#utility.yul\":7567:7589   */\n      add\n        /* \"#utility.yul\":7535:7599   */\n      tag_234\n      jump\t// in\n    tag_346:\n        /* \"#utility.yul\":7525:7599   */\n      swap2\n      pop\n        /* \"#utility.yul\":7481:7609   */\n      pop\n        /* \"#utility.yul\":7265:7616   */\n      swap3\n      swap2\n      pop\n      pop\n      jump\t// out\n        /* \"#utility.yul\":7622:7797   */\n    tag_235:\n        /* \"#utility.yul\":7762:7789   */\n      0x555344432062616c616e63654f66206e6f7420656e6f75676800000000000000\n        /* \"#utility.yul\":7758:7759   */\n      0x00\n        /* \"#utility.yul\":7750:7756   */\n      dup3\n        /* \"#utility.yul\":7746:7760   */\n      add\n        /* \"#utility.yul\":7739:7790   */\n      mstore\n        /* \"#utility.yul\":7622:7797   */\n      pop\n      jump\t// out\n        /* \"#utility.yul\":7803:8169   */\n    tag_236:\n        /* \"#utility.yul\":7945:7948   */\n      0x00\n        /* \"#utility.yul\":7966:8033   */\n      tag_349\n        /* \"#utility.yul\":8030:8032   */\n      0x19\n        /* \"#utility.yul\":8025:8028   */\n      dup4\n        /* \"#utility.yul\":7966:8033   */\n      tag_218\n      jump\t// in\n    tag_349:\n        /* \"#utility.yul\":7959:8033   */\n      swap2\n      pop\n        /* \"#utility.yul\":8042:8135   */\n      tag_350\n        /* \"#utility.yul\":8131:8134   */\n      dup3\n        /* \"#utility.yul\":8042:8135   */\n      tag_235\n      jump\t// in\n    tag_350:\n        /* \"#utility.yul\":8160:8162   */\n      0x20\n        /* \"#utility.yul\":8155:8158   */\n      dup3\n        /* \"#utility.yul\":8151:8163   */\n      add\n        /* \"#utility.yul\":8144:8163   */\n      swap1\n      pop\n        /* \"#utility.yul\":7803:8169   */\n      swap2\n      swap1\n      pop\n      jump\t// out\n        /* \"#utility.yul\":8175:8594   */\n    tag_110:\n        /* \"#utility.yul\":8341:8345   */\n      0x00\n        /* \"#utility.yul\":8379:8381   */\n      0x20\n        /* \"#utility.yul\":8368:8377   */\n      dup3\n        /* \"#utility.yul\":8364:8382   */\n      add\n        /* \"#utility.yul\":8356:8382   */\n      swap1\n      pop\n        /* \"#utility.yul\":8428:8437   */\n      dup2\n        /* \"#utility.yul\":8422:8426   */\n      dup2\n        /* \"#utility.yul\":8418:8438   */\n      sub\n        /* \"#utility.yul\":8414:8415   */\n      0x00\n        /* \"#utility.yul\":8403:8412   */\n      dup4\n        /* \"#utility.yul\":8399:8416   */\n      add\n        /* \"#utility.yul\":8392:8439   */\n      mstore\n        /* \"#utility.yul\":8456:8587   */\n      tag_352\n        /* \"#utility.yul\":8582:8586   */\n      dup2\n        /* \"#utility.yul\":8456:8587   */\n      tag_236\n      jump\t// in\n    tag_352:\n        /* \"#utility.yul\":8448:8587   */\n      swap1\n      pop\n        /* \"#utility.yul\":8175:8594   */\n      swap2\n      swap1\n      pop\n      jump\t// out\n        /* \"#utility.yul\":8600:8932   */\n    tag_112:\n        /* \"#utility.yul\":8721:8725   */\n      0x00\n        /* \"#utility.yul\":8759:8761   */\n      0x40\n        /* \"#utility.yul\":8748:8757   */\n      dup3\n        /* \"#utility.yul\":8744:8762   */\n      add\n        /* \"#utility.yul\":8736:8762   */\n      swap1\n      pop\n        /* \"#utility.yul\":8772:8843   */\n      tag_354\n        /* \"#utility.yul\":8840:8841   */\n      0x00\n        /* \"#utility.yul\":8829:8838   */\n      dup4\n        /* \"#utility.yul\":8825:8842   */\n      add\n        /* \"#utility.yul\":8816:8822   */\n      dup6\n        /* \"#utility.yul\":8772:8843   */\n      tag_217\n      jump\t// in\n    tag_354:\n        /* \"#utility.yul\":8853:8925   */\n      tag_355\n        /* \"#utility.yul\":8921:8923   */\n      0x20\n        /* \"#utility.yul\":8910:8919   */\n      dup4\n        /* \"#utility.yul\":8906:8924   */\n      add\n        /* \"#utility.yul\":8897:8903   */\n      dup5\n        /* \"#utility.yul\":8853:8925   */\n      tag_214\n      jump\t// in\n    tag_355:\n        /* \"#utility.yul\":8600:8932   */\n      swap4\n      swap3\n      pop\n      pop\n      pop\n      jump\t// out\n        /* \"#utility.yul\":8938:9028   */\n    tag_237:\n        /* \"#utility.yul\":8972:8979   */\n      0x00\n        /* \"#utility.yul\":9015:9020   */\n      dup2\n        /* \"#utility.yul\":9008:9021   */\n      iszero\n        /* \"#utility.yul\":9001:9022   */\n      iszero\n        /* \"#utility.yul\":8990:9022   */\n      swap1\n      pop\n        /* \"#utility.yul\":8938:9028   */\n      swap2\n      swap1\n      pop\n      jump\t// out\n        /* \"#utility.yul\":9034:9150   */\n    tag_238:\n        /* \"#utility.yul\":9104:9125   */\n      tag_358\n        /* \"#utility.yul\":9119:9124   */\n      dup2\n        /* \"#utility.yul\":9104:9125   */\n      tag_237\n      jump\t// in\n    tag_358:\n        /* \"#utility.yul\":9097:9102   */\n      dup2\n        /* \"#utility.yul\":9094:9126   */\n      eq\n        /* \"#utility.yul\":9084:9144   */\n      tag_359\n      jumpi\n        /* \"#utility.yul\":9140:9141   */\n      0x00\n        /* \"#utility.yul\":9137:9138   */\n      dup1\n        /* \"#utility.yul\":9130:9142   */\n      revert\n        /* \"#utility.yul\":9084:9144   */\n    tag_359:\n        /* \"#utility.yul\":9034:9150   */\n      pop\n      jump\t// out\n        /* \"#utility.yul\":9156:9293   */\n    tag_239:\n        /* \"#utility.yul\":9210:9215   */\n      0x00\n        /* \"#utility.yul\":9241:9247   */\n      dup2\n        /* \"#utility.yul\":9235:9248   */\n      mload\n        /* \"#utility.yul\":9226:9248   */\n      swap1\n      pop\n        /* \"#utility.yul\":9257:9287   */\n      tag_361\n        /* \"#utility.yul\":9281:9286   */\n      dup2\n        /* \"#utility.yul\":9257:9287   */\n      tag_238\n      jump\t// in\n    tag_361:\n        /* \"#utility.yul\":9156:9293   */\n      swap3\n      swap2\n      pop\n      pop\n      jump\t// out\n        /* \"#utility.yul\":9299:9644   */\n    tag_116:\n        /* \"#utility.yul\":9366:9372   */\n      0x00\n        /* \"#utility.yul\":9415:9417   */\n      0x20\n        /* \"#utility.yul\":9403:9412   */\n      dup3\n        /* \"#utility.yul\":9394:9401   */\n      dup5\n        /* \"#utility.yul\":9390:9413   */\n      sub\n        /* \"#utility.yul\":9386:9418   */\n      slt\n        /* \"#utility.yul\":9383:9502   */\n      iszero\n      tag_363\n      jumpi\n        /* \"#utility.yul\":9421:9500   */\n      tag_364\n      tag_209\n      jump\t// in\n    tag_364:\n        /* \"#utility.yul\":9383:9502   */\n    tag_363:\n        /* \"#utility.yul\":9541:9542   */\n      0x00\n        /* \"#utility.yul\":9566:9627   */\n      tag_365\n        /* \"#utility.yul\":9619:9626   */\n      dup5\n        /* \"#utility.yul\":9610:9616   */\n      dup3\n        /* \"#utility.yul\":9599:9608   */\n      dup6\n        /* \"#utility.yul\":9595:9617   */\n      add\n        /* \"#utility.yul\":9566:9627   */\n      tag_239\n      jump\t// in\n    tag_365:\n        /* \"#utility.yul\":9556:9627   */\n      swap2\n      pop\n        /* \"#utility.yul\":9512:9637   */\n      pop\n        /* \"#utility.yul\":9299:9644   */\n      swap3\n      swap2\n      pop\n      pop\n      jump\t// out\n        /* \"#utility.yul\":9650:9735   */\n    tag_240:\n        /* \"#utility.yul\":9695:9702   */\n      0x00\n        /* \"#utility.yul\":9724:9729   */\n      dup2\n        /* \"#utility.yul\":9713:9729   */\n      swap1\n      pop\n        /* \"#utility.yul\":9650:9735   */\n      swap2\n      swap1\n      pop\n      jump\t// out\n        /* \"#utility.yul\":9741:9899   */\n    tag_241:\n        /* \"#utility.yul\":9799:9808   */\n      0x00\n        /* \"#utility.yul\":9832:9893   */\n      tag_368\n        /* \"#utility.yul\":9850:9892   */\n      tag_369\n        /* \"#utility.yul\":9859:9891   */\n      tag_370\n        /* \"#utility.yul\":9885:9890   */\n      dup5\n        /* \"#utility.yul\":9859:9891   */\n      tag_240\n      jump\t// in\n    tag_370:\n        /* \"#utility.yul\":9850:9892   */\n      tag_225\n      jump\t// in\n    tag_369:\n        /* \"#utility.yul\":9832:9893   */\n      tag_211\n      jump\t// in\n    tag_368:\n        /* \"#utility.yul\":9819:9893   */\n      swap1\n      pop\n        /* \"#utility.yul\":9741:9899   */\n      swap2\n      swap1\n      pop\n      jump\t// out\n        /* \"#utility.yul\":9905:10052   */\n    tag_242:\n        /* \"#utility.yul\":10000:10045   */\n      tag_372\n        /* \"#utility.yul\":10039:10044   */\n      dup2\n        /* \"#utility.yul\":10000:10045   */\n      tag_241\n      jump\t// in\n    tag_372:\n        /* \"#utility.yul\":9995:9998   */\n      dup3\n        /* \"#utility.yul\":9988:10046   */\n      mstore\n        /* \"#utility.yul\":9905:10052   */\n      pop\n      pop\n      jump\t// out\n        /* \"#utility.yul\":10058:10659   */\n    tag_118:\n        /* \"#utility.yul\":10259:10263   */\n      0x00\n        /* \"#utility.yul\":10297:10300   */\n      0x80\n        /* \"#utility.yul\":10286:10295   */\n      dup3\n        /* \"#utility.yul\":10282:10301   */\n      add\n        /* \"#utility.yul\":10274:10301   */\n      swap1\n      pop\n        /* \"#utility.yul\":10311:10390   */\n      tag_374\n        /* \"#utility.yul\":10387:10388   */\n      0x00\n        /* \"#utility.yul\":10376:10385   */\n      dup4\n        /* \"#utility.yul\":10372:10389   */\n      add\n        /* \"#utility.yul\":10363:10369   */\n      dup8\n        /* \"#utility.yul\":10311:10390   */\n      tag_227\n      jump\t// in\n    tag_374:\n        /* \"#utility.yul\":10400:10480   */\n      tag_375\n        /* \"#utility.yul\":10476:10478   */\n      0x20\n        /* \"#utility.yul\":10465:10474   */\n      dup4\n        /* \"#utility.yul\":10461:10479   */\n      add\n        /* \"#utility.yul\":10452:10458   */\n      dup7\n        /* \"#utility.yul\":10400:10480   */\n      tag_230\n      jump\t// in\n    tag_375:\n        /* \"#utility.yul\":10490:10562   */\n      tag_376\n        /* \"#utility.yul\":10558:10560   */\n      0x40\n        /* \"#utility.yul\":10547:10556   */\n      dup4\n        /* \"#utility.yul\":10543:10561   */\n      add\n        /* \"#utility.yul\":10534:10540   */\n      dup6\n        /* \"#utility.yul\":10490:10562   */\n      tag_214\n      jump\t// in\n    tag_376:\n        /* \"#utility.yul\":10572:10652   */\n      tag_377\n        /* \"#utility.yul\":10648:10650   */\n      0x60\n        /* \"#utility.yul\":10637:10646   */\n      dup4\n        /* \"#utility.yul\":10633:10651   */\n      add\n        /* \"#utility.yul\":10624:10630   */\n      dup5\n        /* \"#utility.yul\":10572:10652   */\n      tag_242\n      jump\t// in\n    tag_377:\n        /* \"#utility.yul\":10058:10659   */\n      swap6\n      swap5\n      pop\n      pop\n      pop\n      pop\n      pop\n      jump\t// out\n        /* \"#utility.yul\":10665:10835   */\n    tag_243:\n        /* \"#utility.yul\":10805:10827   */\n      0x4172626974726167652070726f666974203c3d30000000000000000000000000\n        /* \"#utility.yul\":10801:10802   */\n      0x00\n        /* \"#utility.yul\":10793:10799   */\n      dup3\n        /* \"#utility.yul\":10789:10803   */\n      add\n        /* \"#utility.yul\":10782:10828   */\n      mstore\n        /* \"#utility.yul\":10665:10835   */\n      pop\n      jump\t// out\n        /* \"#utility.yul\":10841:11207   */\n    tag_244:\n        /* \"#utility.yul\":10983:10986   */\n      0x00\n        /* \"#utility.yul\":11004:11071   */\n      tag_380\n        /* \"#utility.yul\":11068:11070   */\n      0x14\n        /* \"#utility.yul\":11063:11066   */\n      dup4\n        /* \"#utility.yul\":11004:11071   */\n      tag_218\n      jump\t// in\n    tag_380:\n        /* \"#utility.yul\":10997:11071   */\n      swap2\n      pop\n        /* \"#utility.yul\":11080:11173   */\n      tag_381\n        /* \"#utility.yul\":11169:11172   */\n      dup3\n        /* \"#utility.yul\":11080:11173   */\n      tag_243\n      jump\t// in\n    tag_381:\n        /* \"#utility.yul\":11198:11200   */\n      0x20\n        /* \"#utility.yul\":11193:11196   */\n      dup3\n        /* \"#utility.yul\":11189:11201   */\n      add\n        /* \"#utility.yul\":11182:11201   */\n      swap1\n      pop\n        /* \"#utility.yul\":10841:11207   */\n      swap2\n      swap1\n      pop\n      jump\t// out\n        /* \"#utility.yul\":11213:11632   */\n    tag_160:\n        /* \"#utility.yul\":11379:11383   */\n      0x00\n        /* \"#utility.yul\":11417:11419   */\n      0x20\n        /* \"#utility.yul\":11406:11415   */\n      dup3\n        /* \"#utility.yul\":11402:11420   */\n      add\n        /* \"#utility.yul\":11394:11420   */\n      swap1\n      pop\n        /* \"#utility.yul\":11466:11475   */\n      dup2\n        /* \"#utility.yul\":11460:11464   */\n      dup2\n        /* \"#utility.yul\":11456:11476   */\n      sub\n        /* \"#utility.yul\":11452:11453   */\n      0x00\n        /* \"#utility.yul\":11441:11450   */\n      dup4\n        /* \"#utility.yul\":11437:11454   */\n      add\n        /* \"#utility.yul\":11430:11477   */\n      mstore\n        /* \"#utility.yul\":11494:11625   */\n      tag_383\n        /* \"#utility.yul\":11620:11624   */\n      dup2\n        /* \"#utility.yul\":11494:11625   */\n      tag_244\n      jump\t// in\n    tag_383:\n        /* \"#utility.yul\":11486:11625   */\n      swap1\n      pop\n        /* \"#utility.yul\":11213:11632   */\n      swap2\n      swap1\n      pop\n      jump\t// out\n        /* \"#utility.yul\":11638:11818   */\n    tag_245:\n        /* \"#utility.yul\":11686:11763   */\n      0x4e487b7100000000000000000000000000000000000000000000000000000000\n        /* \"#utility.yul\":11683:11684   */\n      0x00\n        /* \"#utility.yul\":11676:11764   */\n      mstore\n        /* \"#utility.yul\":11783:11787   */\n      0x11\n        /* \"#utility.yul\":11780:11781   */\n      0x04\n        /* \"#utility.yul\":11773:11788   */\n      mstore\n        /* \"#utility.yul\":11807:11811   */\n      0x24\n        /* \"#utility.yul\":11804:11805   */\n      0x00\n        /* \"#utility.yul\":11797:11812   */\n      revert\n        /* \"#utility.yul\":11824:12018   */\n    tag_162:\n        /* \"#utility.yul\":11864:11868   */\n      0x00\n        /* \"#utility.yul\":11884:11904   */\n      tag_386\n        /* \"#utility.yul\":11902:11903   */\n      dup3\n        /* \"#utility.yul\":11884:11904   */\n      tag_211\n      jump\t// in\n    tag_386:\n        /* \"#utility.yul\":11879:11904   */\n      swap2\n      pop\n        /* \"#utility.yul\":11918:11938   */\n      tag_387\n        /* \"#utility.yul\":11936:11937   */\n      dup4\n        /* \"#utility.yul\":11918:11938   */\n      tag_211\n      jump\t// in\n    tag_387:\n        /* \"#utility.yul\":11913:11938   */\n      swap3\n      pop\n        /* \"#utility.yul\":11962:11963   */\n      dup3\n        /* \"#utility.yul\":11959:11960   */\n      dup3\n        /* \"#utility.yul\":11955:11964   */\n      sub\n        /* \"#utility.yul\":11947:11964   */\n      swap1\n      pop\n        /* \"#utility.yul\":11986:11987   */\n      dup2\n        /* \"#utility.yul\":11980:11984   */\n      dup2\n        /* \"#utility.yul\":11977:11988   */\n      gt\n        /* \"#utility.yul\":11974:12011   */\n      iszero\n      tag_388\n      jumpi\n        /* \"#utility.yul\":11991:12009   */\n      tag_389\n      tag_245\n      jump\t// in\n    tag_389:\n        /* \"#utility.yul\":11974:12011   */\n    tag_388:\n        /* \"#utility.yul\":11824:12018   */\n      swap3\n      swap2\n      pop\n      pop\n      jump\t// out\n        /* \"#utility.yul\":12024:12112   */\n    tag_246:\n        /* \"#utility.yul\":12072:12079   */\n      0x00\n        /* \"#utility.yul\":12101:12106   */\n      dup2\n        /* \"#utility.yul\":12090:12106   */\n      swap1\n      pop\n        /* \"#utility.yul\":12024:12112   */\n      swap2\n      swap1\n      pop\n      jump\t// out\n        /* \"#utility.yul\":12118:12209   */\n    tag_247:\n        /* \"#utility.yul\":12154:12161   */\n      0x00\n        /* \"#utility.yul\":12194:12202   */\n      0xffffff\n        /* \"#utility.yul\":12187:12192   */\n      dup3\n        /* \"#utility.yul\":12183:12203   */\n      and\n        /* \"#utility.yul\":12172:12203   */\n      swap1\n      pop\n        /* \"#utility.yul\":12118:12209   */\n      swap2\n      swap1\n      pop\n      jump\t// out\n        /* \"#utility.yul\":12215:12377   */\n    tag_248:\n        /* \"#utility.yul\":12275:12284   */\n      0x00\n        /* \"#utility.yul\":12308:12371   */\n      tag_393\n        /* \"#utility.yul\":12325:12370   */\n      tag_394\n        /* \"#utility.yul\":12334:12369   */\n      tag_395\n        /* \"#utility.yul\":12363:12368   */\n      dup5\n        /* \"#utility.yul\":12334:12369   */\n      tag_246\n      jump\t// in\n    tag_395:\n        /* \"#utility.yul\":12325:12370   */\n      tag_225\n      jump\t// in\n    tag_394:\n        /* \"#utility.yul\":12308:12371   */\n      tag_247\n      jump\t// in\n    tag_393:\n        /* \"#utility.yul\":12295:12371   */\n      swap1\n      pop\n        /* \"#utility.yul\":12215:12377   */\n      swap2\n      swap1\n      pop\n      jump\t// out\n        /* \"#utility.yul\":12383:12534   */\n    tag_249:\n        /* \"#utility.yul\":12480:12527   */\n      tag_397\n        /* \"#utility.yul\":12521:12526   */\n      dup2\n        /* \"#utility.yul\":12480:12527   */\n      tag_248\n      jump\t// in\n    tag_397:\n        /* \"#utility.yul\":12475:12478   */\n      dup3\n        /* \"#utility.yul\":12468:12528   */\n      mstore\n        /* \"#utility.yul\":12383:12534   */\n      pop\n      pop\n      jump\t// out\n        /* \"#utility.yul\":12540:13002   */\n    tag_165:\n        /* \"#utility.yul\":12699:12703   */\n      0x00\n        /* \"#utility.yul\":12737:12739   */\n      0x60\n        /* \"#utility.yul\":12726:12735   */\n      dup3\n        /* \"#utility.yul\":12722:12740   */\n      add\n        /* \"#utility.yul\":12714:12740   */\n      swap1\n      pop\n        /* \"#utility.yul\":12750:12821   */\n      tag_399\n        /* \"#utility.yul\":12818:12819   */\n      0x00\n        /* \"#utility.yul\":12807:12816   */\n      dup4\n        /* \"#utility.yul\":12803:12820   */\n      add\n        /* \"#utility.yul\":12794:12800   */\n      dup7\n        /* \"#utility.yul\":12750:12821   */\n      tag_217\n      jump\t// in\n    tag_399:\n        /* \"#utility.yul\":12831:12903   */\n      tag_400\n        /* \"#utility.yul\":12899:12901   */\n      0x20\n        /* \"#utility.yul\":12888:12897   */\n      dup4\n        /* \"#utility.yul\":12884:12902   */\n      add\n        /* \"#utility.yul\":12875:12881   */\n      dup6\n        /* \"#utility.yul\":12831:12903   */\n      tag_217\n      jump\t// in\n    tag_400:\n        /* \"#utility.yul\":12913:12995   */\n      tag_401\n        /* \"#utility.yul\":12991:12993   */\n      0x40\n        /* \"#utility.yul\":12980:12989   */\n      dup4\n        /* \"#utility.yul\":12976:12994   */\n      add\n        /* \"#utility.yul\":12967:12973   */\n      dup5\n        /* \"#utility.yul\":12913:12995   */\n      tag_249\n      jump\t// in\n    tag_401:\n        /* \"#utility.yul\":12540:13002   */\n      swap5\n      swap4\n      pop\n      pop\n      pop\n      pop\n      jump\t// out\n        /* \"#utility.yul\":13008:13130   */\n    tag_250:\n        /* \"#utility.yul\":13081:13105   */\n      tag_403\n        /* \"#utility.yul\":13099:13104   */\n      dup2\n        /* \"#utility.yul\":13081:13105   */\n      tag_215\n      jump\t// in\n    tag_403:\n        /* \"#utility.yul\":13074:13079   */\n      dup2\n        /* \"#utility.yul\":13071:13106   */\n      eq\n        /* \"#utility.yul\":13061:13124   */\n      tag_404\n      jumpi\n        /* \"#utility.yul\":13120:13121   */\n      0x00\n        /* \"#utility.yul\":13117:13118   */\n      dup1\n        /* \"#utility.yul\":13110:13122   */\n      revert\n        /* \"#utility.yul\":13061:13124   */\n    tag_404:\n        /* \"#utility.yul\":13008:13130   */\n      pop\n      jump\t// out\n        /* \"#utility.yul\":13136:13279   */\n    tag_251:\n        /* \"#utility.yul\":13193:13198   */\n      0x00\n        /* \"#utility.yul\":13224:13230   */\n      dup2\n        /* \"#utility.yul\":13218:13231   */\n      mload\n        /* \"#utility.yul\":13209:13231   */\n      swap1\n      pop\n        /* \"#utility.yul\":13240:13273   */\n      tag_406\n        /* \"#utility.yul\":13267:13272   */\n      dup2\n        /* \"#utility.yul\":13240:13273   */\n      tag_250\n      jump\t// in\n    tag_406:\n        /* \"#utility.yul\":13136:13279   */\n      swap3\n      swap2\n      pop\n      pop\n      jump\t// out\n        /* \"#utility.yul\":13285:13375   */\n    tag_252:\n        /* \"#utility.yul\":13320:13327   */\n      0x00\n        /* \"#utility.yul\":13363:13368   */\n      dup2\n        /* \"#utility.yul\":13360:13361   */\n      0x02\n        /* \"#utility.yul\":13349:13369   */\n      signextend\n        /* \"#utility.yul\":13338:13369   */\n      swap1\n      pop\n        /* \"#utility.yul\":13285:13375   */\n      swap2\n      swap1\n      pop\n      jump\t// out\n        /* \"#utility.yul\":13381:13499   */\n    tag_253:\n        /* \"#utility.yul\":13452:13474   */\n      tag_409\n        /* \"#utility.yul\":13468:13473   */\n      dup2\n        /* \"#utility.yul\":13452:13474   */\n      tag_252\n      jump\t// in\n    tag_409:\n        /* \"#utility.yul\":13445:13450   */\n      dup2\n        /* \"#utility.yul\":13442:13475   */\n      eq\n        /* \"#utility.yul\":13432:13493   */\n      tag_410\n      jumpi\n        /* \"#utility.yul\":13489:13490   */\n      0x00\n        /* \"#utility.yul\":13486:13487   */\n      dup1\n        /* \"#utility.yul\":13479:13491   */\n      revert\n        /* \"#utility.yul\":13432:13493   */\n    tag_410:\n        /* \"#utility.yul\":13381:13499   */\n      pop\n      jump\t// out\n        /* \"#utility.yul\":13505:13644   */\n    tag_254:\n        /* \"#utility.yul\":13560:13565   */\n      0x00\n        /* \"#utility.yul\":13591:13597   */\n      dup2\n        /* \"#utility.yul\":13585:13598   */\n      mload\n        /* \"#utility.yul\":13576:13598   */\n      swap1\n      pop\n        /* \"#utility.yul\":13607:13638   */\n      tag_412\n        /* \"#utility.yul\":13632:13637   */\n      dup2\n        /* \"#utility.yul\":13607:13638   */\n      tag_253\n      jump\t// in\n    tag_412:\n        /* \"#utility.yul\":13505:13644   */\n      swap3\n      swap2\n      pop\n      pop\n      jump\t// out\n        /* \"#utility.yul\":13650:13739   */\n    tag_255:\n        /* \"#utility.yul\":13686:13693   */\n      0x00\n        /* \"#utility.yul\":13726:13732   */\n      0xffff\n        /* \"#utility.yul\":13719:13724   */\n      dup3\n        /* \"#utility.yul\":13715:13733   */\n      and\n        /* \"#utility.yul\":13704:13733   */\n      swap1\n      pop\n        /* \"#utility.yul\":13650:13739   */\n      swap2\n      swap1\n      pop\n      jump\t// out\n        /* \"#utility.yul\":13745:13865   */\n    tag_256:\n        /* \"#utility.yul\":13817:13840   */\n      tag_415\n        /* \"#utility.yul\":13834:13839   */\n      dup2\n        /* \"#utility.yul\":13817:13840   */\n      tag_255\n      jump\t// in\n    tag_415:\n        /* \"#utility.yul\":13810:13815   */\n      dup2\n        /* \"#utility.yul\":13807:13841   */\n      eq\n        /* \"#utility.yul\":13797:13859   */\n      tag_416\n      jumpi\n        /* \"#utility.yul\":13855:13856   */\n      0x00\n        /* \"#utility.yul\":13852:13853   */\n      dup1\n        /* \"#utility.yul\":13845:13857   */\n      revert\n        /* \"#utility.yul\":13797:13859   */\n    tag_416:\n        /* \"#utility.yul\":13745:13865   */\n      pop\n      jump\t// out\n        /* \"#utility.yul\":13871:14012   */\n    tag_257:\n        /* \"#utility.yul\":13927:13932   */\n      0x00\n        /* \"#utility.yul\":13958:13964   */\n      dup2\n        /* \"#utility.yul\":13952:13965   */\n      mload\n        /* \"#utility.yul\":13943:13965   */\n      swap1\n      pop\n        /* \"#utility.yul\":13974:14006   */\n      tag_418\n        /* \"#utility.yul\":14000:14005   */\n      dup2\n        /* \"#utility.yul\":13974:14006   */\n      tag_256\n      jump\t// in\n    tag_418:\n        /* \"#utility.yul\":13871:14012   */\n      swap3\n      swap2\n      pop\n      pop\n      jump\t// out\n        /* \"#utility.yul\":14018:14104   */\n    tag_258:\n        /* \"#utility.yul\":14053:14060   */\n      0x00\n        /* \"#utility.yul\":14093:14097   */\n      0xff\n        /* \"#utility.yul\":14086:14091   */\n      dup3\n        /* \"#utility.yul\":14082:14098   */\n      and\n        /* \"#utility.yul\":14071:14098   */\n      swap1\n      pop\n        /* \"#utility.yul\":14018:14104   */\n      swap2\n      swap1\n      pop\n      jump\t// out\n        /* \"#utility.yul\":14110:14228   */\n    tag_259:\n        /* \"#utility.yul\":14181:14203   */\n      tag_421\n        /* \"#utility.yul\":14197:14202   */\n      dup2\n        /* \"#utility.yul\":14181:14203   */\n      tag_258\n      jump\t// in\n    tag_421:\n        /* \"#utility.yul\":14174:14179   */\n      dup2\n        /* \"#utility.yul\":14171:14204   */\n      eq\n        /* \"#utility.yul\":14161:14222   */\n      tag_422\n      jumpi\n        /* \"#utility.yul\":14218:14219   */\n      0x00\n        /* \"#utility.yul\":14215:14216   */\n      dup1\n        /* \"#utility.yul\":14208:14220   */\n      revert\n        /* \"#utility.yul\":14161:14222   */\n    tag_422:\n        /* \"#utility.yul\":14110:14228   */\n      pop\n      jump\t// out\n        /* \"#utility.yul\":14234:14373   */\n    tag_260:\n        /* \"#utility.yul\":14289:14294   */\n      0x00\n        /* \"#utility.yul\":14320:14326   */\n      dup2\n        /* \"#utility.yul\":14314:14327   */\n      mload\n        /* \"#utility.yul\":14305:14327   */\n      swap1\n      pop\n        /* \"#utility.yul\":14336:14367   */\n      tag_424\n        /* \"#utility.yul\":14361:14366   */\n      dup2\n        /* \"#utility.yul\":14336:14367   */\n      tag_259\n      jump\t// in\n    tag_424:\n        /* \"#utility.yul\":14234:14373   */\n      swap3\n      swap2\n      pop\n      pop\n      jump\t// out\n        /* \"#utility.yul\":14379:15650   */\n    tag_172:\n        /* \"#utility.yul\":14493:14499   */\n      0x00\n        /* \"#utility.yul\":14501:14507   */\n      dup1\n        /* \"#utility.yul\":14509:14515   */\n      0x00\n        /* \"#utility.yul\":14517:14523   */\n      dup1\n        /* \"#utility.yul\":14525:14531   */\n      0x00\n        /* \"#utility.yul\":14533:14539   */\n      dup1\n        /* \"#utility.yul\":14541:14547   */\n      0x00\n        /* \"#utility.yul\":14590:14593   */\n      0xe0\n        /* \"#utility.yul\":14578:14587   */\n      dup9\n        /* \"#utility.yul\":14569:14576   */\n      dup11\n        /* \"#utility.yul\":14565:14588   */\n      sub\n        /* \"#utility.yul\":14561:14594   */\n      slt\n        /* \"#utility.yul\":14558:14678   */\n      iszero\n      tag_426\n      jumpi\n        /* \"#utility.yul\":14597:14676   */\n      tag_427\n      tag_209\n      jump\t// in\n    tag_427:\n        /* \"#utility.yul\":14558:14678   */\n    tag_426:\n        /* \"#utility.yul\":14717:14718   */\n      0x00\n        /* \"#utility.yul\":14742:14806   */\n      tag_428\n        /* \"#utility.yul\":14798:14805   */\n      dup11\n        /* \"#utility.yul\":14789:14795   */\n      dup3\n        /* \"#utility.yul\":14778:14787   */\n      dup12\n        /* \"#utility.yul\":14774:14796   */\n      add\n        /* \"#utility.yul\":14742:14806   */\n      tag_251\n      jump\t// in\n    tag_428:\n        /* \"#utility.yul\":14732:14806   */\n      swap8\n      pop\n        /* \"#utility.yul\":14688:14816   */\n      pop\n        /* \"#utility.yul\":14855:14857   */\n      0x20\n        /* \"#utility.yul\":14881:14943   */\n      tag_429\n        /* \"#utility.yul\":14935:14942   */\n      dup11\n        /* \"#utility.yul\":14926:14932   */\n      dup3\n        /* \"#utility.yul\":14915:14924   */\n      dup12\n        /* \"#utility.yul\":14911:14933   */\n      add\n        /* \"#utility.yul\":14881:14943   */\n      tag_254\n      jump\t// in\n    tag_429:\n        /* \"#utility.yul\":14871:14943   */\n      swap7\n      pop\n        /* \"#utility.yul\":14826:14953   */\n      pop\n        /* \"#utility.yul\":14992:14994   */\n      0x40\n        /* \"#utility.yul\":15018:15081   */\n      tag_430\n        /* \"#utility.yul\":15073:15080   */\n      dup11\n        /* \"#utility.yul\":15064:15070   */\n      dup3\n        /* \"#utility.yul\":15053:15062   */\n      dup12\n        /* \"#utility.yul\":15049:15071   */\n      add\n        /* \"#utility.yul\":15018:15081   */\n      tag_257\n      jump\t// in\n    tag_430:\n        /* \"#utility.yul\":15008:15081   */\n      swap6\n      pop\n        /* \"#utility.yul\":14963:15091   */\n      pop\n        /* \"#utility.yul\":15130:15132   */\n      0x60\n        /* \"#utility.yul\":15156:15219   */\n      tag_431\n        /* \"#utility.yul\":15211:15218   */\n      dup11\n        /* \"#utility.yul\":15202:15208   */\n      dup3\n        /* \"#utility.yul\":15191:15200   */\n      dup12\n        /* \"#utility.yul\":15187:15209   */\n      add\n        /* \"#utility.yul\":15156:15219   */\n      tag_257\n      jump\t// in\n    tag_431:\n        /* \"#utility.yul\":15146:15219   */\n      swap5\n      pop\n        /* \"#utility.yul\":15101:15229   */\n      pop\n        /* \"#utility.yul\":15268:15271   */\n      0x80\n        /* \"#utility.yul\":15295:15358   */\n      tag_432\n        /* \"#utility.yul\":15350:15357   */\n      dup11\n        /* \"#utility.yul\":15341:15347   */\n      dup3\n        /* \"#utility.yul\":15330:15339   */\n      dup12\n        /* \"#utility.yul\":15326:15348   */\n      add\n        /* \"#utility.yul\":15295:15358   */\n      tag_257\n      jump\t// in\n    tag_432:\n        /* \"#utility.yul\":15285:15358   */\n      swap4\n      pop\n        /* \"#utility.yul\":15239:15368   */\n      pop\n        /* \"#utility.yul\":15407:15410   */\n      0xa0\n        /* \"#utility.yul\":15434:15496   */\n      tag_433\n        /* \"#utility.yul\":15488:15495   */\n      dup11\n        /* \"#utility.yul\":15479:15485   */\n      dup3\n        /* \"#utility.yul\":15468:15477   */\n      dup12\n        /* \"#utility.yul\":15464:15486   */\n      add\n        /* \"#utility.yul\":15434:15496   */\n      tag_260\n      jump\t// in\n    tag_433:\n        /* \"#utility.yul\":15424:15496   */\n      swap3\n      pop\n        /* \"#utility.yul\":15378:15506   */\n      pop\n        /* \"#utility.yul\":15545:15548   */\n      0xc0\n        /* \"#utility.yul\":15572:15633   */\n      tag_434\n        /* \"#utility.yul\":15625:15632   */\n      dup11\n        /* \"#utility.yul\":15616:15622   */\n      dup3\n        /* \"#utility.yul\":15605:15614   */\n      dup12\n        /* \"#utility.yul\":15601:15623   */\n      add\n        /* \"#utility.yul\":15572:15633   */\n      tag_239\n      jump\t// in\n    tag_434:\n        /* \"#utility.yul\":15562:15633   */\n      swap2\n      pop\n        /* \"#utility.yul\":15516:15643   */\n      pop\n        /* \"#utility.yul\":14379:15650   */\n      swap3\n      swap6\n      swap9\n      swap2\n      swap5\n      swap8\n      pop\n      swap3\n      swap6\n      pop\n      jump\t// out\n        /* \"#utility.yul\":15656:16066   */\n    tag_174:\n        /* \"#utility.yul\":15696:15703   */\n      0x00\n        /* \"#utility.yul\":15719:15739   */\n      tag_436\n        /* \"#utility.yul\":15737:15738   */\n      dup3\n        /* \"#utility.yul\":15719:15739   */\n      tag_211\n      jump\t// in\n    tag_436:\n        /* \"#utility.yul\":15714:15739   */\n      swap2\n      pop\n        /* \"#utility.yul\":15753:15773   */\n      tag_437\n        /* \"#utility.yul\":15771:15772   */\n      dup4\n        /* \"#utility.yul\":15753:15773   */\n      tag_211\n      jump\t// in\n    tag_437:\n        /* \"#utility.yul\":15748:15773   */\n      swap3\n      pop\n        /* \"#utility.yul\":15808:15809   */\n      dup3\n        /* \"#utility.yul\":15805:15806   */\n      dup3\n        /* \"#utility.yul\":15801:15810   */\n      mul\n        /* \"#utility.yul\":15830:15860   */\n      tag_438\n        /* \"#utility.yul\":15848:15859   */\n      dup2\n        /* \"#utility.yul\":15830:15860   */\n      tag_211\n      jump\t// in\n    tag_438:\n        /* \"#utility.yul\":15819:15860   */\n      swap2\n      pop\n        /* \"#utility.yul\":16009:16010   */\n      dup3\n        /* \"#utility.yul\":16000:16007   */\n      dup3\n        /* \"#utility.yul\":15996:16011   */\n      div\n        /* \"#utility.yul\":15993:15994   */\n      dup5\n        /* \"#utility.yul\":15990:16012   */\n      eq\n        /* \"#utility.yul\":15970:15971   */\n      dup4\n        /* \"#utility.yul\":15963:15972   */\n      iszero\n        /* \"#utility.yul\":15943:16026   */\n      or\n        /* \"#utility.yul\":15920:16059   */\n      tag_439\n      jumpi\n        /* \"#utility.yul\":16039:16057   */\n      tag_440\n      tag_245\n      jump\t// in\n    tag_440:\n        /* \"#utility.yul\":15920:16059   */\n    tag_439:\n        /* \"#utility.yul\":15704:16066   */\n      pop\n        /* \"#utility.yul\":15656:16066   */\n      swap3\n      swap2\n      pop\n      pop\n      jump\t// out\n        /* \"#utility.yul\":16072:16252   */\n    tag_261:\n        /* \"#utility.yul\":16120:16197   */\n      0x4e487b7100000000000000000000000000000000000000000000000000000000\n        /* \"#utility.yul\":16117:16118   */\n      0x00\n        /* \"#utility.yul\":16110:16198   */\n      mstore\n        /* \"#utility.yul\":16217:16221   */\n      0x12\n        /* \"#utility.yul\":16214:16215   */\n      0x04\n        /* \"#utility.yul\":16207:16222   */\n      mstore\n        /* \"#utility.yul\":16241:16245   */\n      0x24\n        /* \"#utility.yul\":16238:16239   */\n      0x00\n        /* \"#utility.yul\":16231:16246   */\n      revert\n        /* \"#utility.yul\":16258:16443   */\n    tag_176:\n        /* \"#utility.yul\":16298:16299   */\n      0x00\n        /* \"#utility.yul\":16315:16335   */\n      tag_443\n        /* \"#utility.yul\":16333:16334   */\n      dup3\n        /* \"#utility.yul\":16315:16335   */\n      tag_211\n      jump\t// in\n    tag_443:\n        /* \"#utility.yul\":16310:16335   */\n      swap2\n      pop\n        /* \"#utility.yul\":16349:16369   */\n      tag_444\n        /* \"#utility.yul\":16367:16368   */\n      dup4\n        /* \"#utility.yul\":16349:16369   */\n      tag_211\n      jump\t// in\n    tag_444:\n        /* \"#utility.yul\":16344:16369   */\n      swap3\n      pop\n        /* \"#utility.yul\":16388:16389   */\n      dup3\n        /* \"#utility.yul\":16378:16413   */\n      tag_445\n      jumpi\n        /* \"#utility.yul\":16393:16411   */\n      tag_446\n      tag_261\n      jump\t// in\n    tag_446:\n        /* \"#utility.yul\":16378:16413   */\n    tag_445:\n        /* \"#utility.yul\":16435:16436   */\n      dup3\n        /* \"#utility.yul\":16432:16433   */\n      dup3\n        /* \"#utility.yul\":16428:16437   */\n      div\n        /* \"#utility.yul\":16423:16437   */\n      swap1\n      pop\n        /* \"#utility.yul\":16258:16443   */\n      swap3\n      swap2\n      pop\n      pop\n      jump\t// out\n        /* \"#utility.yul\":16449:16624   */\n    tag_262:\n        /* \"#utility.yul\":16589:16616   */\n      0x574554482062616c616e63654f66206e6f7420656e6f75676800000000000000\n        /* \"#utility.yul\":16585:16586   */\n      0x00\n        /* \"#utility.yul\":16577:16583   */\n      dup3\n        /* \"#utility.yul\":16573:16587   */\n      add\n        /* \"#utility.yul\":16566:16617   */\n      mstore\n        /* \"#utility.yul\":16449:16624   */\n      pop\n      jump\t// out\n        /* \"#utility.yul\":16630:16996   */\n    tag_263:\n        /* \"#utility.yul\":16772:16775   */\n      0x00\n        /* \"#utility.yul\":16793:16860   */\n      tag_449\n        /* \"#utility.yul\":16857:16859   */\n      0x19\n        /* \"#utility.yul\":16852:16855   */\n      dup4\n        /* \"#utility.yul\":16793:16860   */\n      tag_218\n      jump\t// in\n    tag_449:\n        /* \"#utility.yul\":16786:16860   */\n      swap2\n      pop\n        /* \"#utility.yul\":16869:16962   */\n      tag_450\n        /* \"#utility.yul\":16958:16961   */\n      dup3\n        /* \"#utility.yul\":16869:16962   */\n      tag_262\n      jump\t// in\n    tag_450:\n        /* \"#utility.yul\":16987:16989   */\n      0x20\n        /* \"#utility.yul\":16982:16985   */\n      dup3\n        /* \"#utility.yul\":16978:16990   */\n      add\n        /* \"#utility.yul\":16971:16990   */\n      swap1\n      pop\n        /* \"#utility.yul\":16630:16996   */\n      swap2\n      swap1\n      pop\n      jump\t// out\n        /* \"#utility.yul\":17002:17421   */\n    tag_188:\n        /* \"#utility.yul\":17168:17172   */\n      0x00\n        /* \"#utility.yul\":17206:17208   */\n      0x20\n        /* \"#utility.yul\":17195:17204   */\n      dup3\n        /* \"#utility.yul\":17191:17209   */\n      add\n        /* \"#utility.yul\":17183:17209   */\n      swap1\n      pop\n        /* \"#utility.yul\":17255:17264   */\n      dup2\n        /* \"#utility.yul\":17249:17253   */\n      dup2\n        /* \"#utility.yul\":17245:17265   */\n      sub\n        /* \"#utility.yul\":17241:17242   */\n      0x00\n        /* \"#utility.yul\":17230:17239   */\n      dup4\n        /* \"#utility.yul\":17226:17243   */\n      add\n        /* \"#utility.yul\":17219:17266   */\n      mstore\n        /* \"#utility.yul\":17283:17414   */\n      tag_452\n        /* \"#utility.yul\":17409:17413   */\n      dup2\n        /* \"#utility.yul\":17283:17414   */\n      tag_263\n      jump\t// in\n    tag_452:\n        /* \"#utility.yul\":17275:17414   */\n      swap1\n      pop\n        /* \"#utility.yul\":17002:17421   */\n      swap2\n      swap1\n      pop\n      jump\t// out\n        /* \"#utility.yul\":17427:18028   */\n    tag_194:\n        /* \"#utility.yul\":17628:17632   */\n      0x00\n        /* \"#utility.yul\":17666:17669   */\n      0x80\n        /* \"#utility.yul\":17655:17664   */\n      dup3\n        /* \"#utility.yul\":17651:17670   */\n      add\n        /* \"#utility.yul\":17643:17670   */\n      swap1\n      pop\n        /* \"#utility.yul\":17680:17759   */\n      tag_454\n        /* \"#utility.yul\":17756:17757   */\n      0x00\n        /* \"#utility.yul\":17745:17754   */\n      dup4\n        /* \"#utility.yul\":17741:17758   */\n      add\n        /* \"#utility.yul\":17732:17738   */\n      dup8\n        /* \"#utility.yul\":17680:17759   */\n      tag_230\n      jump\t// in\n    tag_454:\n        /* \"#utility.yul\":17769:17849   */\n      tag_455\n        /* \"#utility.yul\":17845:17847   */\n      0x20\n        /* \"#utility.yul\":17834:17843   */\n      dup4\n        /* \"#utility.yul\":17830:17848   */\n      add\n        /* \"#utility.yul\":17821:17827   */\n      dup7\n        /* \"#utility.yul\":17769:17849   */\n      tag_227\n      jump\t// in\n    tag_455:\n        /* \"#utility.yul\":17859:17931   */\n      tag_456\n        /* \"#utility.yul\":17927:17929   */\n      0x40\n        /* \"#utility.yul\":17916:17925   */\n      dup4\n        /* \"#utility.yul\":17912:17930   */\n      add\n        /* \"#utility.yul\":17903:17909   */\n      dup6\n        /* \"#utility.yul\":17859:17931   */\n      tag_214\n      jump\t// in\n    tag_456:\n        /* \"#utility.yul\":17941:18021   */\n      tag_457\n        /* \"#utility.yul\":18017:18019   */\n      0x60\n        /* \"#utility.yul\":18006:18015   */\n      dup4\n        /* \"#utility.yul\":18002:18020   */\n      add\n        /* \"#utility.yul\":17993:17999   */\n      dup5\n        /* \"#utility.yul\":17941:18021   */\n      tag_242\n      jump\t// in\n    tag_457:\n        /* \"#utility.yul\":17427:18028   */\n      swap6\n      swap5\n      pop\n      pop\n      pop\n      pop\n      pop\n      jump\t// out\n        /* \"#utility.yul\":18034:18142   */\n    tag_264:\n        /* \"#utility.yul\":18111:18135   */\n      tag_459\n        /* \"#utility.yul\":18129:18134   */\n      dup2\n        /* \"#utility.yul\":18111:18135   */\n      tag_216\n      jump\t// in\n    tag_459:\n        /* \"#utility.yul\":18106:18109   */\n      dup3\n        /* \"#utility.yul\":18099:18136   */\n      mstore\n        /* \"#utility.yul\":18034:18142   */\n      pop\n      pop\n      jump\t// out\n        /* \"#utility.yul\":18148:18253   */\n    tag_265:\n        /* \"#utility.yul\":18223:18246   */\n      tag_461\n        /* \"#utility.yul\":18240:18245   */\n      dup2\n        /* \"#utility.yul\":18223:18246   */\n      tag_247\n      jump\t// in\n    tag_461:\n        /* \"#utility.yul\":18218:18221   */\n      dup3\n        /* \"#utility.yul\":18211:18247   */\n      mstore\n        /* \"#utility.yul\":18148:18253   */\n      pop\n      pop\n      jump\t// out\n        /* \"#utility.yul\":18259:18367   */\n    tag_266:\n        /* \"#utility.yul\":18336:18360   */\n      tag_463\n        /* \"#utility.yul\":18354:18359   */\n      dup2\n        /* \"#utility.yul\":18336:18360   */\n      tag_211\n      jump\t// in\n    tag_463:\n        /* \"#utility.yul\":18331:18334   */\n      dup3\n        /* \"#utility.yul\":18324:18361   */\n      mstore\n        /* \"#utility.yul\":18259:18367   */\n      pop\n      pop\n      jump\t// out\n        /* \"#utility.yul\":18373:18481   */\n    tag_267:\n        /* \"#utility.yul\":18450:18474   */\n      tag_465\n        /* \"#utility.yul\":18468:18473   */\n      dup2\n        /* \"#utility.yul\":18450:18474   */\n      tag_215\n      jump\t// in\n    tag_465:\n        /* \"#utility.yul\":18445:18448   */\n      dup3\n        /* \"#utility.yul\":18438:18475   */\n      mstore\n        /* \"#utility.yul\":18373:18481   */\n      pop\n      pop\n      jump\t// out\n        /* \"#utility.yul\":18581:20206   */\n    tag_268:\n        /* \"#utility.yul\":18758:18764   */\n      0x0100\n        /* \"#utility.yul\":18753:18756   */\n      dup3\n        /* \"#utility.yul\":18749:18765   */\n      add\n        /* \"#utility.yul\":18850:18854   */\n      0x00\n        /* \"#utility.yul\":18843:18848   */\n      dup3\n        /* \"#utility.yul\":18839:18855   */\n      add\n        /* \"#utility.yul\":18833:18856   */\n      mload\n        /* \"#utility.yul\":18869:18932   */\n      tag_467\n        /* \"#utility.yul\":18926:18930   */\n      0x00\n        /* \"#utility.yul\":18921:18924   */\n      dup6\n        /* \"#utility.yul\":18917:18931   */\n      add\n        /* \"#utility.yul\":18903:18915   */\n      dup3\n        /* \"#utility.yul\":18869:18932   */\n      tag_264\n      jump\t// in\n    tag_467:\n        /* \"#utility.yul\":18775:18942   */\n      pop\n        /* \"#utility.yul\":19028:19032   */\n      0x20\n        /* \"#utility.yul\":19021:19026   */\n      dup3\n        /* \"#utility.yul\":19017:19033   */\n      add\n        /* \"#utility.yul\":19011:19034   */\n      mload\n        /* \"#utility.yul\":19047:19110   */\n      tag_468\n        /* \"#utility.yul\":19104:19108   */\n      0x20\n        /* \"#utility.yul\":19099:19102   */\n      dup6\n        /* \"#utility.yul\":19095:19109   */\n      add\n        /* \"#utility.yul\":19081:19093   */\n      dup3\n        /* \"#utility.yul\":19047:19110   */\n      tag_264\n      jump\t// in\n    tag_468:\n        /* \"#utility.yul\":18952:19120   */\n      pop\n        /* \"#utility.yul\":19201:19205   */\n      0x40\n        /* \"#utility.yul\":19194:19199   */\n      dup3\n        /* \"#utility.yul\":19190:19206   */\n      add\n        /* \"#utility.yul\":19184:19207   */\n      mload\n        /* \"#utility.yul\":19220:19281   */\n      tag_469\n        /* \"#utility.yul\":19275:19279   */\n      0x40\n        /* \"#utility.yul\":19270:19273   */\n      dup6\n        /* \"#utility.yul\":19266:19280   */\n      add\n        /* \"#utility.yul\":19252:19264   */\n      dup3\n        /* \"#utility.yul\":19220:19281   */\n      tag_265\n      jump\t// in\n    tag_469:\n        /* \"#utility.yul\":19130:19291   */\n      pop\n        /* \"#utility.yul\":19378:19382   */\n      0x60\n        /* \"#utility.yul\":19371:19376   */\n      dup3\n        /* \"#utility.yul\":19367:19383   */\n      add\n        /* \"#utility.yul\":19361:19384   */\n      mload\n        /* \"#utility.yul\":19397:19460   */\n      tag_470\n        /* \"#utility.yul\":19454:19458   */\n      0x60\n        /* \"#utility.yul\":19449:19452   */\n      dup6\n        /* \"#utility.yul\":19445:19459   */\n      add\n        /* \"#utility.yul\":19431:19443   */\n      dup3\n        /* \"#utility.yul\":19397:19460   */\n      tag_264\n      jump\t// in\n    tag_470:\n        /* \"#utility.yul\":19301:19470   */\n      pop\n        /* \"#utility.yul\":19556:19560   */\n      0x80\n        /* \"#utility.yul\":19549:19554   */\n      dup3\n        /* \"#utility.yul\":19545:19561   */\n      add\n        /* \"#utility.yul\":19539:19562   */\n      mload\n        /* \"#utility.yul\":19575:19638   */\n      tag_471\n        /* \"#utility.yul\":19632:19636   */\n      0x80\n        /* \"#utility.yul\":19627:19630   */\n      dup6\n        /* \"#utility.yul\":19623:19637   */\n      add\n        /* \"#utility.yul\":19609:19621   */\n      dup3\n        /* \"#utility.yul\":19575:19638   */\n      tag_266\n      jump\t// in\n    tag_471:\n        /* \"#utility.yul\":19480:19648   */\n      pop\n        /* \"#utility.yul\":19734:19738   */\n      0xa0\n        /* \"#utility.yul\":19727:19732   */\n      dup3\n        /* \"#utility.yul\":19723:19739   */\n      add\n        /* \"#utility.yul\":19717:19740   */\n      mload\n        /* \"#utility.yul\":19753:19816   */\n      tag_472\n        /* \"#utility.yul\":19810:19814   */\n      0xa0\n        /* \"#utility.yul\":19805:19808   */\n      dup6\n        /* \"#utility.yul\":19801:19815   */\n      add\n        /* \"#utility.yul\":19787:19799   */\n      dup3\n        /* \"#utility.yul\":19753:19816   */\n      tag_266\n      jump\t// in\n    tag_472:\n        /* \"#utility.yul\":19658:19826   */\n      pop\n        /* \"#utility.yul\":19920:19924   */\n      0xc0\n        /* \"#utility.yul\":19913:19918   */\n      dup3\n        /* \"#utility.yul\":19909:19925   */\n      add\n        /* \"#utility.yul\":19903:19926   */\n      mload\n        /* \"#utility.yul\":19939:20002   */\n      tag_473\n        /* \"#utility.yul\":19996:20000   */\n      0xc0\n        /* \"#utility.yul\":19991:19994   */\n      dup6\n        /* \"#utility.yul\":19987:20001   */\n      add\n        /* \"#utility.yul\":19973:19985   */\n      dup3\n        /* \"#utility.yul\":19939:20002   */\n      tag_266\n      jump\t// in\n    tag_473:\n        /* \"#utility.yul\":19836:20012   */\n      pop\n        /* \"#utility.yul\":20107:20111   */\n      0xe0\n        /* \"#utility.yul\":20100:20105   */\n      dup3\n        /* \"#utility.yul\":20096:20112   */\n      add\n        /* \"#utility.yul\":20090:20113   */\n      mload\n        /* \"#utility.yul\":20126:20189   */\n      tag_474\n        /* \"#utility.yul\":20183:20187   */\n      0xe0\n        /* \"#utility.yul\":20178:20181   */\n      dup6\n        /* \"#utility.yul\":20174:20188   */\n      add\n        /* \"#utility.yul\":20160:20172   */\n      dup3\n        /* \"#utility.yul\":20126:20189   */\n      tag_267\n      jump\t// in\n    tag_474:\n        /* \"#utility.yul\":20022:20199   */\n      pop\n        /* \"#utility.yul\":18727:20206   */\n      pop\n        /* \"#utility.yul\":18581:20206   */\n      pop\n      pop\n      jump\t// out\n        /* \"#utility.yul\":20212:20595   */\n    tag_204:\n        /* \"#utility.yul\":20385:20389   */\n      0x00\n        /* \"#utility.yul\":20423:20426   */\n      0x0100\n        /* \"#utility.yul\":20412:20421   */\n      dup3\n        /* \"#utility.yul\":20408:20427   */\n      add\n        /* \"#utility.yul\":20400:20427   */\n      swap1\n      pop\n        /* \"#utility.yul\":20437:20588   */\n      tag_476\n        /* \"#utility.yul\":20585:20586   */\n      0x00\n        /* \"#utility.yul\":20574:20583   */\n      dup4\n        /* \"#utility.yul\":20570:20587   */\n      add\n        /* \"#utility.yul\":20561:20567   */\n      dup5\n        /* \"#utility.yul\":20437:20588   */\n      tag_268\n      jump\t// in\n    tag_476:\n        /* \"#utility.yul\":20212:20595   */\n      swap3\n      swap2\n      pop\n      pop\n      jump\t// out\n\n    auxdata: 0xa26469706673582212200dbd87a6a4adc3fc63d0029a371f21c480d9ca79cfe307d90a4826e5052e9ede64736f6c634300081a0033\n}\n",
				"bytecode": {
					"linkReferences": {},
					"object": "6080604052348015600e575f80fd5b50335f806101000a81548173ffffffffffffffffffffffffffffffffffffffff021916908373ffffffffffffffffffffffffffffffffffffffff160217905550611ebc8061005b5f395ff3fe608060405260043610610085575f3560e01c806364084ac01161005857806364084ac014610147578063793c084514610183578063926446db146101bf578063bbceefe3146101fb578063cc9901aa1461023757610085565b8063064a8a8a146100895780631de3df2c146100c55780633eb61c1c146100cf57806354258cc41461010b575b5f80fd5b348015610094575f80fd5b506100af60048036038101906100aa91906114d1565b610273565b6040516100bc919061150b565b60405180910390f35b6100cd61040d565b005b3480156100da575f80fd5b506100f560048036038101906100f091906114d1565b610480565b604051610102919061150b565b60405180910390f35b348015610116575f80fd5b50610131600480360381019061012c91906114d1565b610519565b60405161013e919061150b565b60405180910390f35b348015610152575f80fd5b5061016d600480360381019061016891906114d1565b6106b3565b60405161017a9190611563565b60405180910390f35b34801561018e575f80fd5b506101a960048036038101906101a491906114d1565b610747565b6040516101b6919061150b565b60405180910390f35b3480156101ca575f80fd5b506101e560048036038101906101e091906114d1565b6109e4565b6040516101f2919061150b565b60405180910390f35b348015610206575f80fd5b50610221600480360381019061021c91906114d1565b610e8c565b60405161022e919061150b565b60405180910390f35b348015610242575f80fd5b5061025d600480360381019061025891906114d1565b61103a565b60405161026a919061150b565b60405180910390f35b5f805f9054906101000a900473ffffffffffffffffffffffffffffffffffffffff1673ffffffffffffffffffffffffffffffffffffffff163373ffffffffffffffffffffffffffffffffffffffff1614610302576040517f08c379a00000000000000000000000000000000000000000000000000000000081526004016102f9906115fc565b60405180910390fd5b8173a0b86991c6218b36c1d19d4a2e9eb0ce3606eb4873ffffffffffffffffffffffffffffffffffffffff166370a08231306040518263ffffffff1660e01b81526004016103509190611563565b602060405180830381865afa15801561036b573d5f803e3d5ffd5b505050506040513d601f19601f8201168201806040525081019061038f919061162e565b10156103d0576040517f08c379a00000000000000000000000000000000000000000000000000000000081526004016103c7906116a3565b60405180910390fd5b61040673a0b86991c6218b36c1d19d4a2e9eb0ce3606eb4873c02aaa39b223fe8d0a0e5c4f27ead9083c756cc2610bb8856112d7565b9050919050565b73c02aaa39b223fe8d0a0e5c4f27ead9083c756cc273ffffffffffffffffffffffffffffffffffffffff1663d0e30db0346040518263ffffffff1660e01b81526004015f604051808303818588803b158015610467575f80fd5b505af1158015610479573d5f803e3d5ffd5b5050505050565b5f737f86bf177dd4f3494b841a37e810a34dd56c829b73ffffffffffffffffffffffffffffffffffffffff1663556d6e9f5f6002856040518463ffffffff1660e01b81526004016104d39392919061173c565b602060405180830381865afa1580156104ee573d5f803e3d5ffd5b505050506040513d601f19601f82011682018060405250810190610512919061162e565b9050919050565b5f805f9054906101000a900473ffffffffffffffffffffffffffffffffffffffff1673ffffffffffffffffffffffffffffffffffffffff163373ffffffffffffffffffffffffffffffffffffffff16146105a8576040517f08c379a000000000000000000000000000000000000000000000000000000000815260040161059f906115fc565b60405180910390fd5b8173c02aaa39b223fe8d0a0e5c4f27ead9083c756cc273ffffffffffffffffffffffffffffffffffffffff166370a08231306040518263ffffffff1660e01b81526004016105f69190611563565b602060405180830381865afa158015610611573d5f803e3d5ffd5b505050506040513d601f19601f82011682018060405250810190610635919061162e565b1015610676576040517f08c379a000000000000000000000000000000000000000000000000000000000815260040161066d906117bb565b60405180910390fd5b6106ac73c02aaa39b223fe8d0a0e5c4f27ead9083c756cc273a0b86991c6218b36c1d19d4a2e9eb0ce3606eb48610bb8856112d7565b9050919050565b5f737f86bf177dd4f3494b841a37e810a34dd56c829b73ffffffffffffffffffffffffffffffffffffffff1663c6610657836040518263ffffffff1660e01b8152600401610701919061150b565b602060405180830381865afa15801561071c573d5f803e3d5ffd5b505050506040513d601f19601f820116820180604052508101906107409190611803565b9050919050565b5f805f9054906101000a900473ffffffffffffffffffffffffffffffffffffffff1673ffffffffffffffffffffffffffffffffffffffff163373ffffffffffffffffffffffffffffffffffffffff16146107d6576040517f08c379a00000000000000000000000000000000000000000000000000000000081526004016107cd906115fc565b60405180910390fd5b8173a0b86991c6218b36c1d19d4a2e9eb0ce3606eb4873ffffffffffffffffffffffffffffffffffffffff166370a08231306040518263ffffffff1660e01b81526004016108249190611563565b602060405180830381865afa15801561083f573d5f803e3d5ffd5b505050506040513d601f19601f82011682018060405250810190610863919061162e565b10156108a4576040517f08c379a000000000000000000000000000000000000000000000000000000000815260040161089b90611878565b60405180910390fd5b73a0b86991c6218b36c1d19d4a2e9eb0ce3606eb4873ffffffffffffffffffffffffffffffffffffffff1663095ea7b3737f86bf177dd4f3494b841a37e810a34dd56c829b846040518363ffffffff1660e01b8152600401610907929190611896565b6020604051808303815f875af1158015610923573d5f803e3d5ffd5b505050506040513d601f19601f8201168201806040525081019061094791906118f2565b50737f86bf177dd4f3494b841a37e810a34dd56c829b73ffffffffffffffffffffffffffffffffffffffff16635b41b9085f60028560016040518563ffffffff1660e01b815260040161099d9493929190611956565b6020604051808303815f875af11580156109b9573d5f803e3d5ffd5b505050506040513d601f19601f820116820180604052508101906109dd919061162e565b9050919050565b5f805f9054906101000a900473ffffffffffffffffffffffffffffffffffffffff1673ffffffffffffffffffffffffffffffffffffffff163373ffffffffffffffffffffffffffffffffffffffff1614610a73576040517f08c379a0000000000000000000000000000000000000000000000000000000008152600401610a6a906115fc565b60405180910390fd5b8173a0b86991c6218b36c1d19d4a2e9eb0ce3606eb4873ffffffffffffffffffffffffffffffffffffffff166370a08231306040518263ffffffff1660e01b8152600401610ac19190611563565b602060405180830381865afa158015610adc573d5f803e3d5ffd5b505050506040513d601f19601f82011682018060405250810190610b00919061162e565b1015610b41576040517f08c379a0000000000000000000000000000000000000000000000000000000008152600401610b3890611878565b60405180910390fd5b5f805f3073ffffffffffffffffffffffffffffffffffffffff1663bbceefe3836040518263ffffffff1660e01b8152600401610b7d919061150b565b602060405180830381865afa158015610b98573d5f803e3d5ffd5b505050506040513d601f19601f82011682018060405250810190610bbc919061162e565b90505f3073ffffffffffffffffffffffffffffffffffffffff16633eb61c1c876040518263ffffffff1660e01b8152600401610bf8919061150b565b602060405180830381865afa158015610c13573d5f803e3d5ffd5b505050506040513d601f19601f82011682018060405250810190610c37919061162e565b905080821115610d3c573073ffffffffffffffffffffffffffffffffffffffff1663064a8a8a876040518263ffffffff1660e01b8152600401610c7a919061150b565b6020604051808303815f875af1158015610c96573d5f803e3d5ffd5b505050506040513d601f19601f82011682018060405250810190610cba919061162e565b93503073ffffffffffffffffffffffffffffffffffffffff1663cc9901aa856040518263ffffffff1660e01b8152600401610cf5919061150b565b6020604051808303815f875af1158015610d11573d5f803e3d5ffd5b505050506040513d601f19601f82011682018060405250810190610d35919061162e565b9250610e33565b3073ffffffffffffffffffffffffffffffffffffffff1663793c0845876040518263ffffffff1660e01b8152600401610d75919061150b565b6020604051808303815f875af1158015610d91573d5f803e3d5ffd5b505050506040513d601f19601f82011682018060405250810190610db5919061162e565b93503073ffffffffffffffffffffffffffffffffffffffff166354258cc4856040518263ffffffff1660e01b8152600401610df0919061150b565b6020604051808303815f875af1158015610e0c573d5f803e3d5ffd5b505050506040513d601f19601f82011682018060405250810190610e30919061162e565b92505b858311610e75576040517f08c379a0000000000000000000000000000000000000000000000000000000008152600401610e6c906119e3565b60405180910390fd5b8583610e819190611a2e565b945050505050919050565b5f80731f98431c8ad98523631ae4a59f267346ea31f98473ffffffffffffffffffffffffffffffffffffffff16631698ee8273a0b86991c6218b36c1d19d4a2e9eb0ce3606eb4873c02aaa39b223fe8d0a0e5c4f27ead9083c756cc2610bb86040518463ffffffff1660e01b8152600401610f0993929190611aa8565b602060405180830381865afa158015610f24573d5f803e3d5ffd5b505050506040513d601f19601f82011682018060405250810190610f489190611803565b90505f8190505f8173ffffffffffffffffffffffffffffffffffffffff16633850c7bd6040518163ffffffff1660e01b815260040160e060405180830381865afa158015610f98573d5f803e3d5ffd5b505050506040513d601f19601f82011682018060405250810190610fbc9190611baa565b50505050505090505f78010000000000000000000000000000000000000000000000008273ffffffffffffffffffffffffffffffffffffffff168373ffffffffffffffffffffffffffffffffffffffff166110179190611c47565b6110219190611cb5565b9050808661102f9190611c47565b945050505050919050565b5f805f9054906101000a900473ffffffffffffffffffffffffffffffffffffffff1673ffffffffffffffffffffffffffffffffffffffff163373ffffffffffffffffffffffffffffffffffffffff16146110c9576040517f08c379a00000000000000000000000000000000000000000000000000000000081526004016110c0906115fc565b60405180910390fd5b8173a0b86991c6218b36c1d19d4a2e9eb0ce3606eb4873ffffffffffffffffffffffffffffffffffffffff166370a08231306040518263ffffffff1660e01b81526004016111179190611563565b602060405180830381865afa158015611132573d5f803e3d5ffd5b505050506040513d601f19601f82011682018060405250810190611156919061162e565b1015611197576040517f08c379a000000000000000000000000000000000000000000000000000000000815260040161118e90611d2f565b60405180910390fd5b73c02aaa39b223fe8d0a0e5c4f27ead9083c756cc273ffffffffffffffffffffffffffffffffffffffff1663095ea7b3737f86bf177dd4f3494b841a37e810a34dd56c829b846040518363ffffffff1660e01b81526004016111fa929190611896565b6020604051808303815f875af1158015611216573d5f803e3d5ffd5b505050506040513d601f19601f8201168201806040525081019061123a91906118f2565b50737f86bf177dd4f3494b841a37e810a34dd56c829b73ffffffffffffffffffffffffffffffffffffffff16635b41b90860025f8560016040518563ffffffff1660e01b81526004016112909493929190611d4d565b6020604051808303815f875af11580156112ac573d5f803e3d5ffd5b505050506040513d601f19601f820116820180604052508101906112d0919061162e565b9050919050565b5f8473ffffffffffffffffffffffffffffffffffffffff1663095ea7b373e592427a0aece92de3edee1f18e0157c05861564846040518363ffffffff1660e01b8152600401611327929190611896565b6020604051808303815f875af1158015611343573d5f803e3d5ffd5b505050506040513d601f19601f8201168201806040525081019061136791906118f2565b505f6040518061010001604052808773ffffffffffffffffffffffffffffffffffffffff1681526020018673ffffffffffffffffffffffffffffffffffffffff1681526020018562ffffff1681526020013373ffffffffffffffffffffffffffffffffffffffff1681526020014281526020018481526020015f81526020015f73ffffffffffffffffffffffffffffffffffffffff16815250905073e592427a0aece92de3edee1f18e0157c0586156473ffffffffffffffffffffffffffffffffffffffff1663414bf389826040518263ffffffff1660e01b815260040161144f9190611e6c565b6020604051808303815f875af115801561146b573d5f803e3d5ffd5b505050506040513d601f19601f8201168201806040525081019061148f919061162e565b915050949350505050565b5f80fd5b5f819050919050565b6114b08161149e565b81146114ba575f80fd5b50565b5f813590506114cb816114a7565b92915050565b5f602082840312156114e6576114e561149a565b5b5f6114f3848285016114bd565b91505092915050565b6115058161149e565b82525050565b5f60208201905061151e5f8301846114fc565b92915050565b5f73ffffffffffffffffffffffffffffffffffffffff82169050919050565b5f61154d82611524565b9050919050565b61155d81611543565b82525050565b5f6020820190506115765f830184611554565b92915050565b5f82825260208201905092915050565b7f4f6e6c792061646d696e2063616e2063616c6c20746869732066756e6374696f5f8201527f6e2e000000000000000000000000000000000000000000000000000000000000602082015250565b5f6115e660228361157c565b91506115f18261158c565b604082019050919050565b5f6020820190508181035f830152611613816115da565b9050919050565b5f81519050611628816114a7565b92915050565b5f602082840312156116435761164261149a565b5b5f6116508482850161161a565b91505092915050565b7f555344432062616c73656e63654f46206e6f7420656e6f7567680000000000005f82015250565b5f61168d601a8361157c565b915061169882611659565b602082019050919050565b5f6020820190508181035f8301526116ba81611681565b9050919050565b5f819050919050565b5f819050919050565b5f6116ed6116e86116e3846116c1565b6116ca565b61149e565b9050919050565b6116fd816116d3565b82525050565b5f819050919050565b5f61172661172161171c84611703565b6116ca565b61149e565b9050919050565b6117368161170c565b82525050565b5f60608201905061174f5f8301866116f4565b61175c602083018561172d565b61176960408301846114fc565b949350505050565b7f574554482062616c73656e63654f46206e6f7420656e6f7567680000000000005f82015250565b5f6117a5601a8361157c565b91506117b082611771565b602082019050919050565b5f6020820190508181035f8301526117d281611799565b9050919050565b6117e281611543565b81146117ec575f80fd5b50565b5f815190506117fd816117d9565b92915050565b5f602082840312156118185761181761149a565b5b5f611825848285016117ef565b91505092915050565b7f555344432062616c616e63654f66206e6f7420656e6f756768000000000000005f82015250565b5f61186260198361157c565b915061186d8261182e565b602082019050919050565b5f6020820190508181035f83015261188f81611856565b9050919050565b5f6040820190506118a95f830185611554565b6118b660208301846114fc565b9392505050565b5f8115159050919050565b6118d1816118bd565b81146118db575f80fd5b50565b5f815190506118ec816118c8565b92915050565b5f602082840312156119075761190661149a565b5b5f611914848285016118de565b91505092915050565b5f819050919050565b5f61194061193b6119368461191d565b6116ca565b61149e565b9050919050565b61195081611926565b82525050565b5f6080820190506119695f8301876116f4565b611976602083018661172d565b61198360408301856114fc565b6119906060830184611947565b95945050505050565b7f4172626974726167652070726f666974203c3d300000000000000000000000005f82015250565b5f6119cd60148361157c565b91506119d882611999565b602082019050919050565b5f6020820190508181035f8301526119fa816119c1565b9050919050565b7f4e487b71000000000000000000000000000000000000000000000000000000005f52601160045260245ffd5b5f611a388261149e565b9150611a438361149e565b9250828203905081811115611a5b57611a5a611a01565b5b92915050565b5f819050919050565b5f62ffffff82169050919050565b5f611a92611a8d611a8884611a61565b6116ca565b611a6a565b9050919050565b611aa281611a78565b82525050565b5f606082019050611abb5f830186611554565b611ac86020830185611554565b611ad56040830184611a99565b949350505050565b611ae681611524565b8114611af0575f80fd5b50565b5f81519050611b0181611add565b92915050565b5f8160020b9050919050565b611b1c81611b07565b8114611b26575f80fd5b50565b5f81519050611b3781611b13565b92915050565b5f61ffff82169050919050565b611b5381611b3d565b8114611b5d575f80fd5b50565b5f81519050611b6e81611b4a565b92915050565b5f60ff82169050919050565b611b8981611b74565b8114611b93575f80fd5b50565b5f81519050611ba481611b80565b92915050565b5f805f805f805f60e0888a031215611bc557611bc461149a565b5b5f611bd28a828b01611af3565b9750506020611be38a828b01611b29565b9650506040611bf48a828b01611b60565b9550506060611c058a828b01611b60565b9450506080611c168a828b01611b60565b93505060a0611c278a828b01611b96565b92505060c0611c388a828b016118de565b91505092959891949750929550565b5f611c518261149e565b9150611c5c8361149e565b9250828202611c6a8161149e565b91508282048414831517611c8157611c80611a01565b5b5092915050565b7f4e487b71000000000000000000000000000000000000000000000000000000005f52601260045260245ffd5b5f611cbf8261149e565b9150611cca8361149e565b925082611cda57611cd9611c88565b5b828204905092915050565b7f574554482062616c616e63654f66206e6f7420656e6f756768000000000000005f82015250565b5f611d1960198361157c565b9150611d2482611ce5565b602082019050919050565b5f6020820190508181035f830152611d4681611d0d565b9050919050565b5f608082019050611d605f83018761172d565b611d6d60208301866116f4565b611d7a60408301856114fc565b611d876060830184611947565b95945050505050565b611d9981611543565b82525050565b611da881611a6a565b82525050565b611db78161149e565b82525050565b611dc681611524565b82525050565b61010082015f820151611de15f850182611d90565b506020820151611df46020850182611d90565b506040820151611e076040850182611d9f565b506060820151611e1a6060850182611d90565b506080820151611e2d6080850182611dae565b5060a0820151611e4060a0850182611dae565b5060c0820151611e5360c0850182611dae565b5060e0820151611e6660e0850182611dbd565b50505050565b5f61010082019050611e805f830184611dcc565b9291505056fea26469706673582212200dbd87a6a4adc3fc63d0029a371f21c480d9ca79cfe307d90a4826e5052e9ede64736f6c634300081a0033",
					"opcodes": "PUSH1 0x80 PUSH1 0x40 MSTORE CALLVALUE DUP1 ISZERO PUSH1 0xE JUMPI PUSH0 DUP1 REVERT JUMPDEST POP CALLER PUSH0 DUP1 PUSH2 0x100 EXP DUP2 SLOAD DUP2 PUSH20 0xFFFFFFFFFFFFFFFFFFFFFFFFFFFFFFFFFFFFFFFF MUL NOT AND SWAP1 DUP4 PUSH20 0xFFFFFFFFFFFFFFFFFFFFFFFFFFFFFFFFFFFFFFFF AND MUL OR SWAP1 SSTORE POP PUSH2 0x1EBC DUP1 PUSH2 0x5B PUSH0 CODECOPY PUSH0 RETURN INVALID PUSH1 0x80 PUSH1 0x40 MSTORE PUSH1 0x4 CALLDATASIZE LT PUSH2 0x85 JUMPI PUSH0 CALLDATALOAD PUSH1 0xE0 SHR DUP1 PUSH4 0x64084AC0 GT PUSH2 0x58 JUMPI DUP1 PUSH4 0x64084AC0 EQ PUSH2 0x147 JUMPI DUP1 PUSH4 0x793C0845 EQ PUSH2 0x183 JUMPI DUP1 PUSH4 0x926446DB EQ PUSH2 0x1BF JUMPI DUP1 PUSH4 0xBBCEEFE3 EQ PUSH2 0x1FB JUMPI DUP1 PUSH4 0xCC9901AA EQ PUSH2 0x237 JUMPI PUSH2 0x85 JUMP JUMPDEST DUP1 PUSH4 0x64A8A8A EQ PUSH2 0x89 JUMPI DUP1 PUSH4 0x1DE3DF2C EQ PUSH2 0xC5 JUMPI DUP1 PUSH4 0x3EB61C1C EQ PUSH2 0xCF JUMPI DUP1 PUSH4 0x54258CC4 EQ PUSH2 0x10B JUMPI JUMPDEST PUSH0 DUP1 REVERT JUMPDEST CALLVALUE DUP1 ISZERO PUSH2 0x94 JUMPI PUSH0 DUP1 REVERT JUMPDEST POP PUSH2 0xAF PUSH1 0x4 DUP1 CALLDATASIZE SUB DUP2 ADD SWAP1 PUSH2 0xAA SWAP2 SWAP1 PUSH2 0x14D1 JUMP JUMPDEST PUSH2 0x273 JUMP JUMPDEST PUSH1 0x40 MLOAD PUSH2 0xBC SWAP2 SWAP1 PUSH2 0x150B JUMP JUMPDEST PUSH1 0x40 MLOAD DUP1 SWAP2 SUB SWAP1 RETURN JUMPDEST PUSH2 0xCD PUSH2 0x40D JUMP JUMPDEST STOP JUMPDEST CALLVALUE DUP1 ISZERO PUSH2 0xDA JUMPI PUSH0 DUP1 REVERT JUMPDEST POP PUSH2 0xF5 PUSH1 0x4 DUP1 CALLDATASIZE SUB DUP2 ADD SWAP1 PUSH2 0xF0 SWAP2 SWAP1 PUSH2 0x14D1 JUMP JUMPDEST PUSH2 0x480 JUMP JUMPDEST PUSH1 0x40 MLOAD PUSH2 0x102 SWAP2 SWAP1 PUSH2 0x150B JUMP JUMPDEST PUSH1 0x40 MLOAD DUP1 SWAP2 SUB SWAP1 RETURN JUMPDEST CALLVALUE DUP1 ISZERO PUSH2 0x116 JUMPI PUSH0 DUP1 REVERT JUMPDEST POP PUSH2 0x131 PUSH1 0x4 DUP1 CALLDATASIZE SUB DUP2 ADD SWAP1 PUSH2 0x12C SWAP2 SWAP1 PUSH2 0x14D1 JUMP JUMPDEST PUSH2 0x519 JUMP JUMPDEST PUSH1 0x40 MLOAD PUSH2 0x13E SWAP2 SWAP1 PUSH2 0x150B JUMP JUMPDEST PUSH1 0x40 MLOAD DUP1 SWAP2 SUB SWAP1 RETURN JUMPDEST CALLVALUE DUP1 ISZERO PUSH2 0x152 JUMPI PUSH0 DUP1 REVERT JUMPDEST POP PUSH2 0x16D PUSH1 0x4 DUP1 CALLDATASIZE SUB DUP2 ADD SWAP1 PUSH2 0x168 SWAP2 SWAP1 PUSH2 0x14D1 JUMP JUMPDEST PUSH2 0x6B3 JUMP JUMPDEST PUSH1 0x40 MLOAD PUSH2 0x17A SWAP2 SWAP1 PUSH2 0x1563 JUMP JUMPDEST PUSH1 0x40 MLOAD DUP1 SWAP2 SUB SWAP1 RETURN JUMPDEST CALLVALUE DUP1 ISZERO PUSH2 0x18E JUMPI PUSH0 DUP1 REVERT JUMPDEST POP PUSH2 0x1A9 PUSH1 0x4 DUP1 CALLDATASIZE SUB DUP2 ADD SWAP1 PUSH2 0x1A4 SWAP2 SWAP1 PUSH2 0x14D1 JUMP JUMPDEST PUSH2 0x747 JUMP JUMPDEST PUSH1 0x40 MLOAD PUSH2 0x1B6 SWAP2 SWAP1 PUSH2 0x150B JUMP JUMPDEST PUSH1 0x40 MLOAD DUP1 SWAP2 SUB SWAP1 RETURN JUMPDEST CALLVALUE DUP1 ISZERO PUSH2 0x1CA JUMPI PUSH0 DUP1 REVERT JUMPDEST POP PUSH2 0x1E5 PUSH1 0x4 DUP1 CALLDATASIZE SUB DUP2 ADD SWAP1 PUSH2 0x1E0 SWAP2 SWAP1 PUSH2 0x14D1 JUMP JUMPDEST PUSH2 0x9E4 JUMP JUMPDEST PUSH1 0x40 MLOAD PUSH2 0x1F2 SWAP2 SWAP1 PUSH2 0x150B JUMP JUMPDEST PUSH1 0x40 MLOAD DUP1 SWAP2 SUB SWAP1 RETURN JUMPDEST CALLVALUE DUP1 ISZERO PUSH2 0x206 JUMPI PUSH0 DUP1 REVERT JUMPDEST POP PUSH2 0x221 PUSH1 0x4 DUP1 CALLDATASIZE SUB DUP2 ADD SWAP1 PUSH2 0x21C SWAP2 SWAP1 PUSH2 0x14D1 JUMP JUMPDEST PUSH2 0xE8C JUMP JUMPDEST PUSH1 0x40 MLOAD PUSH2 0x22E SWAP2 SWAP1 PUSH2 0x150B JUMP JUMPDEST PUSH1 0x40 MLOAD DUP1 SWAP2 SUB SWAP1 RETURN JUMPDEST CALLVALUE DUP1 ISZERO PUSH2 0x242 JUMPI PUSH0 DUP1 REVERT JUMPDEST POP PUSH2 0x25D PUSH1 0x4 DUP1 CALLDATASIZE SUB DUP2 ADD SWAP1 PUSH2 0x258 SWAP2 SWAP1 PUSH2 0x14D1 JUMP JUMPDEST PUSH2 0x103A JUMP JUMPDEST PUSH1 0x40 MLOAD PUSH2 0x26A SWAP2 SWAP1 PUSH2 0x150B JUMP JUMPDEST PUSH1 0x40 MLOAD DUP1 SWAP2 SUB SWAP1 RETURN JUMPDEST PUSH0 DUP1 PUSH0 SWAP1 SLOAD SWAP1 PUSH2 0x100 EXP SWAP1 DIV PUSH20 0xFFFFFFFFFFFFFFFFFFFFFFFFFFFFFFFFFFFFFFFF AND PUSH20 0xFFFFFFFFFFFFFFFFFFFFFFFFFFFFFFFFFFFFFFFF AND CALLER PUSH20 0xFFFFFFFFFFFFFFFFFFFFFFFFFFFFFFFFFFFFFFFF AND EQ PUSH2 0x302 JUMPI PUSH1 0x40 MLOAD PUSH32 0x8C379A000000000000000000000000000000000000000000000000000000000 DUP2 MSTORE PUSH1 0x4 ADD PUSH2 0x2F9 SWAP1 PUSH2 0x15FC JUMP JUMPDEST PUSH1 0x40 MLOAD DUP1 SWAP2 SUB SWAP1 REVERT JUMPDEST DUP2 PUSH20 0xA0B86991C6218B36C1D19D4A2E9EB0CE3606EB48 PUSH20 0xFFFFFFFFFFFFFFFFFFFFFFFFFFFFFFFFFFFFFFFF AND PUSH4 0x70A08231 ADDRESS PUSH1 0x40 MLOAD DUP3 PUSH4 0xFFFFFFFF AND PUSH1 0xE0 SHL DUP2 MSTORE PUSH1 0x4 ADD PUSH2 0x350 SWAP2 SWAP1 PUSH2 0x1563 JUMP JUMPDEST PUSH1 0x20 PUSH1 0x40 MLOAD DUP1 DUP4 SUB DUP2 DUP7 GAS STATICCALL ISZERO DUP1 ISZERO PUSH2 0x36B JUMPI RETURNDATASIZE PUSH0 DUP1 RETURNDATACOPY RETURNDATASIZE PUSH0 REVERT JUMPDEST POP POP POP POP PUSH1 0x40 MLOAD RETURNDATASIZE PUSH1 0x1F NOT PUSH1 0x1F DUP3 ADD AND DUP3 ADD DUP1 PUSH1 0x40 MSTORE POP DUP2 ADD SWAP1 PUSH2 0x38F SWAP2 SWAP1 PUSH2 0x162E JUMP JUMPDEST LT ISZERO PUSH2 0x3D0 JUMPI PUSH1 0x40 MLOAD PUSH32 0x8C379A000000000000000000000000000000000000000000000000000000000 DUP2 MSTORE PUSH1 0x4 ADD PUSH2 0x3C7 SWAP1 PUSH2 0x16A3 JUMP JUMPDEST PUSH1 0x40 MLOAD DUP1 SWAP2 SUB SWAP1 REVERT JUMPDEST PUSH2 0x406 PUSH20 0xA0B86991C6218B36C1D19D4A2E9EB0CE3606EB48 PUSH20 0xC02AAA39B223FE8D0A0E5C4F27EAD9083C756CC2 PUSH2 0xBB8 DUP6 PUSH2 0x12D7 JUMP JUMPDEST SWAP1 POP SWAP2 SWAP1 POP JUMP JUMPDEST PUSH20 0xC02AAA39B223FE8D0A0E5C4F27EAD9083C756CC2 PUSH20 0xFFFFFFFFFFFFFFFFFFFFFFFFFFFFFFFFFFFFFFFF AND PUSH4 0xD0E30DB0 CALLVALUE PUSH1 0x40 MLOAD DUP3 PUSH4 0xFFFFFFFF AND PUSH1 0xE0 SHL DUP2 MSTORE PUSH1 0x4 ADD PUSH0 PUSH1 0x40 MLOAD DUP1 DUP4 SUB DUP2 DUP6 DUP9 DUP1 EXTCODESIZE ISZERO DUP1 ISZERO PUSH2 0x467 JUMPI PUSH0 DUP1 REVERT JUMPDEST POP GAS CALL ISZERO DUP1 ISZERO PUSH2 0x479 JUMPI RETURNDATASIZE PUSH0 DUP1 RETURNDATACOPY RETURNDATASIZE PUSH0 REVERT JUMPDEST POP POP POP POP POP JUMP JUMPDEST PUSH0 PUSH20 0x7F86BF177DD4F3494B841A37E810A34DD56C829B PUSH20 0xFFFFFFFFFFFFFFFFFFFFFFFFFFFFFFFFFFFFFFFF AND PUSH4 0x556D6E9F PUSH0 PUSH1 0x2 DUP6 PUSH1 0x40 MLOAD DUP5 PUSH4 0xFFFFFFFF AND PUSH1 0xE0 SHL DUP2 MSTORE PUSH1 0x4 ADD PUSH2 0x4D3 SWAP4 SWAP3 SWAP2 SWAP1 PUSH2 0x173C JUMP JUMPDEST PUSH1 0x20 PUSH1 0x40 MLOAD DUP1 DUP4 SUB DUP2 DUP7 GAS STATICCALL ISZERO DUP1 ISZERO PUSH2 0x4EE JUMPI RETURNDATASIZE PUSH0 DUP1 RETURNDATACOPY RETURNDATASIZE PUSH0 REVERT JUMPDEST POP POP POP POP PUSH1 0x40 MLOAD RETURNDATASIZE PUSH1 0x1F NOT PUSH1 0x1F DUP3 ADD AND DUP3 ADD DUP1 PUSH1 0x40 MSTORE POP DUP2 ADD SWAP1 PUSH2 0x512 SWAP2 SWAP1 PUSH2 0x162E JUMP JUMPDEST SWAP1 POP SWAP2 SWAP1 POP JUMP JUMPDEST PUSH0 DUP1 PUSH0 SWAP1 SLOAD SWAP1 PUSH2 0x100 EXP SWAP1 DIV PUSH20 0xFFFFFFFFFFFFFFFFFFFFFFFFFFFFFFFFFFFFFFFF AND PUSH20 0xFFFFFFFFFFFFFFFFFFFFFFFFFFFFFFFFFFFFFFFF AND CALLER PUSH20 0xFFFFFFFFFFFFFFFFFFFFFFFFFFFFFFFFFFFFFFFF AND EQ PUSH2 0x5A8 JUMPI PUSH1 0x40 MLOAD PUSH32 0x8C379A000000000000000000000000000000000000000000000000000000000 DUP2 MSTORE PUSH1 0x4 ADD PUSH2 0x59F SWAP1 PUSH2 0x15FC JUMP JUMPDEST PUSH1 0x40 MLOAD DUP1 SWAP2 SUB SWAP1 REVERT JUMPDEST DUP2 PUSH20 0xC02AAA39B223FE8D0A0E5C4F27EAD9083C756CC2 PUSH20 0xFFFFFFFFFFFFFFFFFFFFFFFFFFFFFFFFFFFFFFFF AND PUSH4 0x70A08231 ADDRESS PUSH1 0x40 MLOAD DUP3 PUSH4 0xFFFFFFFF AND PUSH1 0xE0 SHL DUP2 MSTORE PUSH1 0x4 ADD PUSH2 0x5F6 SWAP2 SWAP1 PUSH2 0x1563 JUMP JUMPDEST PUSH1 0x20 PUSH1 0x40 MLOAD DUP1 DUP4 SUB DUP2 DUP7 GAS STATICCALL ISZERO DUP1 ISZERO PUSH2 0x611 JUMPI RETURNDATASIZE PUSH0 DUP1 RETURNDATACOPY RETURNDATASIZE PUSH0 REVERT JUMPDEST POP POP POP POP PUSH1 0x40 MLOAD RETURNDATASIZE PUSH1 0x1F NOT PUSH1 0x1F DUP3 ADD AND DUP3 ADD DUP1 PUSH1 0x40 MSTORE POP DUP2 ADD SWAP1 PUSH2 0x635 SWAP2 SWAP1 PUSH2 0x162E JUMP JUMPDEST LT ISZERO PUSH2 0x676 JUMPI PUSH1 0x40 MLOAD PUSH32 0x8C379A000000000000000000000000000000000000000000000000000000000 DUP2 MSTORE PUSH1 0x4 ADD PUSH2 0x66D SWAP1 PUSH2 0x17BB JUMP JUMPDEST PUSH1 0x40 MLOAD DUP1 SWAP2 SUB SWAP1 REVERT JUMPDEST PUSH2 0x6AC PUSH20 0xC02AAA39B223FE8D0A0E5C4F27EAD9083C756CC2 PUSH20 0xA0B86991C6218B36C1D19D4A2E9EB0CE3606EB48 PUSH2 0xBB8 DUP6 PUSH2 0x12D7 JUMP JUMPDEST SWAP1 POP SWAP2 SWAP1 POP JUMP JUMPDEST PUSH0 PUSH20 0x7F86BF177DD4F3494B841A37E810A34DD56C829B PUSH20 0xFFFFFFFFFFFFFFFFFFFFFFFFFFFFFFFFFFFFFFFF AND PUSH4 0xC6610657 DUP4 PUSH1 0x40 MLOAD DUP3 PUSH4 0xFFFFFFFF AND PUSH1 0xE0 SHL DUP2 MSTORE PUSH1 0x4 ADD PUSH2 0x701 SWAP2 SWAP1 PUSH2 0x150B JUMP JUMPDEST PUSH1 0x20 PUSH1 0x40 MLOAD DUP1 DUP4 SUB DUP2 DUP7 GAS STATICCALL ISZERO DUP1 ISZERO PUSH2 0x71C JUMPI RETURNDATASIZE PUSH0 DUP1 RETURNDATACOPY RETURNDATASIZE PUSH0 REVERT JUMPDEST POP POP POP POP PUSH1 0x40 MLOAD RETURNDATASIZE PUSH1 0x1F NOT PUSH1 0x1F DUP3 ADD AND DUP3 ADD DUP1 PUSH1 0x40 MSTORE POP DUP2 ADD SWAP1 PUSH2 0x740 SWAP2 SWAP1 PUSH2 0x1803 JUMP JUMPDEST SWAP1 POP SWAP2 SWAP1 POP JUMP JUMPDEST PUSH0 DUP1 PUSH0 SWAP1 SLOAD SWAP1 PUSH2 0x100 EXP SWAP1 DIV PUSH20 0xFFFFFFFFFFFFFFFFFFFFFFFFFFFFFFFFFFFFFFFF AND PUSH20 0xFFFFFFFFFFFFFFFFFFFFFFFFFFFFFFFFFFFFFFFF AND CALLER PUSH20 0xFFFFFFFFFFFFFFFFFFFFFFFFFFFFFFFFFFFFFFFF AND EQ PUSH2 0x7D6 JUMPI PUSH1 0x40 MLOAD PUSH32 0x8C379A000000000000000000000000000000000000000000000000000000000 DUP2 MSTORE PUSH1 0x4 ADD PUSH2 0x7CD SWAP1 PUSH2 0x15FC JUMP JUMPDEST PUSH1 0x40 MLOAD DUP1 SWAP2 SUB SWAP1 REVERT JUMPDEST DUP2 PUSH20 0xA0B86991C6218B36C1D19D4A2E9EB0CE3606EB48 PUSH20 0xFFFFFFFFFFFFFFFFFFFFFFFFFFFFFFFFFFFFFFFF AND PUSH4 0x70A08231 ADDRESS PUSH1 0x40 MLOAD DUP3 PUSH4 0xFFFFFFFF AND PUSH1 0xE0 SHL DUP2 MSTORE PUSH1 0x4 ADD PUSH2 0x824 SWAP2 SWAP1 PUSH2 0x1563 JUMP JUMPDEST PUSH1 0x20 PUSH1 0x40 MLOAD DUP1 DUP4 SUB DUP2 DUP7 GAS STATICCALL ISZERO DUP1 ISZERO PUSH2 0x83F JUMPI RETURNDATASIZE PUSH0 DUP1 RETURNDATACOPY RETURNDATASIZE PUSH0 REVERT JUMPDEST POP POP POP POP PUSH1 0x40 MLOAD RETURNDATASIZE PUSH1 0x1F NOT PUSH1 0x1F DUP3 ADD AND DUP3 ADD DUP1 PUSH1 0x40 MSTORE POP DUP2 ADD SWAP1 PUSH2 0x863 SWAP2 SWAP1 PUSH2 0x162E JUMP JUMPDEST LT ISZERO PUSH2 0x8A4 JUMPI PUSH1 0x40 MLOAD PUSH32 0x8C379A000000000000000000000000000000000000000000000000000000000 DUP2 MSTORE PUSH1 0x4 ADD PUSH2 0x89B SWAP1 PUSH2 0x1878 JUMP JUMPDEST PUSH1 0x40 MLOAD DUP1 SWAP2 SUB SWAP1 REVERT JUMPDEST PUSH20 0xA0B86991C6218B36C1D19D4A2E9EB0CE3606EB48 PUSH20 0xFFFFFFFFFFFFFFFFFFFFFFFFFFFFFFFFFFFFFFFF AND PUSH4 0x95EA7B3 PUSH20 0x7F86BF177DD4F3494B841A37E810A34DD56C829B DUP5 PUSH1 0x40 MLOAD DUP4 PUSH4 0xFFFFFFFF AND PUSH1 0xE0 SHL DUP2 MSTORE PUSH1 0x4 ADD PUSH2 0x907 SWAP3 SWAP2 SWAP1 PUSH2 0x1896 JUMP JUMPDEST PUSH1 0x20 PUSH1 0x40 MLOAD DUP1 DUP4 SUB DUP2 PUSH0 DUP8 GAS CALL ISZERO DUP1 ISZERO PUSH2 0x923 JUMPI RETURNDATASIZE PUSH0 DUP1 RETURNDATACOPY RETURNDATASIZE PUSH0 REVERT JUMPDEST POP POP POP POP PUSH1 0x40 MLOAD RETURNDATASIZE PUSH1 0x1F NOT PUSH1 0x1F DUP3 ADD AND DUP3 ADD DUP1 PUSH1 0x40 MSTORE POP DUP2 ADD SWAP1 PUSH2 0x947 SWAP2 SWAP1 PUSH2 0x18F2 JUMP JUMPDEST POP PUSH20 0x7F86BF177DD4F3494B841A37E810A34DD56C829B PUSH20 0xFFFFFFFFFFFFFFFFFFFFFFFFFFFFFFFFFFFFFFFF AND PUSH4 0x5B41B908 PUSH0 PUSH1 0x2 DUP6 PUSH1 0x1 PUSH1 0x40 MLOAD DUP6 PUSH4 0xFFFFFFFF AND PUSH1 0xE0 SHL DUP2 MSTORE PUSH1 0x4 ADD PUSH2 0x99D SWAP5 SWAP4 SWAP3 SWAP2 SWAP1 PUSH2 0x1956 JUMP JUMPDEST PUSH1 0x20 PUSH1 0x40 MLOAD DUP1 DUP4 SUB DUP2 PUSH0 DUP8 GAS CALL ISZERO DUP1 ISZERO PUSH2 0x9B9 JUMPI RETURNDATASIZE PUSH0 DUP1 RETURNDATACOPY RETURNDATASIZE PUSH0 REVERT JUMPDEST POP POP POP POP PUSH1 0x40 MLOAD RETURNDATASIZE PUSH1 0x1F NOT PUSH1 0x1F DUP3 ADD AND DUP3 ADD DUP1 PUSH1 0x40 MSTORE POP DUP2 ADD SWAP1 PUSH2 0x9DD SWAP2 SWAP1 PUSH2 0x162E JUMP JUMPDEST SWAP1 POP SWAP2 SWAP1 POP JUMP JUMPDEST PUSH0 DUP1 PUSH0 SWAP1 SLOAD SWAP1 PUSH2 0x100 EXP SWAP1 DIV PUSH20 0xFFFFFFFFFFFFFFFFFFFFFFFFFFFFFFFFFFFFFFFF AND PUSH20 0xFFFFFFFFFFFFFFFFFFFFFFFFFFFFFFFFFFFFFFFF AND CALLER PUSH20 0xFFFFFFFFFFFFFFFFFFFFFFFFFFFFFFFFFFFFFFFF AND EQ PUSH2 0xA73 JUMPI PUSH1 0x40 MLOAD PUSH32 0x8C379A000000000000000000000000000000000000000000000000000000000 DUP2 MSTORE PUSH1 0x4 ADD PUSH2 0xA6A SWAP1 PUSH2 0x15FC JUMP JUMPDEST PUSH1 0x40 MLOAD DUP1 SWAP2 SUB SWAP1 REVERT JUMPDEST DUP2 PUSH20 0xA0B86991C6218B36C1D19D4A2E9EB0CE3606EB48 PUSH20 0xFFFFFFFFFFFFFFFFFFFFFFFFFFFFFFFFFFFFFFFF AND PUSH4 0x70A08231 ADDRESS PUSH1 0x40 MLOAD DUP3 PUSH4 0xFFFFFFFF AND PUSH1 0xE0 SHL DUP2 MSTORE PUSH1 0x4 ADD PUSH2 0xAC1 SWAP2 SWAP1 PUSH2 0x1563 JUMP JUMPDEST PUSH1 0x20 PUSH1 0x40 MLOAD DUP1 DUP4 SUB DUP2 DUP7 GAS STATICCALL ISZERO DUP1 ISZERO PUSH2 0xADC JUMPI RETURNDATASIZE PUSH0 DUP1 RETURNDATACOPY RETURNDATASIZE PUSH0 REVERT JUMPDEST POP POP POP POP PUSH1 0x40 MLOAD RETURNDATASIZE PUSH1 0x1F NOT PUSH1 0x1F DUP3 ADD AND DUP3 ADD DUP1 PUSH1 0x40 MSTORE POP DUP2 ADD SWAP1 PUSH2 0xB00 SWAP2 SWAP1 PUSH2 0x162E JUMP JUMPDEST LT ISZERO PUSH2 0xB41 JUMPI PUSH1 0x40 MLOAD PUSH32 0x8C379A000000000000000000000000000000000000000000000000000000000 DUP2 MSTORE PUSH1 0x4 ADD PUSH2 0xB38 SWAP1 PUSH2 0x1878 JUMP JUMPDEST PUSH1 0x40 MLOAD DUP1 SWAP2 SUB SWAP1 REVERT JUMPDEST PUSH0 DUP1 PUSH0 ADDRESS PUSH20 0xFFFFFFFFFFFFFFFFFFFFFFFFFFFFFFFFFFFFFFFF AND PUSH4 0xBBCEEFE3 DUP4 PUSH1 0x40 MLOAD DUP3 PUSH4 0xFFFFFFFF AND PUSH1 0xE0 SHL DUP2 MSTORE PUSH1 0x4 ADD PUSH2 0xB7D SWAP2 SWAP1 PUSH2 0x150B JUMP JUMPDEST PUSH1 0x20 PUSH1 0x40 MLOAD DUP1 DUP4 SUB DUP2 DUP7 GAS STATICCALL ISZERO DUP1 ISZERO PUSH2 0xB98 JUMPI RETURNDATASIZE PUSH0 DUP1 RETURNDATACOPY RETURNDATASIZE PUSH0 REVERT JUMPDEST POP POP POP POP PUSH1 0x40 MLOAD RETURNDATASIZE PUSH1 0x1F NOT PUSH1 0x1F DUP3 ADD AND DUP3 ADD DUP1 PUSH1 0x40 MSTORE POP DUP2 ADD SWAP1 PUSH2 0xBBC SWAP2 SWAP1 PUSH2 0x162E JUMP JUMPDEST SWAP1 POP PUSH0 ADDRESS PUSH20 0xFFFFFFFFFFFFFFFFFFFFFFFFFFFFFFFFFFFFFFFF AND PUSH4 0x3EB61C1C DUP8 PUSH1 0x40 MLOAD DUP3 PUSH4 0xFFFFFFFF AND PUSH1 0xE0 SHL DUP2 MSTORE PUSH1 0x4 ADD PUSH2 0xBF8 SWAP2 SWAP1 PUSH2 0x150B JUMP JUMPDEST PUSH1 0x20 PUSH1 0x40 MLOAD DUP1 DUP4 SUB DUP2 DUP7 GAS STATICCALL ISZERO DUP1 ISZERO PUSH2 0xC13 JUMPI RETURNDATASIZE PUSH0 DUP1 RETURNDATACOPY RETURNDATASIZE PUSH0 REVERT JUMPDEST POP POP POP POP PUSH1 0x40 MLOAD RETURNDATASIZE PUSH1 0x1F NOT PUSH1 0x1F DUP3 ADD AND DUP3 ADD DUP1 PUSH1 0x40 MSTORE POP DUP2 ADD SWAP1 PUSH2 0xC37 SWAP2 SWAP1 PUSH2 0x162E JUMP JUMPDEST SWAP1 POP DUP1 DUP3 GT ISZERO PUSH2 0xD3C JUMPI ADDRESS PUSH20 0xFFFFFFFFFFFFFFFFFFFFFFFFFFFFFFFFFFFFFFFF AND PUSH4 0x64A8A8A DUP8 PUSH1 0x40 MLOAD DUP3 PUSH4 0xFFFFFFFF AND PUSH1 0xE0 SHL DUP2 MSTORE PUSH1 0x4 ADD PUSH2 0xC7A SWAP2 SWAP1 PUSH2 0x150B JUMP JUMPDEST PUSH1 0x20 PUSH1 0x40 MLOAD DUP1 DUP4 SUB DUP2 PUSH0 DUP8 GAS CALL ISZERO DUP1 ISZERO PUSH2 0xC96 JUMPI RETURNDATASIZE PUSH0 DUP1 RETURNDATACOPY RETURNDATASIZE PUSH0 REVERT JUMPDEST POP POP POP POP PUSH1 0x40 MLOAD RETURNDATASIZE PUSH1 0x1F NOT PUSH1 0x1F DUP3 ADD AND DUP3 ADD DUP1 PUSH1 0x40 MSTORE POP DUP2 ADD SWAP1 PUSH2 0xCBA SWAP2 SWAP1 PUSH2 0x162E JUMP JUMPDEST SWAP4 POP ADDRESS PUSH20 0xFFFFFFFFFFFFFFFFFFFFFFFFFFFFFFFFFFFFFFFF AND PUSH4 0xCC9901AA DUP6 PUSH1 0x40 MLOAD DUP3 PUSH4 0xFFFFFFFF AND PUSH1 0xE0 SHL DUP2 MSTORE PUSH1 0x4 ADD PUSH2 0xCF5 SWAP2 SWAP1 PUSH2 0x150B JUMP JUMPDEST PUSH1 0x20 PUSH1 0x40 MLOAD DUP1 DUP4 SUB DUP2 PUSH0 DUP8 GAS CALL ISZERO DUP1 ISZERO PUSH2 0xD11 JUMPI RETURNDATASIZE PUSH0 DUP1 RETURNDATACOPY RETURNDATASIZE PUSH0 REVERT JUMPDEST POP POP POP POP PUSH1 0x40 MLOAD RETURNDATASIZE PUSH1 0x1F NOT PUSH1 0x1F DUP3 ADD AND DUP3 ADD DUP1 PUSH1 0x40 MSTORE POP DUP2 ADD SWAP1 PUSH2 0xD35 SWAP2 SWAP1 PUSH2 0x162E JUMP JUMPDEST SWAP3 POP PUSH2 0xE33 JUMP JUMPDEST ADDRESS PUSH20 0xFFFFFFFFFFFFFFFFFFFFFFFFFFFFFFFFFFFFFFFF AND PUSH4 0x793C0845 DUP8 PUSH1 0x40 MLOAD DUP3 PUSH4 0xFFFFFFFF AND PUSH1 0xE0 SHL DUP2 MSTORE PUSH1 0x4 ADD PUSH2 0xD75 SWAP2 SWAP1 PUSH2 0x150B JUMP JUMPDEST PUSH1 0x20 PUSH1 0x40 MLOAD DUP1 DUP4 SUB DUP2 PUSH0 DUP8 GAS CALL ISZERO DUP1 ISZERO PUSH2 0xD91 JUMPI RETURNDATASIZE PUSH0 DUP1 RETURNDATACOPY RETURNDATASIZE PUSH0 REVERT JUMPDEST POP POP POP POP PUSH1 0x40 MLOAD RETURNDATASIZE PUSH1 0x1F NOT PUSH1 0x1F DUP3 ADD AND DUP3 ADD DUP1 PUSH1 0x40 MSTORE POP DUP2 ADD SWAP1 PUSH2 0xDB5 SWAP2 SWAP1 PUSH2 0x162E JUMP JUMPDEST SWAP4 POP ADDRESS PUSH20 0xFFFFFFFFFFFFFFFFFFFFFFFFFFFFFFFFFFFFFFFF AND PUSH4 0x54258CC4 DUP6 PUSH1 0x40 MLOAD DUP3 PUSH4 0xFFFFFFFF AND PUSH1 0xE0 SHL DUP2 MSTORE PUSH1 0x4 ADD PUSH2 0xDF0 SWAP2 SWAP1 PUSH2 0x150B JUMP JUMPDEST PUSH1 0x20 PUSH1 0x40 MLOAD DUP1 DUP4 SUB DUP2 PUSH0 DUP8 GAS CALL ISZERO DUP1 ISZERO PUSH2 0xE0C JUMPI RETURNDATASIZE PUSH0 DUP1 RETURNDATACOPY RETURNDATASIZE PUSH0 REVERT JUMPDEST POP POP POP POP PUSH1 0x40 MLOAD RETURNDATASIZE PUSH1 0x1F NOT PUSH1 0x1F DUP3 ADD AND DUP3 ADD DUP1 PUSH1 0x40 MSTORE POP DUP2 ADD SWAP1 PUSH2 0xE30 SWAP2 SWAP1 PUSH2 0x162E JUMP JUMPDEST SWAP3 POP JUMPDEST DUP6 DUP4 GT PUSH2 0xE75 JUMPI PUSH1 0x40 MLOAD PUSH32 0x8C379A000000000000000000000000000000000000000000000000000000000 DUP2 MSTORE PUSH1 0x4 ADD PUSH2 0xE6C SWAP1 PUSH2 0x19E3 JUMP JUMPDEST PUSH1 0x40 MLOAD DUP1 SWAP2 SUB SWAP1 REVERT JUMPDEST DUP6 DUP4 PUSH2 0xE81 SWAP2 SWAP1 PUSH2 0x1A2E JUMP JUMPDEST SWAP5 POP POP POP POP POP SWAP2 SWAP1 POP JUMP JUMPDEST PUSH0 DUP1 PUSH20 0x1F98431C8AD98523631AE4A59F267346EA31F984 PUSH20 0xFFFFFFFFFFFFFFFFFFFFFFFFFFFFFFFFFFFFFFFF AND PUSH4 0x1698EE82 PUSH20 0xA0B86991C6218B36C1D19D4A2E9EB0CE3606EB48 PUSH20 0xC02AAA39B223FE8D0A0E5C4F27EAD9083C756CC2 PUSH2 0xBB8 PUSH1 0x40 MLOAD DUP5 PUSH4 0xFFFFFFFF AND PUSH1 0xE0 SHL DUP2 MSTORE PUSH1 0x4 ADD PUSH2 0xF09 SWAP4 SWAP3 SWAP2 SWAP1 PUSH2 0x1AA8 JUMP JUMPDEST PUSH1 0x20 PUSH1 0x40 MLOAD DUP1 DUP4 SUB DUP2 DUP7 GAS STATICCALL ISZERO DUP1 ISZERO PUSH2 0xF24 JUMPI RETURNDATASIZE PUSH0 DUP1 RETURNDATACOPY RETURNDATASIZE PUSH0 REVERT JUMPDEST POP POP POP POP PUSH1 0x40 MLOAD RETURNDATASIZE PUSH1 0x1F NOT PUSH1 0x1F DUP3 ADD AND DUP3 ADD DUP1 PUSH1 0x40 MSTORE POP DUP2 ADD SWAP1 PUSH2 0xF48 SWAP2 SWAP1 PUSH2 0x1803 JUMP JUMPDEST SWAP1 POP PUSH0 DUP2 SWAP1 POP PUSH0 DUP2 PUSH20 0xFFFFFFFFFFFFFFFFFFFFFFFFFFFFFFFFFFFFFFFF AND PUSH4 0x3850C7BD PUSH1 0x40 MLOAD DUP2 PUSH4 0xFFFFFFFF AND PUSH1 0xE0 SHL DUP2 MSTORE PUSH1 0x4 ADD PUSH1 0xE0 PUSH1 0x40 MLOAD DUP1 DUP4 SUB DUP2 DUP7 GAS STATICCALL ISZERO DUP1 ISZERO PUSH2 0xF98 JUMPI RETURNDATASIZE PUSH0 DUP1 RETURNDATACOPY RETURNDATASIZE PUSH0 REVERT JUMPDEST POP POP POP POP PUSH1 0x40 MLOAD RETURNDATASIZE PUSH1 0x1F NOT PUSH1 0x1F DUP3 ADD AND DUP3 ADD DUP1 PUSH1 0x40 MSTORE POP DUP2 ADD SWAP1 PUSH2 0xFBC SWAP2 SWAP1 PUSH2 0x1BAA JUMP JUMPDEST POP POP POP POP POP POP SWAP1 POP PUSH0 PUSH25 0x1000000000000000000000000000000000000000000000000 DUP3 PUSH20 0xFFFFFFFFFFFFFFFFFFFFFFFFFFFFFFFFFFFFFFFF AND DUP4 PUSH20 0xFFFFFFFFFFFFFFFFFFFFFFFFFFFFFFFFFFFFFFFF AND PUSH2 0x1017 SWAP2 SWAP1 PUSH2 0x1C47 JUMP JUMPDEST PUSH2 0x1021 SWAP2 SWAP1 PUSH2 0x1CB5 JUMP JUMPDEST SWAP1 POP DUP1 DUP7 PUSH2 0x102F SWAP2 SWAP1 PUSH2 0x1C47 JUMP JUMPDEST SWAP5 POP POP POP POP POP SWAP2 SWAP1 POP JUMP JUMPDEST PUSH0 DUP1 PUSH0 SWAP1 SLOAD SWAP1 PUSH2 0x100 EXP SWAP1 DIV PUSH20 0xFFFFFFFFFFFFFFFFFFFFFFFFFFFFFFFFFFFFFFFF AND PUSH20 0xFFFFFFFFFFFFFFFFFFFFFFFFFFFFFFFFFFFFFFFF AND CALLER PUSH20 0xFFFFFFFFFFFFFFFFFFFFFFFFFFFFFFFFFFFFFFFF AND EQ PUSH2 0x10C9 JUMPI PUSH1 0x40 MLOAD PUSH32 0x8C379A000000000000000000000000000000000000000000000000000000000 DUP2 MSTORE PUSH1 0x4 ADD PUSH2 0x10C0 SWAP1 PUSH2 0x15FC JUMP JUMPDEST PUSH1 0x40 MLOAD DUP1 SWAP2 SUB SWAP1 REVERT JUMPDEST DUP2 PUSH20 0xA0B86991C6218B36C1D19D4A2E9EB0CE3606EB48 PUSH20 0xFFFFFFFFFFFFFFFFFFFFFFFFFFFFFFFFFFFFFFFF AND PUSH4 0x70A08231 ADDRESS PUSH1 0x40 MLOAD DUP3 PUSH4 0xFFFFFFFF AND PUSH1 0xE0 SHL DUP2 MSTORE PUSH1 0x4 ADD PUSH2 0x1117 SWAP2 SWAP1 PUSH2 0x1563 JUMP JUMPDEST PUSH1 0x20 PUSH1 0x40 MLOAD DUP1 DUP4 SUB DUP2 DUP7 GAS STATICCALL ISZERO DUP1 ISZERO PUSH2 0x1132 JUMPI RETURNDATASIZE PUSH0 DUP1 RETURNDATACOPY RETURNDATASIZE PUSH0 REVERT JUMPDEST POP POP POP POP PUSH1 0x40 MLOAD RETURNDATASIZE PUSH1 0x1F NOT PUSH1 0x1F DUP3 ADD AND DUP3 ADD DUP1 PUSH1 0x40 MSTORE POP DUP2 ADD SWAP1 PUSH2 0x1156 SWAP2 SWAP1 PUSH2 0x162E JUMP JUMPDEST LT ISZERO PUSH2 0x1197 JUMPI PUSH1 0x40 MLOAD PUSH32 0x8C379A000000000000000000000000000000000000000000000000000000000 DUP2 MSTORE PUSH1 0x4 ADD PUSH2 0x118E SWAP1 PUSH2 0x1D2F JUMP JUMPDEST PUSH1 0x40 MLOAD DUP1 SWAP2 SUB SWAP1 REVERT JUMPDEST PUSH20 0xC02AAA39B223FE8D0A0E5C4F27EAD9083C756CC2 PUSH20 0xFFFFFFFFFFFFFFFFFFFFFFFFFFFFFFFFFFFFFFFF AND PUSH4 0x95EA7B3 PUSH20 0x7F86BF177DD4F3494B841A37E810A34DD56C829B DUP5 PUSH1 0x40 MLOAD DUP4 PUSH4 0xFFFFFFFF AND PUSH1 0xE0 SHL DUP2 MSTORE PUSH1 0x4 ADD PUSH2 0x11FA SWAP3 SWAP2 SWAP1 PUSH2 0x1896 JUMP JUMPDEST PUSH1 0x20 PUSH1 0x40 MLOAD DUP1 DUP4 SUB DUP2 PUSH0 DUP8 GAS CALL ISZERO DUP1 ISZERO PUSH2 0x1216 JUMPI RETURNDATASIZE PUSH0 DUP1 RETURNDATACOPY RETURNDATASIZE PUSH0 REVERT JUMPDEST POP POP POP POP PUSH1 0x40 MLOAD RETURNDATASIZE PUSH1 0x1F NOT PUSH1 0x1F DUP3 ADD AND DUP3 ADD DUP1 PUSH1 0x40 MSTORE POP DUP2 ADD SWAP1 PUSH2 0x123A SWAP2 SWAP1 PUSH2 0x18F2 JUMP JUMPDEST POP PUSH20 0x7F86BF177DD4F3494B841A37E810A34DD56C829B PUSH20 0xFFFFFFFFFFFFFFFFFFFFFFFFFFFFFFFFFFFFFFFF AND PUSH4 0x5B41B908 PUSH1 0x2 PUSH0 DUP6 PUSH1 0x1 PUSH1 0x40 MLOAD DUP6 PUSH4 0xFFFFFFFF AND PUSH1 0xE0 SHL DUP2 MSTORE PUSH1 0x4 ADD PUSH2 0x1290 SWAP5 SWAP4 SWAP3 SWAP2 SWAP1 PUSH2 0x1D4D JUMP JUMPDEST PUSH1 0x20 PUSH1 0x40 MLOAD DUP1 DUP4 SUB DUP2 PUSH0 DUP8 GAS CALL ISZERO DUP1 ISZERO PUSH2 0x12AC JUMPI RETURNDATASIZE PUSH0 DUP1 RETURNDATACOPY RETURNDATASIZE PUSH0 REVERT JUMPDEST POP POP POP POP PUSH1 0x40 MLOAD RETURNDATASIZE PUSH1 0x1F NOT PUSH1 0x1F DUP3 ADD AND DUP3 ADD DUP1 PUSH1 0x40 MSTORE POP DUP2 ADD SWAP1 PUSH2 0x12D0 SWAP2 SWAP1 PUSH2 0x162E JUMP JUMPDEST SWAP1 POP SWAP2 SWAP1 POP JUMP JUMPDEST PUSH0 DUP5 PUSH20 0xFFFFFFFFFFFFFFFFFFFFFFFFFFFFFFFFFFFFFFFF AND PUSH4 0x95EA7B3 PUSH20 0xE592427A0AECE92DE3EDEE1F18E0157C05861564 DUP5 PUSH1 0x40 MLOAD DUP4 PUSH4 0xFFFFFFFF AND PUSH1 0xE0 SHL DUP2 MSTORE PUSH1 0x4 ADD PUSH2 0x1327 SWAP3 SWAP2 SWAP1 PUSH2 0x1896 JUMP JUMPDEST PUSH1 0x20 PUSH1 0x40 MLOAD DUP1 DUP4 SUB DUP2 PUSH0 DUP8 GAS CALL ISZERO DUP1 ISZERO PUSH2 0x1343 JUMPI RETURNDATASIZE PUSH0 DUP1 RETURNDATACOPY RETURNDATASIZE PUSH0 REVERT JUMPDEST POP POP POP POP PUSH1 0x40 MLOAD RETURNDATASIZE PUSH1 0x1F NOT PUSH1 0x1F DUP3 ADD AND DUP3 ADD DUP1 PUSH1 0x40 MSTORE POP DUP2 ADD SWAP1 PUSH2 0x1367 SWAP2 SWAP1 PUSH2 0x18F2 JUMP JUMPDEST POP PUSH0 PUSH1 0x40 MLOAD DUP1 PUSH2 0x100 ADD PUSH1 0x40 MSTORE DUP1 DUP8 PUSH20 0xFFFFFFFFFFFFFFFFFFFFFFFFFFFFFFFFFFFFFFFF AND DUP2 MSTORE PUSH1 0x20 ADD DUP7 PUSH20 0xFFFFFFFFFFFFFFFFFFFFFFFFFFFFFFFFFFFFFFFF AND DUP2 MSTORE PUSH1 0x20 ADD DUP6 PUSH3 0xFFFFFF AND DUP2 MSTORE PUSH1 0x20 ADD CALLER PUSH20 0xFFFFFFFFFFFFFFFFFFFFFFFFFFFFFFFFFFFFFFFF AND DUP2 MSTORE PUSH1 0x20 ADD TIMESTAMP DUP2 MSTORE PUSH1 0x20 ADD DUP5 DUP2 MSTORE PUSH1 0x20 ADD PUSH0 DUP2 MSTORE PUSH1 0x20 ADD PUSH0 PUSH20 0xFFFFFFFFFFFFFFFFFFFFFFFFFFFFFFFFFFFFFFFF AND DUP2 MSTORE POP SWAP1 POP PUSH20 0xE592427A0AECE92DE3EDEE1F18E0157C05861564 PUSH20 0xFFFFFFFFFFFFFFFFFFFFFFFFFFFFFFFFFFFFFFFF AND PUSH4 0x414BF389 DUP3 PUSH1 0x40 MLOAD DUP3 PUSH4 0xFFFFFFFF AND PUSH1 0xE0 SHL DUP2 MSTORE PUSH1 0x4 ADD PUSH2 0x144F SWAP2 SWAP1 PUSH2 0x1E6C JUMP JUMPDEST PUSH1 0x20 PUSH1 0x40 MLOAD DUP1 DUP4 SUB DUP2 PUSH0 DUP8 GAS CALL ISZERO DUP1 ISZERO PUSH2 0x146B JUMPI RETURNDATASIZE PUSH0 DUP1 RETURNDATACOPY RETURNDATASIZE PUSH0 REVERT JUMPDEST POP POP POP POP PUSH1 0x40 MLOAD RETURNDATASIZE PUSH1 0x1F NOT PUSH1 0x1F DUP3 ADD AND DUP3 ADD DUP1 PUSH1 0x40 MSTORE POP DUP2 ADD SWAP1 PUSH2 0x148F SWAP2 SWAP1 PUSH2 0x162E JUMP JUMPDEST SWAP2 POP POP SWAP5 SWAP4 POP POP POP POP JUMP JUMPDEST PUSH0 DUP1 REVERT JUMPDEST PUSH0 DUP2 SWAP1 POP SWAP2 SWAP1 POP JUMP JUMPDEST PUSH2 0x14B0 DUP2 PUSH2 0x149E JUMP JUMPDEST DUP2 EQ PUSH2 0x14BA JUMPI PUSH0 DUP1 REVERT JUMPDEST POP JUMP JUMPDEST PUSH0 DUP2 CALLDATALOAD SWAP1 POP PUSH2 0x14CB DUP2 PUSH2 0x14A7 JUMP JUMPDEST SWAP3 SWAP2 POP POP JUMP JUMPDEST PUSH0 PUSH1 0x20 DUP3 DUP5 SUB SLT ISZERO PUSH2 0x14E6 JUMPI PUSH2 0x14E5 PUSH2 0x149A JUMP JUMPDEST JUMPDEST PUSH0 PUSH2 0x14F3 DUP5 DUP3 DUP6 ADD PUSH2 0x14BD JUMP JUMPDEST SWAP2 POP POP SWAP3 SWAP2 POP POP JUMP JUMPDEST PUSH2 0x1505 DUP2 PUSH2 0x149E JUMP JUMPDEST DUP3 MSTORE POP POP JUMP JUMPDEST PUSH0 PUSH1 0x20 DUP3 ADD SWAP1 POP PUSH2 0x151E PUSH0 DUP4 ADD DUP5 PUSH2 0x14FC JUMP JUMPDEST SWAP3 SWAP2 POP POP JUMP JUMPDEST PUSH0 PUSH20 0xFFFFFFFFFFFFFFFFFFFFFFFFFFFFFFFFFFFFFFFF DUP3 AND SWAP1 POP SWAP2 SWAP1 POP JUMP JUMPDEST PUSH0 PUSH2 0x154D DUP3 PUSH2 0x1524 JUMP JUMPDEST SWAP1 POP SWAP2 SWAP1 POP JUMP JUMPDEST PUSH2 0x155D DUP2 PUSH2 0x1543 JUMP JUMPDEST DUP3 MSTORE POP POP JUMP JUMPDEST PUSH0 PUSH1 0x20 DUP3 ADD SWAP1 POP PUSH2 0x1576 PUSH0 DUP4 ADD DUP5 PUSH2 0x1554 JUMP JUMPDEST SWAP3 SWAP2 POP POP JUMP JUMPDEST PUSH0 DUP3 DUP3 MSTORE PUSH1 0x20 DUP3 ADD SWAP1 POP SWAP3 SWAP2 POP POP JUMP JUMPDEST PUSH32 0x4F6E6C792061646D696E2063616E2063616C6C20746869732066756E6374696F PUSH0 DUP3 ADD MSTORE PUSH32 0x6E2E000000000000000000000000000000000000000000000000000000000000 PUSH1 0x20 DUP3 ADD MSTORE POP JUMP JUMPDEST PUSH0 PUSH2 0x15E6 PUSH1 0x22 DUP4 PUSH2 0x157C JUMP JUMPDEST SWAP2 POP PUSH2 0x15F1 DUP3 PUSH2 0x158C JUMP JUMPDEST PUSH1 0x40 DUP3 ADD SWAP1 POP SWAP2 SWAP1 POP JUMP JUMPDEST PUSH0 PUSH1 0x20 DUP3 ADD SWAP1 POP DUP2 DUP2 SUB PUSH0 DUP4 ADD MSTORE PUSH2 0x1613 DUP2 PUSH2 0x15DA JUMP JUMPDEST SWAP1 POP SWAP2 SWAP1 POP JUMP JUMPDEST PUSH0 DUP2 MLOAD SWAP1 POP PUSH2 0x1628 DUP2 PUSH2 0x14A7 JUMP JUMPDEST SWAP3 SWAP2 POP POP JUMP JUMPDEST PUSH0 PUSH1 0x20 DUP3 DUP5 SUB SLT ISZERO PUSH2 0x1643 JUMPI PUSH2 0x1642 PUSH2 0x149A JUMP JUMPDEST JUMPDEST PUSH0 PUSH2 0x1650 DUP5 DUP3 DUP6 ADD PUSH2 0x161A JUMP JUMPDEST SWAP2 POP POP SWAP3 SWAP2 POP POP JUMP JUMPDEST PUSH32 0x555344432062616C73656E63654F46206E6F7420656E6F756768000000000000 PUSH0 DUP3 ADD MSTORE POP JUMP JUMPDEST PUSH0 PUSH2 0x168D PUSH1 0x1A DUP4 PUSH2 0x157C JUMP JUMPDEST SWAP2 POP PUSH2 0x1698 DUP3 PUSH2 0x1659 JUMP JUMPDEST PUSH1 0x20 DUP3 ADD SWAP1 POP SWAP2 SWAP1 POP JUMP JUMPDEST PUSH0 PUSH1 0x20 DUP3 ADD SWAP1 POP DUP2 DUP2 SUB PUSH0 DUP4 ADD MSTORE PUSH2 0x16BA DUP2 PUSH2 0x1681 JUMP JUMPDEST SWAP1 POP SWAP2 SWAP1 POP JUMP JUMPDEST PUSH0 DUP2 SWAP1 POP SWAP2 SWAP1 POP JUMP JUMPDEST PUSH0 DUP2 SWAP1 POP SWAP2 SWAP1 POP JUMP JUMPDEST PUSH0 PUSH2 0x16ED PUSH2 0x16E8 PUSH2 0x16E3 DUP5 PUSH2 0x16C1 JUMP JUMPDEST PUSH2 0x16CA JUMP JUMPDEST PUSH2 0x149E JUMP JUMPDEST SWAP1 POP SWAP2 SWAP1 POP JUMP JUMPDEST PUSH2 0x16FD DUP2 PUSH2 0x16D3 JUMP JUMPDEST DUP3 MSTORE POP POP JUMP JUMPDEST PUSH0 DUP2 SWAP1 POP SWAP2 SWAP1 POP JUMP JUMPDEST PUSH0 PUSH2 0x1726 PUSH2 0x1721 PUSH2 0x171C DUP5 PUSH2 0x1703 JUMP JUMPDEST PUSH2 0x16CA JUMP JUMPDEST PUSH2 0x149E JUMP JUMPDEST SWAP1 POP SWAP2 SWAP1 POP JUMP JUMPDEST PUSH2 0x1736 DUP2 PUSH2 0x170C JUMP JUMPDEST DUP3 MSTORE POP POP JUMP JUMPDEST PUSH0 PUSH1 0x60 DUP3 ADD SWAP1 POP PUSH2 0x174F PUSH0 DUP4 ADD DUP7 PUSH2 0x16F4 JUMP JUMPDEST PUSH2 0x175C PUSH1 0x20 DUP4 ADD DUP6 PUSH2 0x172D JUMP JUMPDEST PUSH2 0x1769 PUSH1 0x40 DUP4 ADD DUP5 PUSH2 0x14FC JUMP JUMPDEST SWAP5 SWAP4 POP POP POP POP JUMP JUMPDEST PUSH32 0x574554482062616C73656E63654F46206E6F7420656E6F756768000000000000 PUSH0 DUP3 ADD MSTORE POP JUMP JUMPDEST PUSH0 PUSH2 0x17A5 PUSH1 0x1A DUP4 PUSH2 0x157C JUMP JUMPDEST SWAP2 POP PUSH2 0x17B0 DUP3 PUSH2 0x1771 JUMP JUMPDEST PUSH1 0x20 DUP3 ADD SWAP1 POP SWAP2 SWAP1 POP JUMP JUMPDEST PUSH0 PUSH1 0x20 DUP3 ADD SWAP1 POP DUP2 DUP2 SUB PUSH0 DUP4 ADD MSTORE PUSH2 0x17D2 DUP2 PUSH2 0x1799 JUMP JUMPDEST SWAP1 POP SWAP2 SWAP1 POP JUMP JUMPDEST PUSH2 0x17E2 DUP2 PUSH2 0x1543 JUMP JUMPDEST DUP2 EQ PUSH2 0x17EC JUMPI PUSH0 DUP1 REVERT JUMPDEST POP JUMP JUMPDEST PUSH0 DUP2 MLOAD SWAP1 POP PUSH2 0x17FD DUP2 PUSH2 0x17D9 JUMP JUMPDEST SWAP3 SWAP2 POP POP JUMP JUMPDEST PUSH0 PUSH1 0x20 DUP3 DUP5 SUB SLT ISZERO PUSH2 0x1818 JUMPI PUSH2 0x1817 PUSH2 0x149A JUMP JUMPDEST JUMPDEST PUSH0 PUSH2 0x1825 DUP5 DUP3 DUP6 ADD PUSH2 0x17EF JUMP JUMPDEST SWAP2 POP POP SWAP3 SWAP2 POP POP JUMP JUMPDEST PUSH32 0x555344432062616C616E63654F66206E6F7420656E6F75676800000000000000 PUSH0 DUP3 ADD MSTORE POP JUMP JUMPDEST PUSH0 PUSH2 0x1862 PUSH1 0x19 DUP4 PUSH2 0x157C JUMP JUMPDEST SWAP2 POP PUSH2 0x186D DUP3 PUSH2 0x182E JUMP JUMPDEST PUSH1 0x20 DUP3 ADD SWAP1 POP SWAP2 SWAP1 POP JUMP JUMPDEST PUSH0 PUSH1 0x20 DUP3 ADD SWAP1 POP DUP2 DUP2 SUB PUSH0 DUP4 ADD MSTORE PUSH2 0x188F DUP2 PUSH2 0x1856 JUMP JUMPDEST SWAP1 POP SWAP2 SWAP1 POP JUMP JUMPDEST PUSH0 PUSH1 0x40 DUP3 ADD SWAP1 POP PUSH2 0x18A9 PUSH0 DUP4 ADD DUP6 PUSH2 0x1554 JUMP JUMPDEST PUSH2 0x18B6 PUSH1 0x20 DUP4 ADD DUP5 PUSH2 0x14FC JUMP JUMPDEST SWAP4 SWAP3 POP POP POP JUMP JUMPDEST PUSH0 DUP2 ISZERO ISZERO SWAP1 POP SWAP2 SWAP1 POP JUMP JUMPDEST PUSH2 0x18D1 DUP2 PUSH2 0x18BD JUMP JUMPDEST DUP2 EQ PUSH2 0x18DB JUMPI PUSH0 DUP1 REVERT JUMPDEST POP JUMP JUMPDEST PUSH0 DUP2 MLOAD SWAP1 POP PUSH2 0x18EC DUP2 PUSH2 0x18C8 JUMP JUMPDEST SWAP3 SWAP2 POP POP JUMP JUMPDEST PUSH0 PUSH1 0x20 DUP3 DUP5 SUB SLT ISZERO PUSH2 0x1907 JUMPI PUSH2 0x1906 PUSH2 0x149A JUMP JUMPDEST JUMPDEST PUSH0 PUSH2 0x1914 DUP5 DUP3 DUP6 ADD PUSH2 0x18DE JUMP JUMPDEST SWAP2 POP POP SWAP3 SWAP2 POP POP JUMP JUMPDEST PUSH0 DUP2 SWAP1 POP SWAP2 SWAP1 POP JUMP JUMPDEST PUSH0 PUSH2 0x1940 PUSH2 0x193B PUSH2 0x1936 DUP5 PUSH2 0x191D JUMP JUMPDEST PUSH2 0x16CA JUMP JUMPDEST PUSH2 0x149E JUMP JUMPDEST SWAP1 POP SWAP2 SWAP1 POP JUMP JUMPDEST PUSH2 0x1950 DUP2 PUSH2 0x1926 JUMP JUMPDEST DUP3 MSTORE POP POP JUMP JUMPDEST PUSH0 PUSH1 0x80 DUP3 ADD SWAP1 POP PUSH2 0x1969 PUSH0 DUP4 ADD DUP8 PUSH2 0x16F4 JUMP JUMPDEST PUSH2 0x1976 PUSH1 0x20 DUP4 ADD DUP7 PUSH2 0x172D JUMP JUMPDEST PUSH2 0x1983 PUSH1 0x40 DUP4 ADD DUP6 PUSH2 0x14FC JUMP JUMPDEST PUSH2 0x1990 PUSH1 0x60 DUP4 ADD DUP5 PUSH2 0x1947 JUMP JUMPDEST SWAP6 SWAP5 POP POP POP POP POP JUMP JUMPDEST PUSH32 0x4172626974726167652070726F666974203C3D30000000000000000000000000 PUSH0 DUP3 ADD MSTORE POP JUMP JUMPDEST PUSH0 PUSH2 0x19CD PUSH1 0x14 DUP4 PUSH2 0x157C JUMP JUMPDEST SWAP2 POP PUSH2 0x19D8 DUP3 PUSH2 0x1999 JUMP JUMPDEST PUSH1 0x20 DUP3 ADD SWAP1 POP SWAP2 SWAP1 POP JUMP JUMPDEST PUSH0 PUSH1 0x20 DUP3 ADD SWAP1 POP DUP2 DUP2 SUB PUSH0 DUP4 ADD MSTORE PUSH2 0x19FA DUP2 PUSH2 0x19C1 JUMP JUMPDEST SWAP1 POP SWAP2 SWAP1 POP JUMP JUMPDEST PUSH32 0x4E487B7100000000000000000000000000000000000000000000000000000000 PUSH0 MSTORE PUSH1 0x11 PUSH1 0x4 MSTORE PUSH1 0x24 PUSH0 REVERT JUMPDEST PUSH0 PUSH2 0x1A38 DUP3 PUSH2 0x149E JUMP JUMPDEST SWAP2 POP PUSH2 0x1A43 DUP4 PUSH2 0x149E JUMP JUMPDEST SWAP3 POP DUP3 DUP3 SUB SWAP1 POP DUP2 DUP2 GT ISZERO PUSH2 0x1A5B JUMPI PUSH2 0x1A5A PUSH2 0x1A01 JUMP JUMPDEST JUMPDEST SWAP3 SWAP2 POP POP JUMP JUMPDEST PUSH0 DUP2 SWAP1 POP SWAP2 SWAP1 POP JUMP JUMPDEST PUSH0 PUSH3 0xFFFFFF DUP3 AND SWAP1 POP SWAP2 SWAP1 POP JUMP JUMPDEST PUSH0 PUSH2 0x1A92 PUSH2 0x1A8D PUSH2 0x1A88 DUP5 PUSH2 0x1A61 JUMP JUMPDEST PUSH2 0x16CA JUMP JUMPDEST PUSH2 0x1A6A JUMP JUMPDEST SWAP1 POP SWAP2 SWAP1 POP JUMP JUMPDEST PUSH2 0x1AA2 DUP2 PUSH2 0x1A78 JUMP JUMPDEST DUP3 MSTORE POP POP JUMP JUMPDEST PUSH0 PUSH1 0x60 DUP3 ADD SWAP1 POP PUSH2 0x1ABB PUSH0 DUP4 ADD DUP7 PUSH2 0x1554 JUMP JUMPDEST PUSH2 0x1AC8 PUSH1 0x20 DUP4 ADD DUP6 PUSH2 0x1554 JUMP JUMPDEST PUSH2 0x1AD5 PUSH1 0x40 DUP4 ADD DUP5 PUSH2 0x1A99 JUMP JUMPDEST SWAP5 SWAP4 POP POP POP POP JUMP JUMPDEST PUSH2 0x1AE6 DUP2 PUSH2 0x1524 JUMP JUMPDEST DUP2 EQ PUSH2 0x1AF0 JUMPI PUSH0 DUP1 REVERT JUMPDEST POP JUMP JUMPDEST PUSH0 DUP2 MLOAD SWAP1 POP PUSH2 0x1B01 DUP2 PUSH2 0x1ADD JUMP JUMPDEST SWAP3 SWAP2 POP POP JUMP JUMPDEST PUSH0 DUP2 PUSH1 0x2 SIGNEXTEND SWAP1 POP SWAP2 SWAP1 POP JUMP JUMPDEST PUSH2 0x1B1C DUP2 PUSH2 0x1B07 JUMP JUMPDEST DUP2 EQ PUSH2 0x1B26 JUMPI PUSH0 DUP1 REVERT JUMPDEST POP JUMP JUMPDEST PUSH0 DUP2 MLOAD SWAP1 POP PUSH2 0x1B37 DUP2 PUSH2 0x1B13 JUMP JUMPDEST SWAP3 SWAP2 POP POP JUMP JUMPDEST PUSH0 PUSH2 0xFFFF DUP3 AND SWAP1 POP SWAP2 SWAP1 POP JUMP JUMPDEST PUSH2 0x1B53 DUP2 PUSH2 0x1B3D JUMP JUMPDEST DUP2 EQ PUSH2 0x1B5D JUMPI PUSH0 DUP1 REVERT JUMPDEST POP JUMP JUMPDEST PUSH0 DUP2 MLOAD SWAP1 POP PUSH2 0x1B6E DUP2 PUSH2 0x1B4A JUMP JUMPDEST SWAP3 SWAP2 POP POP JUMP JUMPDEST PUSH0 PUSH1 0xFF DUP3 AND SWAP1 POP SWAP2 SWAP1 POP JUMP JUMPDEST PUSH2 0x1B89 DUP2 PUSH2 0x1B74 JUMP JUMPDEST DUP2 EQ PUSH2 0x1B93 JUMPI PUSH0 DUP1 REVERT JUMPDEST POP JUMP JUMPDEST PUSH0 DUP2 MLOAD SWAP1 POP PUSH2 0x1BA4 DUP2 PUSH2 0x1B80 JUMP JUMPDEST SWAP3 SWAP2 POP POP JUMP JUMPDEST PUSH0 DUP1 PUSH0 DUP1 PUSH0 DUP1 PUSH0 PUSH1 0xE0 DUP9 DUP11 SUB SLT ISZERO PUSH2 0x1BC5 JUMPI PUSH2 0x1BC4 PUSH2 0x149A JUMP JUMPDEST JUMPDEST PUSH0 PUSH2 0x1BD2 DUP11 DUP3 DUP12 ADD PUSH2 0x1AF3 JUMP JUMPDEST SWAP8 POP POP PUSH1 0x20 PUSH2 0x1BE3 DUP11 DUP3 DUP12 ADD PUSH2 0x1B29 JUMP JUMPDEST SWAP7 POP POP PUSH1 0x40 PUSH2 0x1BF4 DUP11 DUP3 DUP12 ADD PUSH2 0x1B60 JUMP JUMPDEST SWAP6 POP POP PUSH1 0x60 PUSH2 0x1C05 DUP11 DUP3 DUP12 ADD PUSH2 0x1B60 JUMP JUMPDEST SWAP5 POP POP PUSH1 0x80 PUSH2 0x1C16 DUP11 DUP3 DUP12 ADD PUSH2 0x1B60 JUMP JUMPDEST SWAP4 POP POP PUSH1 0xA0 PUSH2 0x1C27 DUP11 DUP3 DUP12 ADD PUSH2 0x1B96 JUMP JUMPDEST SWAP3 POP POP PUSH1 0xC0 PUSH2 0x1C38 DUP11 DUP3 DUP12 ADD PUSH2 0x18DE JUMP JUMPDEST SWAP2 POP POP SWAP3 SWAP6 SWAP9 SWAP2 SWAP5 SWAP8 POP SWAP3 SWAP6 POP JUMP JUMPDEST PUSH0 PUSH2 0x1C51 DUP3 PUSH2 0x149E JUMP JUMPDEST SWAP2 POP PUSH2 0x1C5C DUP4 PUSH2 0x149E JUMP JUMPDEST SWAP3 POP DUP3 DUP3 MUL PUSH2 0x1C6A DUP2 PUSH2 0x149E JUMP JUMPDEST SWAP2 POP DUP3 DUP3 DIV DUP5 EQ DUP4 ISZERO OR PUSH2 0x1C81 JUMPI PUSH2 0x1C80 PUSH2 0x1A01 JUMP JUMPDEST JUMPDEST POP SWAP3 SWAP2 POP POP JUMP JUMPDEST PUSH32 0x4E487B7100000000000000000000000000000000000000000000000000000000 PUSH0 MSTORE PUSH1 0x12 PUSH1 0x4 MSTORE PUSH1 0x24 PUSH0 REVERT JUMPDEST PUSH0 PUSH2 0x1CBF DUP3 PUSH2 0x149E JUMP JUMPDEST SWAP2 POP PUSH2 0x1CCA DUP4 PUSH2 0x149E JUMP JUMPDEST SWAP3 POP DUP3 PUSH2 0x1CDA JUMPI PUSH2 0x1CD9 PUSH2 0x1C88 JUMP JUMPDEST JUMPDEST DUP3 DUP3 DIV SWAP1 POP SWAP3 SWAP2 POP POP JUMP JUMPDEST PUSH32 0x574554482062616C616E63654F66206E6F7420656E6F75676800000000000000 PUSH0 DUP3 ADD MSTORE POP JUMP JUMPDEST PUSH0 PUSH2 0x1D19 PUSH1 0x19 DUP4 PUSH2 0x157C JUMP JUMPDEST SWAP2 POP PUSH2 0x1D24 DUP3 PUSH2 0x1CE5 JUMP JUMPDEST PUSH1 0x20 DUP3 ADD SWAP1 POP SWAP2 SWAP1 POP JUMP JUMPDEST PUSH0 PUSH1 0x20 DUP3 ADD SWAP1 POP DUP2 DUP2 SUB PUSH0 DUP4 ADD MSTORE PUSH2 0x1D46 DUP2 PUSH2 0x1D0D JUMP JUMPDEST SWAP1 POP SWAP2 SWAP1 POP JUMP JUMPDEST PUSH0 PUSH1 0x80 DUP3 ADD SWAP1 POP PUSH2 0x1D60 PUSH0 DUP4 ADD DUP8 PUSH2 0x172D JUMP JUMPDEST PUSH2 0x1D6D PUSH1 0x20 DUP4 ADD DUP7 PUSH2 0x16F4 JUMP JUMPDEST PUSH2 0x1D7A PUSH1 0x40 DUP4 ADD DUP6 PUSH2 0x14FC JUMP JUMPDEST PUSH2 0x1D87 PUSH1 0x60 DUP4 ADD DUP5 PUSH2 0x1947 JUMP JUMPDEST SWAP6 SWAP5 POP POP POP POP POP JUMP JUMPDEST PUSH2 0x1D99 DUP2 PUSH2 0x1543 JUMP JUMPDEST DUP3 MSTORE POP POP JUMP JUMPDEST PUSH2 0x1DA8 DUP2 PUSH2 0x1A6A JUMP JUMPDEST DUP3 MSTORE POP POP JUMP JUMPDEST PUSH2 0x1DB7 DUP2 PUSH2 0x149E JUMP JUMPDEST DUP3 MSTORE POP POP JUMP JUMPDEST PUSH2 0x1DC6 DUP2 PUSH2 0x1524 JUMP JUMPDEST DUP3 MSTORE POP POP JUMP JUMPDEST PUSH2 0x100 DUP3 ADD PUSH0 DUP3 ADD MLOAD PUSH2 0x1DE1 PUSH0 DUP6 ADD DUP3 PUSH2 0x1D90 JUMP JUMPDEST POP PUSH1 0x20 DUP3 ADD MLOAD PUSH2 0x1DF4 PUSH1 0x20 DUP6 ADD DUP3 PUSH2 0x1D90 JUMP JUMPDEST POP PUSH1 0x40 DUP3 ADD MLOAD PUSH2 0x1E07 PUSH1 0x40 DUP6 ADD DUP3 PUSH2 0x1D9F JUMP JUMPDEST POP PUSH1 0x60 DUP3 ADD MLOAD PUSH2 0x1E1A PUSH1 0x60 DUP6 ADD DUP3 PUSH2 0x1D90 JUMP JUMPDEST POP PUSH1 0x80 DUP3 ADD MLOAD PUSH2 0x1E2D PUSH1 0x80 DUP6 ADD DUP3 PUSH2 0x1DAE JUMP JUMPDEST POP PUSH1 0xA0 DUP3 ADD MLOAD PUSH2 0x1E40 PUSH1 0xA0 DUP6 ADD DUP3 PUSH2 0x1DAE JUMP JUMPDEST POP PUSH1 0xC0 DUP3 ADD MLOAD PUSH2 0x1E53 PUSH1 0xC0 DUP6 ADD DUP3 PUSH2 0x1DAE JUMP JUMPDEST POP PUSH1 0xE0 DUP3 ADD MLOAD PUSH2 0x1E66 PUSH1 0xE0 DUP6 ADD DUP3 PUSH2 0x1DBD JUMP JUMPDEST POP POP POP POP JUMP JUMPDEST PUSH0 PUSH2 0x100 DUP3 ADD SWAP1 POP PUSH2 0x1E80 PUSH0 DUP4 ADD DUP5 PUSH2 0x1DCC JUMP JUMPDEST SWAP3 SWAP2 POP POP JUMP INVALID LOG2 PUSH5 0x6970667358 0x22 SLT KECCAK256 0xD 0xBD DUP8 0xA6 LOG4 0xAD 0xC3 0xFC PUSH4 0xD0029A37 0x1F 0x21 0xC4 DUP1 0xD9 0xCA PUSH26 0xCFE307D90A4826E5052E9EDE64736F6C634300081A0033000000 "
				},
				"gasEstimates": {
					"creation": {
						"codeDepositCost": "1573600",
						"executionCost": "25908",
						"totalCost": "1599508"
					},
					"external": {
						"buyWETHOnCurve(uint256)": "infinite",
						"buyWETHOnUniswap(uint256)": "infinite",
						"depositWETH()": "infinite",
						"exactueArbitrage(uint256)": "infinite",
						"getAmountOutCurve(uint256)": "infinite",
						"getAmountOutUniswapV3(uint256)": "infinite",
						"getCoinsFromCurvePool(uint256)": "infinite",
						"sellWETHOnCurve(uint256)": "infinite",
						"sellWETHOnUniswap(uint256)": "infinite"
					},
					"internal": {
						"swapExactInputSingleHop(address,address,uint24,uint256)": "infinite"
					}
				},
				"methodIdentifiers": {
					"buyWETHOnCurve(uint256)": "793c0845",
					"buyWETHOnUniswap(uint256)": "064a8a8a",
					"depositWETH()": "1de3df2c",
					"exactueArbitrage(uint256)": "926446db",
					"getAmountOutCurve(uint256)": "3eb61c1c",
					"getAmountOutUniswapV3(uint256)": "bbceefe3",
					"getCoinsFromCurvePool(uint256)": "64084ac0",
					"sellWETHOnCurve(uint256)": "cc9901aa",
					"sellWETHOnUniswap(uint256)": "54258cc4"
				}
			},
			"storageLayout": {
				"storage": [
					{
						"astId": 38,
						"contract": "Arbitrage.sol:arbitrage",
						"label": "admin",
						"offset": 0,
						"slot": "0",
						"type": "t_address"
					}
				],
				"types": {
					"t_address": {
						"encoding": "inplace",
						"label": "address",
						"numberOfBytes": "20"
					}
				}
			},
			"userdoc": {
				"kind": "user",
				"methods": {},
				"version": 1
			}
		}
	}
}